:020000040000FA
:1000000000080020AB100000190D0000190D0000C1
:1000100000000000000000000000000000000000E0
:10002000000000000000000000000000190D0000AA
:100030000000000000000000190D0000190D000074
:10004000190D0000190D0000190D0000190D000018
:10005000190D0000190D0000190D0000190D000008
:10006000190D0000190D0000190D0000190D0000F8
:10007000190D0000190D0000190D0000190D0000E8
:10008000190D0000190D0000190D0000190D0000D8
:10009000190D0000190D0000190D0000190D0000C8
:1000A000190D0000190D0000190D0000190D0000B8
:1000B000190D0000190D0000190D0000190D0000A8
:1000C000190D0000190D0000190D0000190D000098
:1000D000190D0000190D0000190D0000190D000088
:1000E000190D0000190D0000190D0000190D000078
:1000F000190D0000190D0000190D0000190D000068
:10010000190D0000190D0000190D0000190D000057
:10011000190D0000190D0000190D0000190D000047
:10012000190D0000190D0000190D0000190D000037
:10013000190D0000190D0000190D0000190D000027
:10014000190D0000190D0000190D0000190D000017
:10015000190D0000190D0000190D0000190D000007
:10016000190D0000190D0000190D0000190D0000F7
:10017000190D0000190D0000190D0000190D0000E7
:10018000190D0000190D0000190D0000190D0000D7
:10019000190D0000190D0000190D0000190D0000C7
:1001A000190D0000190D0000190D0000190D0000B7
:1001B000190D0000190D0000190D0000190D0000A7
:1001C000190D0000190D0000190D0000190D000097
:1001D000190D0000190D000000F002F800F02EF8D3
:1001E0000CA030C8083824182D18671EA246AB464C
:1001F00054465D46AC4201D100F020F87E460F3EE9
:10020000B6460FCC0126334200D0FB1A3343A24638
:10021000AB461847F82F00001830000000230024D8
:1002200000250026103A01D378C1FBD8520700D32D
:1002300030C100D50B6070471FB51FBD054885460E
:1002400003B401F0D4F903BC00F01DF900F025F966
:1002500001F0DCFA000800207046F047704710B546
:10026000202A04DB0146203A9140002010BD914035
:1002700020239C1A0346E3401943904010BD10B55B
:10028000202A04DB0846203AD040002110BD0B464E
:100290002024D340D040A21A91400843194610BDF3
:1002A0004343514330B55C18010C130C0D4692B218
:1002B0005D4380B251432C19054655430A0C09048D
:1002C0004D1962415843010C00044019514130BDA1
:1002D000FEB5054610460C46184373D0AE468C4614
:1002E0000020AD1A01469C4167D3664600270124D1
:1002F0003D46B61A9D4102D313463A46212465462F
:1003000076462F04360C3E432D0CB61A9D4104D37D
:10031000150C1B042B4312041034654676462F0639
:10032000360A3E432D0AB61A9D4104D3150E1B0210
:100330002B4312020834654676462F0736093E43A2
:100340002D09B61A9D4104D3150F1B012B43120131
:10035000241D65467646AF07B6083E43AD08B61A7B
:100360009D4104D3950F9B002B439200A41C65462E
:100370007646EF0776083E436D08B61A9D411AD3BC
:1003800092185B41641C16E00018764665464941A8
:10039000B71A9D410191009009D36046B11A984166
:1003A0008E468446009801990025401C6941DD076E
:1003B00052082A435B08641EE6D57246634603B0C2
:1003C000F0BDFFE700200146C046C0462A4623464E
:1003D000F5E770477047704710B501469E2400024C
:1003E000CA15A307002A02D01843002A04DBA21A68
:1003F000002A0CDDD04010BD1206120E01D14000C3
:100400004008A21A03D4D04040420028F3DDFF2266
:1004100048001206904201D9002010BDC817C04301
:10042000584010BD704770B58D180478401CA20765
:10043000920F01D10278401C231106D10378401C91
:1004400003E00678401C0E70491C521EF9D1002BA7
:1004500015D002780C2634408A1A401C0C2C03D08C
:10046000A401121B9B1C08E004782402121B401CF0
:10047000F8E714780C70491C521C5B1EF9D5A94290
:10048000D3D3002070BD42F2E000C2F2000048F277
:100490000001C2F20001FFF7CFBE80B501F09AFD66
:1004A00080BC01BC864601F0B1BC1F210140012285
:1004B0008A40000F0C21014040F20420C4F20000E9
:1004C0000B5893430B50704710B571460446C8074C
:1004D0001AD1601C12D042F6D040C0F200000830A1
:1004E00040F24C210322D2438258A24204D00C395C
:1004F0000C300029F6D101E0006828B943F22B1036
:10050000C0F2000001F04EF92046FFF7CEFF10BC0C
:1005100001BC86467046714672467346F4468EF3B9
:10052000008874471F21014001228A40000F0C21DE
:10053000014040F20420C4F200000B5813430B505A
:10054000704710B571460446C8071AD1601C12D016
:1005500042F6D040C0F20000083040F24C210322A5
:10056000D2438258A24204D00C390C300029F6D173
:1005700001E0006828B943F22B10C0F2000001F03E
:1005800011F92046FFF7CEFF10BC01BC864670462D
:10059000714672467346F4468EF300887447F0B590
:1005A00084B001273A0440F20025C4F200052B6C08
:1005B00013432B642B6846F2FF06CFF6DB7668B157
:1005C000042213432B602B6D1022134212D13346A9
:1005D0005B1C0FD02C6D1442FAD00BE001221343A8
:1005E0002B602B6D134205D133465B1C02D02C6D62
:1005F0001442FAD04CF60022CFF691628A1840F2EB
:10060000022440F60063C0F227739A4274D8019026
:1006100049F20043CFF62353CB1846F60044C0F20C
:10062000DC240020A34200D3074643F20063C0F25B
:100630006E1303269A42344600D33C4600940225AA
:100640009A4200D33D46A940C34307460290B01EDC
:10065000042803962AD841F60030C0F2B700B0FB58
:10066000F6F0420002263046504342F60004CFF630
:10067000472404194EF60025C0F23265AC420CD86E
:10068000451A0C1A884200D825469D4205D2002002
:10069000002D2B460296039F05D0761C40F20220C7
:1006A0008642E0D302E003460296039F039E761C37
:1006B000212ECCD178024FF60061CFF6FF714018A1
:1006C000009B9903019A1143029CA21E0A43024314
:1006D00040F20025C4F200052A64581C784341F614
:1006E0000031C0F2B701B1FBF0F06043400046F2C8
:1006F000FF06CFF6DB7616E00321C9436958FE34C6
:10070000214208D04CF20E210843286446F60040EE
:10071000C0F2DC2007E044F20E410843286449F2AD
:100720000000C0F2D0302A6D042102E0761C02D015
:100730002A6D0A42FAD004B0F0BD40F20021C4F2A2
:1007400000010A6802430A6070470000F0B540F2F9
:100750000820C4F20000036802221340846B0521C4
:100760000D0400212C421FD1A10341F60031C0F23B
:10077000B70119D4A50B03262E4042F68C45C0F2D2
:100780000005AD5D660A1F2737407E1C6E4364007E
:1007900040F2FE3525404CF2C064C0F22D046C439B
:1007A0006118B1FBF6F1890040F64C74C2F2000406
:1007B0002160856807242C40022C1DD0012C11D10A
:1007C00048F2000141F20014C4F2040473B9036852
:1007D0001343036023680468944304608022134237
:1007E00008D109E0A10017A2515805E02268802332
:1007F0001A4201D047F6005180690F220240501C76
:10080000B1FBF0F040F65471C2F2000108604AF208
:100810002011C0F20701411844F24022C0F20F0239
:10082000B1FBF2F140F6E012C2F200021160F0BC3E
:1008300002BC8E46714672467346F4468EF30088BB
:100840007447C046001BB700008000000000000095
:100850001027000000000000006CDC020000000017
:10086000001BB70080B500F09FFC40F65470C2F248
:100870000000006880BC02BC8E467146724673461A
:10088000F4468EF30088744740F20020C4F2000062
:10089000006801210140494241F60030C0F2B70032
:1008A0000840714672467346F4468EF300887447DA
:1008B00040F20020C4F200000068810348F200000A
:1008C0000840714672467346F4468EF300887447BA
:1008D000810ACAB2002192B141091F230B409A40FC
:1008E000000C0C21014042F67C40C0F20000405850
:1008F00040F22021C4F2000141581140D94008467D
:10090000714672467346F4468EF3008874470000C1
:1009100010B501464FF6F070C7F6FF7008180328AF
:1009200012D8810001A251188F46C04600F006B8C7
:1009300000F025B800F02AB800F02FB840F21820D7
:10094000C4F2000001682EE04A0E07231A4000207E
:100950005AB3080D1F240440A240880E0C21014008
:1009600042F66C40C0F20000405840F21821C4F238
:1009700000014018D94340581040E04015E040F2D3
:100980001820C4F20000006841080CE040F2182072
:10099000C4F200000068010A05E040F21820C4F229
:1009A00000000068410A0120084010BC02BC8E46CD
:1009B000714672467346F4468EF30088744780B5DC
:1009C00000F0F2FB40F65470C2F20000006840F202
:1009D0003421C4F20001096807220A40D04080BCDB
:1009E00002BC8E46714672467346F4468EF300880A
:1009F000744780B500F0D8FB40F65470C2F2000096
:100A0000006840F23421C4F2000109680909072294
:100A10000A40D04080BC02BC8E4671467246734686
:100A2000F4468EF30088744710B540F24020C4F2BB
:100A30000000016805200204002011421FD1880334
:100A400041F60030C0F2B70019D48A0B03231340DB
:100A500042F68C42C0F20002D25C4B0A1F241C40BA
:100A6000631C5343490040F2FE320A404CF2C0611D
:100A7000C0F22D0151430818B0FBF3F0800010BC08
:100A800002BC8E46714672467346F4468EF3008869
:100A900074474EF61050CEF20000016804229143D4
:100AA000016040F20020C4F20000016880229143FE
:100AB000016030BF704780B5FFF7EBFF80BC01BC21
:100AC00086467046714672467346F4468EF3008839
:100AD00074474EF61050CEF20000016804220A431B
:100AE000026040F20020C4F20000016880220A4344
:100AF000026030BF704780B5FFF7EBFF80BC01BCE0
:100B000086467046714672467346F4468EF30088F8
:100B10007447F0B581B040F20025C4F200052E6D97
:100B20000321C943695840F200320A4049F20001EA
:100B3000C0F2D031884200D98AB146F60041C0F2F5
:100B4000DC21884203D940F200139A4207D043F2D5
:100B50000061C0F26E11884200D80846014628683C
:100B60000427384328602A6D1020024208D146F23B
:100B7000FF02CFF6DB72521C02D02B6D0342FAD07B
:100B80002869072202432A61286A0F2290432862BB
:100B90002A6D0120024205D1C004FFF700FD044682
:100BA0002E6D03E00020FFF7FAFC0446022000212E
:100BB00000F008F8F00602D42868B8432860204600
:100BC00001B0F0BDF0B581B040F20024C4F20004E1
:100BD000266D226804252A43226010221640236DC8
:100BE000134208D146F2FF03CFF6DB735B1C02D041
:100BF000276D1742FAD0226907231A432261226A1D
:100C00000F27BA430A4322622169994301432161B4
:100C100000F0CAFA16B92068A843206001B0F0BD00
:100C2000F0B50023DC43830ADDB240F21023C4F2A6
:100C300000038DB146091F273740BD406540060CB3
:100C40000C27374042F67C46C0F20006F659F618EB
:100C500037692F4017433761450E07222A4082B17A
:100C6000050D1F262E40B2406240800E0C24044029
:100C700042F66C40C0F200000059C45814400C43C6
:100C8000C450F0BD70B5734614460D460646D807ED
:100C90001AD1701C12D042F6D040C0F200000830C9
:100CA00040F24C210322D2438258B24204D00C3984
:100CB0000C300029F6D101E0006828B943F22B106E
:100CC000C0F2000000F06EFD304629462246FFF7D4
:100CD000A7FF70BC01BC86467046714672467346DB
:100CE000F4468EF30088744710B540F25022C4F2E7
:100CF000000211680140012381420AD046F2FF043C
:100D0000CFF6DB740021641C04D0116801408142DD
:100D1000F8D11946084610BDFEE7F0B500231C4681
:100D20000125A5400D4207D015469D4003269E4053
:100D30000768B7432F4307609B1C641C102CEFD13E
:100D4000F0BDF0B581B001273C07FFF785FA41F20D
:100D50000005C4F2040541F20006C5F20406204273
:100D6000284600D0304600903F04FFF775FA204235
:100D700004D0009A70683842FCD003E0009A68689A
:100D80003842FCD0D06B04210143D16301B0F0BDE7
:100D9000F0B581B0044601252E07FFF75DFA304219
:100DA00004D041F20001C5F2040103E041F2000168
:100DB000C4F20401486928400090E0618B6907276C
:100DC0003B40E3600B691E0D0F231E4042F278008A
:100DD000C2F2000006600E69360C1E4042F290001E
:100DE000C2F2000006600E69360B2E4042F270001F
:100DF000C2F2000006600D692D0A1D4042F2880013
:100E0000C2F2000005600D692D090326354042F24B
:100E10006400C2F2000005600D691D4042F27C00D2
:100E2000C2F200000560CD682D0D354042F2680623
:100E3000C2F200063560CD68280C184042F28005E9
:100E4000C2F200052860C868000B384042F26C020C
:100E5000C2F200021060C868000A184042F2840220
:100E6000C2F200021060C8680009384042F27407FC
:100E7000C2F200073860C868184042F28C01C2F222
:100E80000001086042F27800C2F2000000680A2304
:100E9000584342F29002C2F200021268101840F267
:100EA000D0728018206042F27000C2F20000006828
:100EB000584342F28802C2F2000212688018606051
:100EC00042F26400C2F200000068584342F27C0221
:100ED000C2F2000212688018A060306858432A6885
:100EE00085182561009840B9152D04D30220206291
:100EF000143D256101E00120206242F26C00C2F243
:100F000000000068584342F28402C2F200021268F4
:100F100080183A685A43096851186061A16101B0AC
:100F2000F0BDB0B5044601200507FFF795F928424A
:100F300004D041F20000C5F2040003E041F20000D9
:100F4000C4F2040041F25731CAF2EB510160026869
:100F5000012A03D0016001680129FCD12CB120468F
:100F6000B0BC02BC8E4600F001B8B0BDF0B585B093
:100F7000044601200190050741F20406C4F204066C
:100F8000301F049041F20407C5F20407381F009097
:100F9000FFF762F90395284201D00098049020469B
:100FA000002C00D17FE001980504FFF755F9039963
:100FB000084204D0049B38682842FCD003E0049B1C
:100FC00030682842FCD0E169586919B10199084399
:100FD000586108E0019988435861206A022802D1CB
:100FE000206914302061E0680493986121690A2027
:100FF0000294B1FBF0F213054243891A0904194324
:101000006269B2FBF0F31C030C434343D11A09029B
:101010002143029A9269B2FBF0F304465C43121B2F
:101020000A43190111430191029C21684FF63002D5
:10103000CFF6FF728918B1FBF0F203465343C91A89
:10104000090412050A436168B1FBF0F31C03144361
:101050004343C91A09022143029A9268B2FBF0F392
:101060005843101A08431C010443FFF7F5F803998D
:10107000084203D038682842FCD002E03068284299
:10108000FCD0049804610446FFF7E6F8039908428F
:1010900004D0019938682842FCD003E001993068F7
:1010A0002842FCD0E16005B0F0BD80B540F20010F0
:1010B000C4F20000592101601621016088210160FD
:1010C00001680029F6D0DB21C94345F6A52242502C
:1010D0000021016000F088F8FFF77EF8FEE740F29B
:1010E0000010C4F200000021016070467146724693
:1010F0007346F4468EF3008874474FF6FF71C0F2D2
:10110000FF01014001228A40000E40F20801C4F2B2
:1011100000014358934343507046714672467346EC
:10112000F4468EF30088744710B571460446C8072C
:1011300017D1601C0FD042F6D040C0F2000040F240
:101140004C210268A24204D00C390C300029F8D19D
:1011500001E0806828B943F22B10C0F2000000F0D3
:1011600021FB20463BF0A4FF10BC01BC8646704624
:10117000714672467346F4468EF30088744740F217
:101180000010C4F20000592101601621016088217D
:10119000016001680029F6D07046714672467346B8
:1011A000F4468EF30088744780B53BF07DFF40F62F
:1011B0004C71C2F2000108603BF056FF40F65471DA
:1011C000C2F2000108604AF22011C0F20701401883
:1011D00044F24021C0F20F01B0FBF1F040F6E01103
:1011E000C2F20001086080BD70B54EF60850CEF224
:1011F000000040F20001C0F200010160D021032391
:1012000043501F22D4434DF20005C0F203052E4681
:101210002640D422865041F20006C0F20006AD19E5
:101220006D1E25401D43D823C5500424445040F270
:101230000004C1F2040484504FF6E174C1F20704C3
:10124000C4500524445047F60065C0F2800585501F
:1012500047F6E375C0F28005C5500625455048F2B3
:101260000005C3F20005855047F6E175C3F201059C
:10127000C55007254550210781504FF6E171C5F64D
:10128000FF71C150C82201218150826808239A430E
:10129000826040F20002C0F2FA5242604FF6FC60F7
:1012A000CFF6FF700246C3324EF28033CEF2000317
:1012B0001A6058600020C2439A60DA604FF200035F
:1012C000C4F202031A605A60941E9C60DA601A61CC
:1012D0005A619A611A620C22521E0C4694405D6A51
:1012E00025435D62042AF7D88A04996A914200D1A5
:1012F00070BD40F20011C4F2000159230B601623A7
:101300000B6088230B600B68002BF6D04CF20003B7
:10131000C4F2000311241C6040F60004C0F2200453
:101320005C60D8600120186118690028FCD19868B9
:10133000401C0BD19A602120D860012018611869E7
:101340000028FCD1F720C04301220A50FEE700002C
:1013500010B50446002041F2FF01C4F205018C42A1
:1013600012DC40F20001C4F205018C4228D040F2A8
:101370000011C4F205018C4227D041F20001C4F2F1
:1013800005018C4217D039E041F20011C4F2050189
:101390008C420BD041F20001C5F205018C420AD00B
:1013A00041F20011C5F205018C4227D140F205003F
:1013B000C5F640700DE040F20400C5F6007008E08C
:1013C00040F20200C5F6806003E040F20300C5F67B
:1013D000C0603BF05DFE02280DD140F200100443D6
:1013E00040F20010C4F20500844208D110BC01BCD8
:1013F00086463BF051BE800003A1085810BD10BCCA
:1014000001BC86463BF04CBE001BB70000800000CC
:101410000000000000000000000000001027000095
:1014200000000000001BB7000020EFF30581B9B1F8
:1014300040F65072C2F2000211684B1C10D04802F4
:1014400040F6D873C2F20003185810600C204843CD
:1014500040F67872C2F20002131810589860481CC7
:10146000714672467346F4468EF30088744710B591
:10147000411EEFF305820020072919D8C2B10C22C2
:101480004A4340F67873C2F200039A189368083210
:1014900073B100201060480240F65072C2F20002A0
:1014A000136840F6D874C2F2000423501160012082
:1014B00010BC02BC8E46714672467346F4468EF3EB
:1014C00000887447B0B50020EFF3058151B340F6B2
:1014D000D874C2F20004012040F67871C2F2000113
:1014E00040F200220023A5180D604C608B60206044
:1014F0000C31401C09282C46F4D1D84340F6006139
:1015000040F6D872C2F20002505040F65070C2F25B
:101510000000036082F30B8882F30988022080F3C5
:1015200014880120B0BC02BC8E46714672467346D8
:10153000F4468EF30088744701460020EFF30582DD
:10154000CAB10223EFF314821A40491E072912D8A8
:101550008AB10C224A4340F67871C2F200018A181F
:1015600011460831936833B1506880F30B880868DE
:1015700080F309880120714672467346F4468EF363
:1015800000887447B0B501460020EFF3058222B30E
:101590000223EFF314821A40491E07291DD8E2B135
:1015A0000C224A4340F67873C2F200039D18294684
:1015B0000831AC688CB1EFF309846D68AC420CD390
:1015C0009A58944209D80C6040F6D870C2F20000D4
:1015D00080F30B8880F309880120B0BC02BC8E46E2
:1015E000714672467346F4468EF30088744710B510
:1015F0004EF60850CEF200000168762240F6000355
:10160000C2F2000310C910C3521EFBD140F6000104
:10161000C2F20001016010BC01BC864600F0DBBCD8
:10162000F0B583B003460020002B6BD0002969D0B1
:10163000029159690D46463D882D63D803250D401A
:101640000020461B6E41C8274F40019217430125D9
:10165000002F009500D13D462E403025754342F6BF
:101660001C76C0F2000675191E69B600AF599D6858
:1016700040F610666E435D683C246C431D682C196F
:10168000A419DB6845F28016C0F201067343E31823
:10169000DB194AF68064CFF6FE741B19CE2912D1ED
:1016A000019A32B942F27F24C0F23104A342019A76
:1016B00028D8012A0AD14DF2FF04C0F22F04A34218
:1016C000019A1FD802E04729019A18DB1120C04374
:1016D000471CC82900DC384602B1384640F26D1478
:1016E0004C434A1ED517AD0F52199210A21810186C
:1016F00049F63242CFF6FF72801846439B19029892
:101700000360009803B0F0BD10B541F6DC74C2F27E
:1017100000042068401C04D105A012A1512200F051
:10172000A3FB00F046FA2068401C206010BDC046B4
:10173000637269746963616C5F73656374696F6E0A
:101740005F7265656E7472616E63795F636F756EEB
:10175000746572203C2055494E5433325F4D4158D8
:10176000000000002E5C6D6265642D6F735C706C10
:101770006174666F726D5C6D6265645F63726974DB
:101780006963616C2E63000041F6DC70C2F20000F8
:10179000016821B10168491E0160006800B170470D
:1017A00000F01EBA83B070B581B07546044605A836
:1017B0000EC041F6E876C2F200063078012804D166
:1017C00001B070BC01BC03B0004740F20010C8F289
:1017D000FF0000212A4600F041FA06A000F0AAFC12
:1017E0000125357005A90091204600F0F2FB28463E
:1017F00000F00CF8466174616C2052756E2D7469AE
:101800006D65206572726F720000000080B508B1CE
:1018100000F056FBFEE7F0B58FB072460D46074666
:10182000D00709D10020C64378684168A9424BD847
:1018300080684018A84247D9FFF766FF0995012044
:101840000B900346029000260C9640F65470C2F2AC
:10185000000000680A90B8680169426989180D9112
:10186000006880180E90019740F65C74C2F2000484
:101870001C4309A8A0470496039505960696B868E8
:10188000016942698918079180688018089003A847
:10189000A0470746099502980B900C9640F65470A5
:1018A000C2F2000000680A900198806801694269EC
:1018B00089180D91406880180E9009A8A047F6433A
:1018C00007B93E46FFF760FF30460FB0F0BC02BCE0
:1018D0008E46714672467346F4468EF3008874470E
:1018E0000020714672467346F4468EF300887447B2
:1018F0007146CA07011D02B10146086800687146B9
:1019000072467346F4468EF30088744710B57346EA
:1019100002460020C043DB0715D153685A689C6813
:10192000A2188A4226D91A69521E002A22DBDB68D5
:10193000D4001B191C688C421BD9C4001B19521EF1
:10194000002AF7DA16E013685A689C68A2188A42DF
:1019500010D91A69521E002A0CDBDB68D4001B194F
:101960001C688C4205D9C4001B19521E002AF7DAE4
:1019700000E0586810BC02BC8E4671467246734641
:10198000F4468EF3008874477146CA07011D02B100
:10199000014608688068714672467346F4468EF3C5
:1019A000008874477146CA07011D02B101460868E4
:1019B0004068714672467346F4468EF30088744759
:1019C00080B500F07DF8002080BC02BC8E467146D8
:1019D00072467346F4468EF300887447F0B58FB0B4
:1019E00074460D46E10713D1E9184F1E0021CE437E
:1019F000AF4259D344686168A94255D8A4686418B5
:101A0000AC4251D9AF4203D0B9424DD8BC424BD9B8
:101A1000019200930746FFF777FE09950220029096
:101A20000B9000260C9640F65470C2F2000000683D
:101A30000A90B8680169426989180D910068801898
:101A40000E90012040F65C74C2F20004044309A821
:101A5000A047009804900395019805900696B868F1
:101A60004169026952180792C0684018089003A89B
:101A7000A0470190099502980B900C9640F654707F
:101A8000C2F2000000680A90B868016942698918CA
:101A90000D91406880180E9009A8A0470198F64360
:101AA00000B90646FFF770FE30460FB0F0BC02BC2E
:101AB0008E46714672467346F4468EF3008874472C
:101AC00042F6A841C0F2000142F69042C0F2000284
:101AD00042F6BC43C0F200030AC00260704743F202
:101AE000DC10C0F2000070470A460168481C11D0A3
:101AF000880840F2C033034044F20000C5F2000001
:101B0000184312B1012A05D10122CBB2012199401B
:101B1000FFF703B97047B0B50D4604460160481C95
:101B200007D00021284600F099FAE8B2012181404F
:101B30006160B0BD0022C046C04670B515460E4675
:101B40000446FFF7E8FF701C2CD02068411C0BD125
:101B500042F68C70C0F2000042F6A471C0F200019F
:101B6000262200F081F920680121002D0A4600D1CB
:101B70002A4640F2C03340F2C0353C3586002E4044
:101B80008008184044F60003C5F2000303439A514D
:101B90002046FFF7A9FF0021204670BC04BC9646F2
:101BA00000F001B870BD0068421C01D000F088BA96
:101BB0007047EFF31081EFF3108072B642F2C90064
:101BC000C2F20000027802B17047012213468B4333
:101BD00041F6D871C2F200010B700270704700002C
:101BE00080B50120EFF31081014204D109A010A1BA
:101BF000352200F039F942F2C900C2F2000000219A
:101C0000017041F6D870C2F20000007800B162B6EF
:101C100080BDC046216172655F696E7465727275C0
:101C20007074735F656E61626C65642829000000E2
:101C30002E5C6D6265642D6F735C68616C5C6D62B7
:101C400065645F637269746963616C5F7365637413
:101C5000696F6E5F6170692E63000000F0B58BB034
:101C600015460C460646002803DB40F20116C8F272
:101C7000FF0641F6E877C2F200073878012800D164
:101C8000FEE7FFF741FD01203870FFF77DFD41F6CB
:101C9000E070C2F2000001684A1C0260A1B942F281
:101CA0003000C2F200000660456084600C3001A97B
:101CB0008CC98CC08CC98CC000949CC99CC0009CF1
:101CC00041F6E877C2F2000742F29400C2F2000047
:101CD0000660456084600C3001A91CC91CC01CC989
:101CE0001CC03CC93CC041F6E470C2F2000001686F
:101CF00021B142F29400C2F20000884700203870FF
:101D00000BB0F0BDF0B583B0044640683821415CAB
:101D100011B93A21405C08B103B0F0BD20680068F9
:101D2000804702942068C06980470446056875B9F9
:101D300042F6E070C0F2000042F6E271C0F200012B
:101D40002C2200F091F844F24025C0F20F051F202C
:101D5000C1B2012632468A40954205D0401E002776
:101D6000FF210842F4D100E007466168081F1D28E2
:101D70000BD342F6E070C0F2000042F6E271C0F20E
:101D800000013A2200F070F8202101910299486880
:101D90000022009202604260086840688047029911
:101DA0004C683B2167543A22009FA754A762E76220
:101DB0002062A56030463946019AFEF750FA411E6E
:101DC0000198021F07209040E160206144F2402208
:101DD000C0F20F0239463B46FEF762FA28187941F5
:101DE000401EB9412A463B46FEF772FAA061E16106
:101DF000276367632687029C204600F002FD204689
:101E000003B0F0BC02BC8E4600F0E2BB80B540F2ED
:101E10000000C1F20400016881F388884068012154
:101E20008843F0B444464D4656465F46F0B401211F
:101E300088430146024603460446054606460746D1
:101E40008046814682468346844680F300888447E4
:101E5000F0BCA046A946B246BB46F0BC3F200006F7
:101E600000F078FEFAE7000070B514460D4606460D
:101E7000FFF74AFC05A031462A46234600F0A8F8A1
:101E800070BC01BC864600F01BB8C0466D6265643C
:101E9000206173736572746174696F6E2066616925
:101EA0006C65643A2025732C2066696C653A2025A0
:101EB000732C206C696E65202564200A00000000E8
:101EC000F0B585B0FFF720FC03A80A21FFF732FE2A
:101ED000002640F2C03744F60005C5F2000503981D
:101EE000411C0BD1262242F68C70C0F2000042F653
:101EF000A471C0F20001FFF7B7FF039840F2C034AD
:101F00003C3481002140800838402843012201925E
:101F10004250962000F02CFE0398411C0BD1262243
:101F200042F68C70C0F2000042F6A471C0F20001CB
:101F3000FFF79AFF0398810021408008384028432A
:101F4000002202924250962000F012FE761C042ECF
:101F5000C5D104272E460398411C0BD1262242F6F8
:101F60008C70C0F2000042F6A471C0F20001FFF7CD
:101F70007BFF039881002140800840F2C035284053
:101F80003043019A425040F2901000F0F1FD039866
:101F9000411C0BD1262242F68C70C0F2000042F6A2
:101FA000A471C0F20001FFF75FFF03988100214098
:101FB000800828403043029A425040F2901000F0CE
:101FC000D7FD7F1E3546C5D1029E40F2C03786E759
:101FD000704770477047F0B581B042F2C800C2F256
:101FE00000000178C1BB0124047040F20017C4F264
:101FF000000759203860162038608820386038681B
:102000000028F6D00420FEF798FB2046FEF795FB4B
:1020100008252846FEF791FB02263046FEF78DFB89
:10202000A004FEF78AFB1020FEF75EFE2046FEF7B6
:102030005BFE2846FEF758FE3046FEF755FE402070
:10204000FEF752FE49F20000C0F2D030FEF761FD0B
:10205000FFF7AAF80020386001B0F0BD3BF04CB8A3
:10206000B0B50C460546401C0AD142F69170C0F24C
:10207000000043F26A11C0F200014B22FFF7F4FEA8
:1020800068087C210140680978220240501840F21B
:102090003001C4F200014258AB001C251D400F2343
:1020A000AB409A4322434250B0BC01BC86467046C6
:1020B000714672467346F4468EF3008874470000FA
:1020C000B0B50D460446401C0AD142F69170C0F2EC
:1020D000000043F26A11C0F200012622FFF7C4FE9D
:1020E000A00840F2C031014044F20000C5F20000F7
:1020F00008430022052D15D8A90001A359188F46C1
:1021000000F00AB800F008B800F00CB800F005B80C
:1021100000F005B800F005B8B0BD012202E00222CF
:1021200000E00322E3B201219940B0BC08BC9E4606
:10213000FEF7F3BD70B582B004460320400742F2BB
:102140009406C2F2000631680A4602404D428242BD
:1021500000D08DB2080CC3B243F21C00C0F20000E4
:102160002A46FFF735FF4FF6CF60CFF6FF702818ED
:1021700007282CD8810001A251188F4600F00EB814
:1021800000F00FB800F010B800F011B800F012B86D
:1021900000F013B800F014B800F015B8B16844A00E
:1021A00013E0B1683EA010E0B16839A00DE0B1685D
:1021B00032A00AE0B1682CA007E0B16821A004E0D9
:1021C000B16824A001E0B16818A0FFF701FF204624
:1021D000FFF7FEFE716843F2CF00C0F20000FFF788
:1021E000F7FEB16843F2BC00C0F20000FFF7F0FE5A
:1021F00033460C330ECBB069F4696D4611C543F21A
:102200006D00C0F20000FFF7E3FE316843F2DF002B
:10221000C0F20000FFF7DCFE43F20200C0F2000053
:1022200002B070BC02BC8E46FFF7D2BE4D65737320
:1022300061676551756575653A20307825582C20A1
:102240000000000054696D65723A20307825582CE2
:10225000200000004576656E74466C6167733A2015
:10226000307825582C2000004D656D6F7279506FC5
:102270006F6C3A20307825582C20000053656D6132
:1022800070686F72653A20307825582C2000000065
:102290004D757465783A20307825582C2000000060
:1022A0005468726561643A20307825582C2000000B
:1022B0004B65726E656C204572726F723A20307891
:1022C00025582C200000000080B540F20100C7F224
:1022D00080203AF0F1FE80BC01BC86467046714613
:1022E00072467346F4468EF30088744710B540F288
:1022F0000820C4F2000000680221084205D140F223
:102300000100C7F280203AF0DBFE41F20000C4F287
:10231000040000680121084207D100242046FEF78E
:1023200000FE204621463AF0FBFE10BC01BC86466A
:102330007046714672467346F4468EF300887447C1
:1023400080B540F20820C4F2000000680221084273
:1023500005D140F20100C7F280203AF0B1FE41F20F
:102360000000C4F2040001680120084080BC02BCE7
:102370008E46714672467346F4468EF30088744763
:10238000F0B597B040F20820C4F2000000680221C6
:10239000084205D140F20100C7F280203AF090FED9
:1023A0000320C04341F20405C4F204052858012764
:1023B000384201D13AF0A8FE3E043C0742F2D00078
:1023C000C2F200000178D9BB01940770642011901B
:1023D000002410940F97062012900E940D940C94E4
:1023E0000CA842F2CC01C2F200012246FFF718F914
:1023F0000028214668D041F20404C5F20404FDF728
:102400002BFF0199084203D020683042FCD002E043
:1024100028683042FCD0FEF794FCFDF71DFF0199BF
:10242000084203D020683042FCD002E028683042E5
:10243000FCD0E86B42F2D401C2F200010860019CBA
:10244000FDF70AFF204207D041F20400C5F2040064
:1024500001683142FCD002E028683042FCD003A879
:10246000FEF796FC05980F900698129007980E902C
:102470004FF69401CFF6FF71039A51181191049908
:10248000491E10910A9921B90B99022901D10C30EA
:102490000E9008980D9009980C900CA802A90024A1
:1024A0002246FFF7BDF8002821460DD042F2D400A5
:1024B000C2F2000000680299081842F2CC01C2F290
:1024C00000010968441A0021204617B0F0BC04BC82
:1024D000964672467346F4468EF300887447F0B50C
:1024E00081B0054640F20820C4F2000000680221D5
:1024F000084205D140F20100C7F280203AF0E0FD29
:1025000003200090C04341F20407C4F20407385886
:102510000124204201D13AF0F7FD42F2D400C2F288
:10252000000005602504240741F20406C5F20406F4
:10253000FDF792FE204203D030682842FCD002E032
:1025400038682842FCD0FEF7FCFBFDF785FE2042F0
:1025500003D030682842FCD002E038682842FCD022
:1025600042F2D400C2F200000068F863FDF774FE86
:10257000204203D030682842FCD002E0386828426C
:10258000FCD042F64840C0F20000FEF7EFFC40F2FB
:102590000820C4F20000416948F20002009801429C
:1025A00001D042F2107244F24021C0F20F01B1FB9F
:1025B000F2F1484300F0E1FA01B0F0BC01BC8646FC
:1025C0007046714672467346F4468EF3008874472F
:1025D000F0B583B0044646683A20305C10B9392023
:1025E000305C08B103B0F0BD204600F00AF9626823
:1025F0005168C1B3156B0B68012700200195AB42F0
:102600003D4600D905460292526B4968914200D975
:102610000746914200D03D46002D7CD1002701980D
:102620001B1A01977F41029880690125009383421C
:10263000284600D801987F1E9141029AD2699142A2
:1026400000D8019D914200D02846029A15690028C1
:102650003ED11346926844F24020C0F20F008242FD
:102660000DD1009830E0306AF168326910180840E6
:102670002168096903B0F0BC04BC964608473B20BA
:102680001B5C44F23F27C0F20F075BB100981A466B
:10269000FDF7E5FD0023C019594144F24022C0F284
:1026A0000F020FE0002700983B46FDF7F9FD44F2CA
:1026B0003F22C0F20F028018794144F24022C0F25A
:1026C0000F023B46FDF704FE854200D30546029A01
:1026D000106A4019D5680540306A854208D111A0BA
:1026E00042F6E271C0F2000140F20712FFF7BCFBB4
:1026F0002068016928468847206840688047316A19
:102700008D4202D9A84203D305E0A84200D269E76E
:10271000884200D366E72068406903B0F0BC02BC81
:102720008E4600476D617463685F7469636B202136
:102730003D2071756575652D3E7469636B5F6C61D5
:1027400073745F7265616400F0B581B00546FEF791
:10275000DBFF2868C068804768683A21415C79BB24
:102760003921012747544168393021B30097284661
:1027700000F047F82C466868026B41680D6800233A
:1027800095423A4600D81A46466B4D68B54200D885
:102790001F46B54200D03A46002A25460AD1CA68EB
:1027A000426003681BB18868984768684268002ADD
:1027B000009FDCD13930002101702846FFF708FF67
:1027C00001B0F0BC01BC8646FEF7DEBF80B500F06C
:1027D00001F880BD10B50446FFF794FAFEF794FFA8
:1027E000204600F00EF8FEF7CFFF6168086B496BDA
:1027F00010BD40F20800C4F205000121016000F0A4
:1028000071B9F0B585B0044646683A20305C0028BE
:1028100000D07EE02068406880476168096A88428D
:1028200077D0316A3062401AB168F46804400025FC
:1028300044F24020C0F20F00814264D0049144F27F
:102840004022C0F20F020027204639463B46FDF7E2
:1028500027FD3B22B55C002D039026D001970F4643
:102860002A46FDF70CFD044602912A46FDF7F7FCC7
:10287000039A101A019B1A465A41521E8F41B16A9F
:102880000918B162F06A7841F0620122049DA94200
:102890001F4600D33A4600B13A4633462833002A51
:1028A000029D30D10022049F24E000250F46049AA7
:1028B0002B46FDF70DFD04460291049A2B46FDF7C9
:1028C000EFFC039A101A2A466A41521E8F41B16AE0
:1028D0004118B162F06A7841049FF0620122B94266
:1028E00000D32A4600B12A4633462833002A029DE7
:1028F00009D10022C91B196011465141491E90415E
:102900005860641C5541306B00193063706B68412E
:10291000706305B0F0BD40F20800C4F2050001216B
:10292000016070474EF28410CEF200000121016078
:10293000BFF34F8FBFF36F8F70474EF20420CEF27C
:102940000000012101604EF20410CEF2000001608F
:10295000704780B54EF28410CEF200000121016074
:10296000BFF34F8FBFF36F8F40F20200C5F6806058
:102970003AF0A2FB42F2D800C2F20000002101802E
:1029800080BD43F20420C0F200007047F0B583B070
:1029900042F2D800C2F20000018851B14EF2841018
:1029A000CEF2000001210160BFF34F8FBFF36F8FA4
:1029B00064E00126068040F20200C0F200403AF0D6
:1029C00093FB40F20204C5F680640022204640F2E8
:1029D00000213AF081FB20463AF072FB40F20004FD
:1029E000C4F205042046FEF7B3FC44F24025C0F2D1
:1029F0000F05B0FBF5F14F1E802F0BD3029020A0E6
:102A0000019143F2A111C0F200016922FFF72CFAF3
:102A1000019902984D43401B07D028A043F2A11111
:102A2000C0F200016A22FFF71FFA0320C006074325
:102A300027604FF6FF70C0F2FF0060604EF608504E
:102A4000CEF200000068C02142F2F372C0F2000230
:102A500042504EF28410CEF200000660BFF34F8F5A
:102A6000BFF36F8F7007216801432160B0072168B1
:102A700001432160700621680142FBD003B0F0BD24
:102A8000287072657363616C655F74696D6572202F
:102A9000213D202875696E7433325F7429202D31F1
:102AA00029202626207072657363616C655F7469E6
:102AB0006D6572203C3D20313237000028636C6B1D
:102AC0005F74696D65722025204E555F544D5243E9
:102AD0004C4B5F5045525F53454329203D3D2030CC
:102AE0000000000040F65870C2F20000016821B1F9
:102AF00043F2DC10C0F200000847704780B542F294
:102B0000D800C2F20000008808B9FFF73FFF40F28A
:102B10000C00C4F20500006880BD40F20402C4F25B
:102B20000502012151604EF28423CEF200031960A8
:102B30000223022800D818464FF6FF73C0F2FF03A5
:102B4000984200D3184610604EF20410CEF20000F6
:102B50000160704780B542F20041C4F6741100F084
:102B60001BF8FDF739FC80BC02BC8E4600F005B8AE
:102B700040F2E8314843C046C04670B50446FEF70F
:102B8000AEFF0546FFF722FE06462846FFF71EFE6B
:102B9000801BA042F9D370BD70B5420064414B0068
:102BA0005C41120E39D01B0E38D0FF2A3CD0FF2BCF
:102BB0003AD0D2187F3A40024902400A490A4518E1
:102BC000ED0106004E43000A090A48430104731A46
:102BD0004019190C4318990F04D05B0801214907CB
:102BE0005B1A521CD80904D3401CF50301D19D0681
:102BF00007D0FF2A08D2D50506D0E40720434019A4
:102C000070BD0125A843F4E7002A01DCE00770BD90
:102C10002402FF202043C00570BD1B0EFF2A03D0F5
:102C2000FF2B01D0E00770BDFF2636064500B542F8
:102C300006D84D00B54203D8D218FF2A00D0E7E7E6
:102C4000004870BD0000C07FD007000001000000F8
:102C5000010000000600000000000000000000006D
:102C60000000000001000000000000000000000063
:102C700004000000080000000C000000000000003C
:102C8000040000000800000010000000010202041F
:102C9000D7000000890100006F0200001903000046
:102CA00064050000E40900200400000000000000AA
:102CB000000004007C2F0000010000000400000060
:102CC0000000041000000400842F00000100000038
:102CD00004000000903C800200020000060000009A
:102CE00006FF430700200000FFFFFFFFFFFFFFFF7D
:102CF000004000000300000003000000000001008D
:102D00001D0000000100000000000001070000009D
:102D100007000000000002000C0000000C00000092
:102D200000000400FFFFFFFF0100807200000000B0
:102D30001C0000041CFE0340080000000700000403
:102D40000700004020000000FFFFFFFFFFFFFFFF24
:102D5000400000000C0000080C0000808000000013
:102D60001D0000041D000077000100001A0000048F
:102D70009A3C804200200000040000040400005F30
:102D800000000200050000040500405F0000020092
:102D90001000000810000080000000011100000871
:102DA00011000080000000021200000812000080E4
:102DB0000000000413000008130000800000000859
:102DC0000D0000040D004066010000000E0000042C
:102DD0000E006066020000000F0000040E00606636
:102DE00004000000060000080600C0A6080000005D
:102DF000FFFFFFFFFFFFFFFF1000000007000008BC
:102E00000700E0A62000000010000004103D8057DD
:102E10000000010011000004913DA05700000200D5
:102E200012000004123C8C77000004001300000420
:102E3000933CAC770000080014000004143DCC77EC
:102E40000000100015000004953DEC770000200004
:102E50000800000408000040010000000900000410
:102E600009000040020000000A0000040A000040BF
:102E7000040000000000000800FC07B6000001008C
:102E80000100000801FD27B6000002000200000852
:102E900002FE47B6000004001800000418000040BD
:102EA000010000001600000816000080000001006C
:102EB0001700000817000080000002001A00000838
:102EC0001A000080000010001B0000081B0000809A
:102ED0000000200017000004177F3452000080001B
:102EE000FFFFFFFFFFFFFFFF000000011F000004C6
:102EF00019000080000000021B0000049B3C80427F
:102F00000100000008000008080000800000010027
:102F10000900000809000080000002000000000015
:102F200080DE280080C84D0000A7760000349E0097
:102F30008012C700809FEE00007E1701805C400178
:102F400080E9670100C890010055B8010000000049
:102F500080DE2800001A4F0080F8770080859F00EF
:102F60000064C80000F1EF0080CF180100AE4101FD
:102F7000003B69018019920180A6B90100000000A0
:102F80000008000000000410000800006F626A2DB5
:102F90003E70696E20213D202850696E4E616D653E
:102FA000294E43002E5C6D6265642D6F735C746105
:102FB00072676574735C5441524745545F4E555671
:102FC0004F544F4E5C5441524745545F4D32333558
:102FD000312F6770696F5F6F626A6563742E680076
:102FE00030002E5C6D6265642D6F735C68616C5C93
:102FF0006D6265645F7469636B65725F6170692E91
:1030000063000A2D2D204D6265644F532045727276
:103010006F7220496E666F202D2D0A000A0A2B2B35
:10302000204D6265644F53204572726F7220496E65
:10303000666F202B2B0A4572726F72205374617475
:1030400075733A203078255820436F64653A2025FF
:1030500064204D6F64756C653A2025640A45727270
:103060006F72204D6573736167653A20000A43757E
:103070007272656E74205468726561643A204964A6
:103080003A203078255820456E7472793A2030788D
:10309000255820537461636B53697A653A20307800
:1030A000255820537461636B4D656D3A2030782547
:1030B000582053503A203078255820000A45727223
:1030C0006F722056616C75653A2030782558000A79
:1030D0004C6F636174696F6E3A2030782558000A2E
:1030E000466F72206D6F726520696E666F2C207658
:1030F000697369743A2068747470733A2F2F61721F
:103100006D6D6265642E6769746875622E696F2FD4
:103110006D6265646F732D6572726F722F3F657299
:10312000726F723D307825303858004E6F6E2D73B7
:10313000656375726520646F6D61696E2074726974
:10314000657320746F20636F6E74726F6C2073658B
:1031500063757265206F7220756E646566696E6551
:1031600064206D6F64756C652E002E5C6D62656405
:103170002D6F735C746172676574735C5441524760
:1031800045545F4E55564F544F4E5C54415247453F
:10319000545F4D323335315C70696E6D61702E63F2
:1031A000002E5C6D6265642D6F735C74617267657F
:1031B00074735C5441524745545F4E55564F544FBB
:1031C0004E5C5441524745545F4D323335315C7546
:1031D000735F7469636B65722E630000E4310000F5
:1031E000F01F00208D290000FD2A00002529000085
:1031F000172900001B2B00003B2900005329000069
:103200008329000040420F00180000002C3200000B
:10321000E0090020980500002604000008350000A1
:10322000780F0020641100001C020000101D300007
:10323000000085B00A460346039002A8017001927F
:103240000093FFE74CF2C000C4F21B100B68012191
:10325000084201D0FFE7F514320014300C01684039
:1032600022114301604CF20C10100B22210160036B
:10327000984CF204010E501501086002A800780075
:103280002808D1FFE70020C0434CF208181309E0DA
:103290000C3132200B4AF60321C0F2550101606A5D
:1032A000421056114600051CBFF36F8F7C100400BE
:1032B000684090120B14E18E10080120049002E087
:1032C0000006201DFFE7049805B07047B0B587B031
:1032D00013460C46054605900491039240F20010F7
:1032E0007E12596A12166E1288B841E010080293D5
:1032F0000194009503B210070120069038E02A429D
:10330000205C3204EA500440F2041021F83006FF39
:10331000E740F2502024040068101EC6D11E56015A
:103320001E321CF8120A646310425CE30AE0B81211
:10333000007204111EFFE7069807B0B0BD82B0010D
:10334000460190009180400401229162452811D0ED
:103350001004084602F2072C81B0BA16260615B8EA
:10336000714696C8AE054898360098160098100425
:10337000009801A6100480B584E8100A0290029813
:103380004FF6FF72CE044310400E70040002CF0EC1
:1033900014100F2212051040012252059042019193
:1033A0000B64170298C2101501CFF6E071401801A6
:1033B00021FFF7A4FE039005E00298000C129E0C7A
:1033C000380CFFE7039804B080BD80B586D048096B
:1033D0000490039100200290D22809029803998852
:1033E000420FD21E101202994A1C029289004058C4
:1033F000FFF7B8FF002803B818080120059003E084
:10340000EBB416059010040598064A5804B0B58828
:103410004220120690059104920598C01C03218851
:1034200043059006BC1271BC0C0C2C710840069030
:103430000393029401953603162170216814040049
:10344000283F369E064003040752049800F03CF8DB
:103450008A100B07900CE00698001D06906410047B
:103460001D04907E1C051F0590BCA8031A07841834
:10347000040798088456839C164222700400780141
:103480000A90070002019A101810D2041042062078
:103490003C0601980091037E0305163C05322E760A
:1034A000002E36532E857E85386D5E0429CA05466A
:1034B000341D98037F901DB80428110068049900FA
:1034C000900846FFF76CFF009981423821220512CF
:1034D0005632A81A655642000110056CDC02FF0145
:1034E00021080021004927000030B54D4620B44591
:1034F0006903699946C368826841680068A84720E3
:08350000BCA94630BD0000002B
:020000040003F7
:10D000007FE97FE9C4F710BA7FE97FE9C4F72FBA57
:10D010007FE97FE9C4F756BA7FE97FE9C4F78CBAA4
:10D020007FE97FE9C4F7AEBA7FE97FE9C4F7F3BBD4
:10D030007FE97FE9C4F754BC7FE97FE9C4F758BCB6
:10D040007FE97FE9C4F762BC7FE97FE9C4F79CBC54
:10D050007FE97FE9C4F7A6BC7FE97FE9C4F7B0BCEC
:10D060007FE97FE9C4F7BABC7FE97FE9C3F76EBB0C
:10D070007FE97FE9C3F7F6BB7FE97FE9C3F704BC2B
:10D080007FE97FE9C3F714BC7FE97FE9C3F720BCE0
:10D090007FE97FE9C3F73CBC7FE97FE9C3F78FBC39
:10D0A0007FE97FE9C3F7A5BC7FE97FE9C3F7BCBC93
:10D0B0007FE97FE9C4F721B87FE97FE9C3F704BAC4
:10D0C0007FE97FE9C3F73DBA7FE97FE9C3F7F3BCA6
:10D0D0007FE97FE9C3F70FBD7FE97FE9C3F7D2BDE1
:10D0E0007FE97FE9C3F7FBBF7FE97FE9C4F71CB89D
:10D0F0007FE97FE9C4F743B87FE97FE9C4F7B0BFB0
:10D100007FE97FE9C5F7E0B87FE97FE9C5F7EEB8C9
:10D110007FE97FE9C5F714B97FE97FE9C5F730B941
:10D120007FE97FE9C5F7DBB90000000000000000DF
:10D1300000000000000000000000000000000000EF
:10D14000FFFFFFFFFFFFFFFFFFFFFFFFFFFFFFFFEF
:10D15000FFFFFFFFFFFFFFFFFFFFFFFFFFFFFFFFDF
:10D16000FFFFFFFFFFFFFFFFFFFFFFFFFFFFFFFFCF
:00000001FF
