:020000041000EA
:4000000000000108310100100D00000095010010000000000000000000000000000000000000000000000000000000009101001000000000000000009101001091010010DC
:4000400091010010F10700109101001091010010910100109101001091010010910100109101001091010010910100109101001091010010910100109101001091010010FA
:400080009101001091010010910100109101001091010010910100109101001091010010910100109101001091010010910100109101001091010010910100109101001020
:4000C00010B5064C2378002B07D1054B002B02D0044800E000BF0123237010BD4804000800000000541F0010084B10B5002B03D00749084800E000BF07480368002B00D1AD
:4001000010BD064B002BFBD09847F9E7000000004C040008541F001044010008000000007047EFF3108072B6704780F310887047FFF7F6FF72B6104C104DAC4209DA2168D4
:400140006268A368043B02DBC858D050FAE70C34F3E70B490B4A0020521A02DD043A8850FCDC094809490860BFF34F8F00F0ECF800F01EF8FEE70000581F0010701F0010D1
:4001800048040008380700080000000808ED00E0FEE7FEE700B504207146084202D0EFF3098001E0EFF30880043001F08DFAFEE710B500F0A5F962B6064B5B689B0301D517
:4001C00001F044FA044800F02FF9002001F090F9FBE7C0460000264000000810F8B5E023504C9B00E2580F231340D022990092000919885807224C4D0240032A05D0042A73
:4002000005D0002A0FD0494811E028680FE0C022920089581F220A40112A01D0132A04D18020000203E0424801E0FA20C001002B27D1B223B1210322DB00C900E65863588A
:4002400067581B0F3F0F1340174205D0354F7958090F0A40012A01D1F20701D4032B3AD1B023344ADB00E658A158E758C904C90C01F050FDB603F901B60BC90F7043013158
:4002800027E0012B27D1C823C0210322DB00C900E658635867583F0F174205D0214F7958090F0A40012A01D1F20703D49B009B0F032B10D1C0227F23D200A758A1583B40BD
:4002C0001F27A658090A3940584301F023FD310C394001F01FFDE0239B00E3589B069B0FD840154B68601C691969240A090E013101F010FDE1B2A860013101F00BFD0F4BBF
:40030000E860286104000E49C01801F003FDFA210C4B28758900E01801F0FCFCA861C003E861F8BD00002640C000000800366E0100127A0084050000000021403F420F00AC
:4003400040420F00E7030000B021E02010B530241F4BC9005A588000520052085A501A58A2431A50802252045A501A491A4A80209950A021043289019950FF21174AC005FA
:40038000995081315A5892009208024380205A505A580006024301205A505A5882435A5000F054FAFFF71AFF00F02AFA00F032FA00F0B8FEB0235B055A78002A02D05B7855
:4003C000212B03D10022064BDA605A6010BDC0460000264001000200840500008C050000E0002340024BD86F032318407047C0460400214010B5FFF794FE074A074BD16F79
:400400000B4007490B43D367102306490A681A42FCD0FFF78AFE10BD04002140FCFF00000100FA058800214070B50F4C0600FFF778FEE36F0500DB439B0701D1FFF7DAFF3F
:40044000B0230A4A9B00D650E26F094B09491340094A1343E36710230A681A42FCD02800FFF763FE70BDC0460400214000002140FCFF0000880021400300FA0510B5040063
:40048000007B00F0F3F8606010BD10B50400007B216900F0B5F8606010BD10B5037B0169180000F0CDF810BD10B50400C06800F009F9606010BD10B5C06800F017F910BDF0
:4004C00010B50400C06800F023F9606010BD10B5C06800F037F910BD10B504000C23C05E00F056F8606010BD10B50C23C05E00F06FF810BD10B5C06800F036F910BD0000A8
:4005000010B500221849042000F0A4FC01221749042000F09FFC02221549042000F09AFC03221449042000F095FC04221249100000F090FC05221149042000F08BFC0622E9
:400540000F49042000F086FC07220E49042000F081FC08220C49042000F07CFC09220B49042000F077FC10BD7D0400108B0400109B040010A9040010B7040010C104001062
:40058000CF040010D9040010E9040010F504001070B507260512EDB206400D2D11D801F0F8F80A4901224B5D1C003441144003D1B24013434B5501E00124644201F0EDF8D2
:4005C00001E001246442200070BDC0466404000870B50412E4B20D2C0FD80725054001F0D8F8064901220B5D1E002E41164202D0AA4093430B5501F0D0F870BD6404000862
:40060000F8B50C00050001F0C4F80C2301225D431300A3401A00094E71198F683A4008D13B43AD598B60631C4B60AB4202D94A6000E0FF2401F0B1F82000F8BDE0000008BD
:4006400070B50C00050001F0A4F801210C23A1406B43054AD3189A680A4201D08A439A6001F09BF870BDC046E0000008F0B50C2485B0019001F08DF8019B114D5C432B192A
:400680005B68029003932E1971680198FFF7B8FF0700FF280DD173682A59934201D9002373602A1953680399994202D001335360E9E7029801F071F8380005B0F0BDC04648
:4006C000E000000810B5040007280AD801F061F8054B0E331A5D002A01D101321A5501F05CF80120404210BD6404000810B5040007280AD801F04DF8044B0E331A5D012AE1
:4007000001D100221A5501F048F810BD6404000870B505001F280ED801F03BF8084B30335C5D002C02D101225A5501E00124644201F033F801E001246442200070BDC04666
:40074000E000000810B504001F280AD801F021F8044B30331A5D012A01D100221A5501F01CF810BDE000000870B5B024C025144B144A15496405ED00E35CA25C615C665D18
:400780003F251F242A400C4024039201224311002B407F2219430B003240520413430B4A1C0A110050310B701B0C8B7000234C7011005031595CC1540133062BF8D170BDDB
:4007C000040600000506000003060000E000000810B50248583000F051FB10BDFC04000810B50248B03000F049FB10BDFC04000810B5024800F042FB10BDC046FC0400083C
:4008000010B5034A80216032042000F001FA10BDFC05000870B500F0BCFF0500094800F08BFA094C200000F0B9FA2000343000F0B5FA2000683000F0B1FA280000F0ADFFA1
:4008400070BDC046FC040008881E0010F0B5962191B0002000F050FF00F026FF002801D100F014FF012000F09FFDE821724C734B626C89011A400A436264626C0193120A04
:40088000D2B23A2A04D1636C6D4A13400B4363643422002103A801F0D2FA03AA0021694800F06EFC3422002103A801F0C8FA03AA0121644800F064FC082204262368624DA7
:4008C000134323602369334207D1002D04D0012000F0D2FE013DF5E701E0002D00D1FEE7A02603220127594CF600A35903AD93433B43A351D2195649280001F097FA280088
:4009000000F0FAFF534901980B68534A03400B608021136949041B021B0A0B4313611369019902200B401361E0230F219B00E2588A433A43E250E25821318A438021E250C6
:40094000E25809060A43E250002100F0D3FA0021032000F0CFFA0021042000F0CBFA0321002000F0C7FA0321380000F0C3FA384B0522191D280001F059FA2900380000F03F
:40098000DBFA002800D0FEE73449380000F026FB002800D0FEE7324B324AE1580A403A43E250E158304A0A408021E250E25809060A43E250A2592D4B1340A351A2592C4BF3
:4009C00013408022920113438022A351A35912021343A351184B1A68264B1340164A136000F0DEFEC0235B00E3583B4204D1224AA3585B005B08A3506421002000F07CFEEF
:400A000024220021280001F01AFA29000D4800F031FC2A000E4B0C3313CB13C213CB13C213CB13C22900154800F024FC144A154B1A6011B0F0BDC04600002740FF00FFFF06
:400A4000FFC5FFDF0000324020A1070000002640241F001090002140000021401027000004050000FEFCFFFFFFFF00FFFFF0FFFFFF8FFFFFFFFCFFFF0C0500000003324062
:400A800001001180000E1F41030010B5FF24800882009B1ADB009C409940E243214007282DD8174B01F02CF904090E13181D2227186A02401143196221E0586A0240114332
:400AC00059621CE0986A02401143996217E0D86A02401143D96212E0186B0240114319630DE0586B02401143596308E0986B02401143996303E0D86B02401143D96310BDD7
:400B000000002140064B10309A68064B9A4203D183009858995002E0034B8000C058704700ED00E00000000800000010F7B5051E01913DD00023C05E002802DBA978FFF735
:400B4000A3FF6A680023E85E9201002812DB1A4B81088900C918FF2303271C00C0250740FF00BC401A40BA40AD004E59A64332434A5113E003250F2381B20B402940A9404B
:400B8000FC352F002A408F408A40083B9B080B4C9B001B19DE69BE433243DA61074B00259A68074B9A4204D10199FFF7ABFF00E0044D2800FEBDC04600E100E000ED00E070
:400BC00000000008010056000369002B03DA89B24160002000E001487047C04601008A000368002B01DB034803E089B2C26081600020704701008A000369002B03DAC368D6
:400C000000200B6000E001487047C04601008A0070B5040010000F2C2BD8002A07D1002927D1154B6401E418144B1C6022E000291FD01F260E401CD1104D0F4B6401E418D0
:400C40006960AA60CA0831002C6001F0F8F831002000FFF7B9FF31002A1D2868FFF7C0FF011E04D12868FFF7AFFF011E02D0044900E00449080070BD00002340EC06000850
:400C800001018A0003018A00194BF7B51A680193D76804003B680E00834223D90025A94202D100F076FD0500019B18680368002B01DB104C10E063095A01A41A0122A24090
:400CC00079689B00CB18196811420DD00024914319600021FFF778FF002E07D1280000F05CFD03E0044C01E0044CF2E72000FEBDEC0600080301880004018A0002018800B6
:400D00000A4B1B68DA68136883420DD9430999005B01C31A0120984052688B581840431E9841034BC01800E002487047EC0600080001880004018A00024B1A68002A00D14A
:400D400018607047F8060008F0B52C246043104C1E0024681F0A2018FF2426403C400D4F06607601F61906610B4E1B0C44606401A4191E04836033434461A3600023059D5D
:400D8000C261016283619D4201D02B888381F0BDF80600080000234000102340F0B5038985B002AD2B800368066A1933AB704368476A0095826AC16A040003930369C068A1
:400DC000FFF7C2FF00213B000A0000913000FFF7BBFF216B2800FFF7A9FE0023EA5E002A05DB1F231A401E3B9340024A136005B0F0BDC04600E100E0F7B52C25124C6843E9
:400E0000276801933C182669002E08D04D4379198869002805D13568002D02DA03E00B4811E00B480FE06768012425004B689D4013882D041D431560F2608C61BC40019B65
:400E4000A4B24B62B460FEBDF806000804028A0007028A002C235843064B1B681818C369934204D9036A9200D150002000E002487047C046F80600080A028A0073B500269A
:400E800042690400D56801962B0CB3421CD01B040069136013680369B34215DA01A9FFF7ABFEB0420CD10198E26903681E0C0378934205D2226A9B009B58002B00D0984725
:400EC00031002069FFF780FEADB2002D0ED063691D6000251B68636AAB4202D09847656203E0A36A002B00D09847A56163691B6873BD0000042819D804290FD94B1EFF3B13
:400F0000132B13D81F231940094B8000C018C02304229B00C1504033C25005E00723D0301940034B8000C150002000E0014870470000264001004A00F0B5012819D1C02275
:400F4000224BD2009A58002A0CDB8A78901E0E280FD84C78601E11280BD8C8780D7800282FD101E01A4830E07026152D01D9AE4201D2184829E00E79022E14D0F82124020C
:400F80004901F8270C4021007F2412047F033A4011432C4021438024C022C006240520400143D2009950C020C0248005360706403200E4001D590849002029400A431A51C4
:400FC00003E03826122DD4D9D1E7F0BD0000264003004A0001004A00FFFFFFCFF8B50D00012819D1C02180240D4BC9005A582406C826224307001C005A50F600A3593B42B7
:4010000006D1002D0AD0012000F036FB013DF5E70020002D03D101E0024800E00248F8BD0000264001004A0002004A001E4A0300904238D010D840282ED005D8002831D0B5
:4010400010282DD119482EE0802827D08021100049008B4227D023E0154A904214D008D8A022120690421DD0124AA020934211D016E0114A904209D0104A904208D0104AB1
:4010800090420DD10F480EE0A42003E00E480AE00E4808E0C00306E00D4804E00D4802E00D4800E0002070470600520001005000010000F0090000A0040000F0050000F0C5
:4010C000030000F00100520002005200030052000200500005005200FF0052000B4B10B51B69002B10DB0A4B0A4C1868FFF79EFF0121094B094A995099580029FCD10649AC
:4011000009590029F8D100E0054810BD00002340FC0600088C040000000025400C0400000200500010B5022202490020FFF792FE10BDC046450200080F4B30B5C0180F4B30
:40114000C009C01800011F23032909D81D00C9008D4013408B400468AC432343036009E01D000439C9008D4013408B404468AC432343436030BDC0460000CEBF0010030457
:40118000F7B504000E00150000286ED0002A6CD0012312688B40002A01D1436000E08360B30001930F231900B0008140A26A8A4369680B4083401343A3622A7A31002000BA
:4011C000FFF7BAFF0320710088400322636A83431800EB6813408B400343636201231F00B7400097FF43BC462F6962461F40B740A0691031104038436F69A0611F40B740A9
:40120000E06A10403843E062A86903221840B0400600E869276B10408A408840009930430A4397436A6A384356000222206304201640AA6A616B92000240286A3243034017
:401240001A43EB6AD80018230340FF2013432A6B019D520102401343FE2292002A40934081430B436363002000E00148FEBDC04601005A0000281BD0002919D00D4B0E4AD2
:40128000C318DB099B180A681B010260CA6882620A69C2624A6902638A6842624A6882618A694263CA6900201A600A6A5A6000E0024870470000CEBF0010030401005A0069
:4012C00010B50F2402200649064BCA58A2430243CA50F02212028B58A34303438B5010BD0000214004F0000010B50F2403200649064BCA58A2430243CA50F02212028B5872
:40130000A34303438B5010BD0000214004F000000449054A054B88580340C020C00103438B5070470000214004F00000FF8FFFFF0449054A054B885803408020C001034365
:401340008B5070470000214004F00000FF8FFFFF031E03D1084B5869C00F0CE00020012B09D1054918008A69920F1A4201D18869C00F01231840704700002640072370B540
:40138000084CA2691A4090420BD0A5699D4303402B43A361002904D0904202D9C82000F06BF970BD00002640F7B5060000F0F1F9B022E8211F27244D244C01902B595205B1
:4013C000C900525C3B409B1A5A1E9341B34236D0002E13D180211E4A490493690B439361FFF76EFF0B222B59BB4313432B51FFF78FFFB023E8225B05D2000CE00B222B5945
:401400000920BB4313432B5100F036F9FFF790FFB022104B5205D35C2959DAB21F23994313400B432B51012E09D1092000F024F9FFF75AFF064A084B91690B409361019810
:4014400000F0ABF9F7BDC046000026401CFF000000F0254041070000FFFFFFFEF0B5060085B00D00204F042901D001291AD100207C68002C35D01D4B984232D02379B3428C
:401480000ED1A368002B01D02B4209D1E36801A85A689B6842608360057023689847BC606469E6E7BC68022902D1002C00D024690020002C15D00D4B984212D02379B342AB
:4014C0000DD1A368002B01D02B4208D1E36801A85A689B68426083600570236898472469E7E705B0F0BDC0460C070008FF004200F7B5484C06002368002B0AD100F049F97C
:4015000023680700002B10D004210120FFF7A6FF0BE001210800FFF7A1FF0028EED002210120FFF79BFF3C4C72E03C4D2B680195DB061AD5F2223A4BD2019A58E260F022BA
:40154000D2019A582261374A9A586261364A9A58A261364A9A58E261354A9A582262354A9A586262344A9B58A362B02252055378002B02D05378212B03D1300000F07CFCAF
:401580001DE02E4B2E492F4859588C46E821C900515CC9B20091196809020AD41F2165460D402900009DA94203D0274952581A5002E00023214A1350300000F055FC019B2F
:4015C0001B68DB0619D5F0222169154BD20199506169144A9950A169134A9950E169134A9950216A124A9950616A124A9950A16A114A9950E168E8329950380000F0CDF888
:4016000023680024A34203D008210120FFF726FF2000FEBD0C070008FF004200E00001400000344004780000087800000C7800001078000014780000187800000000264088
:401640001CFF0000307F00001018000010B5E82400F09FF8064B07495A68A4010A4022435A605A68114059605B6800F096F810BD00002640FF00FC0F10B5034B1B78584324
:4016800000F07EF810BDC046D400000880220020034B12069A649B6C834200DA0148704700002740030046008022054B120198585B68DBB2002B02D08023DB0218437047C5
:4016C00000002640FEE7000002680A4B10B51A6042685A6082689A60C268DA6002691A6142695A6182699A61C269DA61FFF7EAFF10BDC04628040008F0B51922002800D19E
:401700004B32E82403258A429241194E640033595242AB43134333513359164F3B403351154B5C68AC4322435A605A6817405F60002808D00023102913D921338B429B4167
:401740005B4201330DE003001D290AD901233A2907D9DB18572904D976338B4240410422131A0F21054A1068884303431360F0BD00002140FFFCFFFFFC002140000025403A
:401780000230800803D001300238FCD1C046C0467047EFF3108072B6704780F310887047094B042803D11A68104318600BE0C02200069204104090220449920088500421A6
:4017C0001A688A431A60704710E000E000002140F8B58023FA250C0001271B0218430D4E0004F061AD00326C0A4B01203A4205D1002D0CD0013DFFF73FFFF4E7002D06D001
:401800001A6C10431864DB6A0020238000E00248F8BDC04600003C400400160070B5FA2401260D4B000418400C4D0143E961A4002B6C0A4A0120334205D1002C0AD0013C8D
:40184000FFF71AFFF4E7002C04D0136C18431064002000E0024870BD0000FF7F00003C400400160030B524259DB02A00002101A800F0E5FA154B164C0493164B2A00002162
:401880000AA808930993069400F0D9FA124B2A000D93124B00211193114B13A812930F9400F0CDFA0F4B01A916930F4B0F481A931894FFF7DFFC0AA90D48FFF7DBFC13A96A
:4018C0000C48FFF7D7FC1DB030BDC046666666660000FFFF1C1C1C1C66E6EE661C1A1A1A1A1A000066E666661A1A001C000132408001324000023240F0B585B000900028F3
:4019000000D147E1BE4F7B689B0301D5FFF79EFE0122BC4BBC4C1D001959114204D0BB495B58134200D037E1FFF79CFFB84AB94BEA508022009BD2021B781343B64AAB5016
:40194000B64AB74BEA50B74B5A6801231A4200D024E1B54A116F08220A4008D1B34BB44918681300884202D900F0D4F9431E2A68002B03D0AF485B03034300E0AE4B13439B
:401980002B607B699F499E4E01275B000DD539000320FFF7F3FC73699B0F3B420AD08022B369D2051343B36104E00320A34A8B5803438B502B5940200193019AA04BA14E7D
:4019C00013432B51FFF758FE0123AA598D4F1A4208D1BB514020FFF74FFE03234020BB51FFF74AFEFA27019A974B984E1A4016430192FF002E51964A964BD3581022134257
:401A000007D1002F00D1CBE00120013FFFF734FEF1E7002F00D1C3E008218F4A0120AB580B43AB50FFF794FC002802D18B4E019B1E438B4B1E4001231E432E511E00894C2E
:401A4000724BEB58334207D1002C00D1A8E00120013CFFF711FEF3E7002C00D1A0E00B27C02181484901FFF7D9FE041E05D102AB991D7D48FFF7ACFE0400013F002F00D1E3
:401A800096E0002C25D1C02202AB9E1D338852019342E5D131007548FFF79AFE041E18D180233288DB001A4200D083E00B27019380216E48C900FFF7B1FE041E04D13100AA
:401AC0006A48FFF785FE0400013F002F70D0002C68D0B0256D056B78002B44D06B78212B41D0634FEB5B002B3DD0002C00D0FEE002AB9E1D31005F48FFF76AFE041E00D061
:401B0000F5E0C021E85B3488084060398C434008594920430140F020EA5BC000EB5BD201024011439B05554A9B0F1140DB02194350483180FFF772FE041E00D0D7E03100F2
:401B40004F48FFF745FE041E00D0D0E0C022EB5B31889B069B0F9B019143194348483180FFF75CFE0400002C00D0C0E0009B454859781D78444B49001943FFF74FFE041EA3
:401B800004D142494248FFF749FE04006801FFF773FDACE03F4CAAE03F4CA8E03F4CA6E03F4CA4E03388019A934200D080E701E03B4C8EE731003B48FFF70AFE041E00D074
:401BC00087E732883F2310009843009B36499F78DB78012F0ED10222012B04D89FB2D21B92B2019201E0170001947022104330802E4A66E0002B5BD0019401275BE0C04668
:401C00000000264000003C40A0F00100B4F0010006000001A4F00100A8F0010001000100ACF00100FC003C4000F03D40C800000800093D00041A0080040A0080C4F00100DC
:401C400030000300B0F00100EFFFFEFF20000200000032401040000068F0010028000200FFFFFBFFF07E0E00021E0000031E000016180000071E00007FF8FFFFFFE7FFFFDD
:401C8000061E0000081E000001100000376800000F1E000001001600030016000200160004001600091E0000C00000080048E80101201F0001907F2082436F3802433280A8
:401CC0000C4ADA400A6031880B4839433180FFF7A5FD009B0400DB78DF1B03231F40019B9B001F43054BBFB23780EF50F1E6200005B0F0BD0024F400091E000064F001008B
:401D000002B4714649084900095C49008E4402BC7047C046002243088B4274D303098B425FD3030A8B4244D3030B8B4228D3030C8B420DD3FF22090212BA030C8B4202D3E9
:401D40001212090265D0030B8B4219D300E0090AC30B8B4201D3CB03C01A5241830B8B4201D38B03C01A5241430B8B4201D34B03C01A5241030B8B4201D30B03C01A52419D
:401D8000C30A8B4201D3CB02C01A5241830A8B4201D38B02C01A5241430A8B4201D34B02C01A5241030A8B4201D30B02C01A5241CDD2C3098B4201D3CB01C01A52418309B2
:401DC0008B4201D38B01C01A524143098B4201D34B01C01A524103098B4201D30B01C01A5241C3088B4201D3CB00C01A524183088B4201D38B00C01A524143088B4201D3C9
:401E00004B00C01A5241411A00D20146524110467047FFE701B5002000F006F802BDC0460029F7D076E770477047C046002310B59A4203D0CC5CC4540133F9E710BD0300EB
:401E40008218934202D019700133FAE770470000F8B5C046F8BC08BC9E467047F8B5C046F8BC08BC9E46704701B40248844601BC604700BF3503000801B40248844601BC8E
:401E8000604700BF7102000803000000010000000100000000000000050360000400000001000000000000000100000006046000080000006C060008F107001008000000D2
:401EC000010000000200000002000000080800030900000001000000000000000300000009090003080000008C060008D10700100A0000000100000004000000040000000B
:401F00000A0A000C0B0000000100000000000000050000000B0B000C10000000AC060008E1070010192001021901020000000000000000000000000000000000000000BA7A
:401F40000000000000000000000000000000000000001D1D000000000000001000000008C0000000781F0010C00000086803000048040008F002000000127A0000127A0017
:401F800000093D0000093D0000093D0004000000A00F00000000D0070700000002000000030000000F000000000000000000000003000000000000000000000000000000A7
:401FC0000000000000000000030000000000000000000000000000000000000000000000000000000000000019000050A000000002FF0000E9000010C1000010000000000A
:40200000F7B50D00019000F04BF9060003281FD12D4B1B69002B19DB002000F021F92B4FB84213D000232A4A1900012000F048F9041E0BD1002000F013F9264BB84203D00B
:402040009C4203D00134F5E79C4201D1224D39E000F01EF9214A04000121214800F028F900282DD1019B002B16D1ADB2ED0001D11C4D18E03E221C4B06211A601B4A1C4BCD
:402080001A60A3221B4BD20099501B4A9D50995899580029FCDAEBE7114A1369002BFCDB00F0E6F80500032E03D0200000F010F908E00121002000F0E3F80028F9D1F4E730
:4020C000054DF0E72800FEBDC00023400101880038010008F049020005005200FC0600080000234001005000040126401E1F000008012640000026401C05000010B5437878
:40210000FF2B0DD100F0C4F8064BDB685A68012311681943116011681942FCD100F0D8F810BDC0468000234070B52B490A682A4B002AFBDA0221DA680A43DA60DA68D2078E
:402140001BD5264D264CD9682A69266889B2360A36060E43FF21120209040A4032439026DA6029691F4A360111403143296121680A40324322602A692268002204241A491B
:402180005A605A680A6922430A61012801D030BF00E020BF1A68104D002AFBDAEA68D20712D5FF240D4E0F4A3069E9682402090A1040214001430A4831610668E9683240C4
:4021C000090C0C40224302600221DA688A43DA6000225A6070BDC046E00023400000214090002140FF00FFFF00ED00E00421134A13690B431361012801D030BF00E020BF75
:402200000F4A1368002BFCDA0E4B19691A00002910D10D490D4B196006210D4B19600D4B383119600C4B0631196019680029FCDA0A4B13610022024B5A60704700ED00E074
:40224000E0002340FC0025401E1F00000801264018052640040126401C052640AAAAAAAA01B40248844601BC604700BF010D001001B40248844601BC604700BFDD100010FE
:4022800001B40248844601BC604700BF890C001001B40248844601BC604700BF9317001001B40248844601BC604700BFE503001001B40248844601BC604700BFE10B00101B
:4022C00001B40248844601BC604700BFF90D001001B40248844601BC604700BF9B17001000000000000000000000000000000000000000000000000000000000000000002E
:40230000000000000000000000000000000000000000000000000000000000000000000000000000000000000000000000000000000000000000000000000000000000009D
:40234000000000000000000000000000000000000000000000000000000000000000000000000000000000000000000000000000000000000000000000000000000000005D
:40238000000000000000000000000000000000000000000000000000000000000000000000000000000000000000000000000000000000000000000000000000000000001D
:4023C00000000000000000000000000000000000000000000000000000000000000000000000000000000000000000000000000000000000000000000000000000000000DD
:0200000490303A
:02000000121CD0
:0200000490501A
:0C0000000005E20721002101E212331C80
:00000001FF