:020000041000EA
:4000000000000108310100100D00000095010010000000000000000000000000000000000000000000000000000000009101001000000000000000009101001091010010DC
:400040009101001061080010910100109101001091010010910100109101001091010010910100109101001091010010910100109101001091010010910100109101001089
:400080009101001091010010910100109101001091010010910100109101001091010010910100109101001091010010910100109101001091010010910100109101001020
:4000C00010B5064C2378002B07D1054B002B02D0044800E000BF0123237010BD2819000800000000C0510010084B10B5002B03D00749084800E000BF07480368002B00D11A
:4001000010BD064B002BFBD09847F9E7000000002C190008C051001094020008000000007047EFF3108072B6704780F310887047FFF7F6FF72B6104C104DAC4209DA2168F0
:400140006268A368043B02DBC858D050FAE70C34F3E70B490B4A0020521A02DD043A8850FCDC094809490860BFF34F8F00F0FCF800F01EF8FEE70000E4950110FC950110BB
:40018000281900089C2800080000000808ED00E0FEE7FEE700B504207146084202D0EFF3098001E0EFF30880043001F067FEFEE7002110B5080000F063FA002000F0C2FAAB
:4001C00000F0DEF962B60B4B5B689B0301D501F0F7FD002000F09CFDFA20400001F006FE054800F031F905F0BBF8002001F0AEFDF9E7C0460000264000000810F8B5E023D7
:40020000504C9B00E2580F231340D022990092000919885807224C4D0240032A05D0042A05D0002A0FD0494811E028680FE0C022920089581F220A40112A01D0132A04D198
:400240008020000203E0424801E0FA20C001002B27D1B223B1210322DB00C900E658635867581B0F3F0F1340174205D0354F7958090F0A40012A01D1F20701D4032B3AD1B4
:40028000B023344ADB00E658A158E758C904C90C02F0B8FBB603F901B60BC90F7043013127E0012B27D1C823C0210322DB00C900E658635867583F0F174205D0214F7958EF
:4002C000090F0A40012A01D1F20703D49B009B0F032B10D1C0227F23D200A758A1583B401F27A658090A3940584302F08BFB310C394002F087FBE0239B00E3589B069B0F81
:40030000D840154B68601C691969240A090E013102F078FBE1B2A860013102F073FB0F4BE860286104000E49C01802F06BFBFA210C4B28758900E01802F064FBA861C0030A
:40034000E861F8BD00002640C000000800366E0100127A0084050000000021403F420F0040420F00E7030000B021E02010B530241F4BC9005A588000520052085A501A5814
:40038000A2431A50802252045A501A491A4A80209950A021043289019950FF21174AC005995081315A5892009208024380205A505A580006024301205A505A5882435A505B
:4003C00000F06CFBFFF71AFF00F056FA00F05EFA01F0EAF9B0235B055A78002A02D05B78212B03D10022064BDA605A6010BDC0460000264001000200840500008C0500008A
:40040000E0002340024BD86F032318407047C0460400214010B5FFF784FE074A074BD16F0B4007490B43D367102306490A681A42FCD0FFF77AFE10BD04002140FCFF00004B
:400440000100FA058800214070B50F4C0600FFF768FEE36F0500DB439B0701D1FFF7DAFFB0230A4A9B00D650E26F094B09491340094A1343E36710230A681A42FCD02800DF
:40048000FFF753FE70BDC0460400214000002140FCFF0000880021400300FA05436870B50400012B02D1007B06F07CF92500A2682B1B01359A4203D9E87B06F073F9F6E758
:4004C00070BD000010B5034A0349002000F0C4FA10BDC046B96700109D04001007B50022030000911000110000F03AFA07BD10B500F0ACFA10BD10B500F0CAFA10BD10B541
:400500000400007B00F0F2F8606010BD10B50400007B216900F0B4F8606010BD10B5037B0169180000F0CCF810BD10B50400C06800F008F9606010BD10B5C06800F016F93D
:4005400010BD10B50400C06800F022F9606010BD10B5C06800F036F910BD10B504000C23C05E00F055F8606010BD10B50C23C05E00F06EF810BD10B5C06800F035F910BD5F
:4005800010B500221849042000F0F4FD01221749042000F0EFFD02221549042000F0EAFD03221449042000F0E5FD04221249100000F0E0FD05221149042000F0DBFD062283
:4005C0000F49042000F0D6FD07220E49042000F0D1FD08220C49042000F0CCFD09220B49042000F0C7FD10BDFF0400100D0500101D0500102B05001039050010430500108D
:40060000510500105B0500106B0500107705001070B507260512EDB206400D2D11D801F094FC0A4901224B5D1C003441144003D1B24013434B5501E00124644201F089FC05
:4006400001E001246442200070BDC0464419000870B50412E4B20D2C0FD80725054001F074FC064901220B5D1E002E41164202D0AA4093430B5501F06CFC70BD44190008B7
:40068000F8B50C00050001F060FC0C2301225D431300A3401A00094E71198F683A4008D13B43AD598B60631C4B60AB4202D94A6000E0FF2401F04DFC2000F8BDE0000008FD
:4006C00070B50C00050001F040FC01210C23A1406B43054AD3189A680A4201D08A439A6001F037FC70BDC046E0000008F0B50C2485B0019001F029FC019B114D5C432B19CA
:400700005B68029003932E1971680198FFF7B8FF0700FF280DD173682A59934201D9002373602A1953680399994202D001335360E9E7029801F00DFC380005B0F0BDC04627
:40074000E000000810B5040007280AD801F0FDFB054B0E331A5D002A01D101321A5501F0F8FB0120404210BD4419000810B5040007280AD801F0E9FB044B0E331A5D012A8E
:4007800001D100221A5501F0E4FB10BD4419000870B505001F280ED801F0D7FB084B30335C5D002C02D101225A5501E00124644201F0CFFB01E001246442200070BDC04614
:4007C000E000000810B504001F280AD801F0BDFB044B30331A5D012A01D100221A5501F0B8FB10BDE000000870B5B024C025144B144A15496405ED00E35CA25C615C665D5A
:400800003F251F242A400C4024039201224311002B407F2219430B003240520413430B4A1C0A110050310B701B0C8B7000234C7011005031595CC1540133062BF8D170BD5A
:40084000040600000506000003060000E000000810B50248B03000F0ABFC10BDDC19000810B50248583000F0A3FC10BDDC19000810B5FFF7F5FF10BD10B5034A8021603271
:40088000042000F019FB10BDDC1A000870B501F05CFB0500094800F0DFFB094C200000F00DFC2000343000F009FC2000683000F005FC280001F04DFB70BDC046DC19000897
:4008C000404500108A22044952000B6853430022CB181A717047C046CC1B00088A230A495B000A6809485A438A18926810B5920082180868D26A4343CB18002119718A42FF
:4009000000D0904710BDC046CC1B0008CC1D00088A21084A490013684B43D3181B79002BF9D101211533FF334343D318197110607047C046CC1B00088A20074A074940005C
:40094000D36C4343CB181B79002BF9D1D06CD36C59424B41D3647047CC1D0008CC1B0008F0B585B0039300238A2714001E00029001917F000A9A96424FD2FFF7DDFF03004B
:400980007B432D490090CA18D46000220431944206D00198855CD018081805740132F6E7019A350012190192721CFF32944622499B1B0A98AA1B0C00A8420BD9654507D045
:4009C000039A1E48545DEA18821814750135F0E780225200009B00987B43E418029B2261A360FFF795FF164B134ADB6C7B43D3181E79009BF6B27B43D2180832114B002E8F
:400A000000D1114B0221032000F086FB0028EAD17342734104002E00ACE7002CADD1002B07D0029B064A9B00D318DB6A002B00D0984705B0F0BDC046CC1B0008D01B000839
:400A4000CC1D0008DD080010C508001010B5022000F004FC10BD000070B5040015000200022000F087FB0849022000F097FB074AA400136D14190133E5621365012B01D1B3
:400A8000FFF7E4FF70BDC046C5080010CC1D000810B5022000F0C8FB10BD0000F0B5962191B0002001F002FA01F0D8F9002801D101F0C6F9012001F077F8E8217E4C7F4BC1
:400AC000626C89011A400A436264626C0193120AD2B23A2A04D1636C794A13400B4363643422002103A803F00DFD03AA0021754800F002FF3422002103A803F003FD03AA9F
:400B00000121704800F0F8FE0822042623686E4D134323602369334207D1002D04D0012001F07EF9013DF5E701E0002D00D1FEE7A02603220127654CF600A35903AD934305
:400B40003B43A351D2196249280003F0D2FC280001F06AFB5F4901980B685F4A03400B608021136949041B021B0A0B4313611369019902200B401361E0230F219B00E2588E
:400B80008A433A43E250E25821318A438021E250E25809060A43E250002100F075FB0021032000F071FB0021042000F06DFB0321002000F069FB0321380000F065FB444B34
:400BC0000522191D280003F094FC2900380000F091FB002800D0FEE74049380000F0DCFB002800D0FEE73E4B3E4AE1580A403A43E250E1583C4A0A408021E250E258090666
:400C00000A43E250A259394B1340A351A259384B13408022920113438022A351A35912021343A351244B1A68324B1340224A136001F092F9C0235B00E3583B4204D12E4AC4
:400C4000A3585B005B08A3506421002001F02EF9C0230021294A1B01D15080210901535801981B4C0340802080010343535080232349DB00D150D35823002A000C3343CBE4
:400C800043C243CB43C243CB43C229000D4800F0ADFE23002A00303313CB13C213CB13C213CB13C22900174800F0A0FE164A174B1A6011B0F0BDC04600002740FF00FFFFFD
:400CC000FFC5FFDF0000324020A1070000002640EC45001090002140000021401027000004050000FEFCFFFFFFFF00FFFFF0FFFFFF8FFFFFFFFCFFFF0C0500000000014026
:400D000000FF00800003324001001180000E1F4110B5054801F07EF90122044B1A70002801D101F083F910BD38010008201E0008030010B5FF24800882009B1ADB009C402D
:400D40009940E243214007282DD8174B01F050FE04090E13181D2227186A02401143196221E0586A0240114359621CE0986A02401143996217E0D86A02401143D96212E061
:400D8000186B0240114319630DE0586B02401143596308E0986B02401143996303E0D86B02401143D96310BD00002140064B10309A68064B9A4203D183009858995002E027
:400DC000034B8000C058704700ED00E00000000800000010F7B5051E01913DD00023C05E002802DBA978FFF7A3FF6A680023E85E9201002812DB1A4B81088900C918FF23A7
:400E000003271C00C0250740FF00BC401A40BA40AD004E59A64332434A5113E003250F2381B20B402940A940FC352F002A408F408A40083B9B080B4C9B001B19DE69BE43D0
:400E40003243DA61074B00259A68074B9A4204D10199FFF7ABFF00E0044D2800FEBDC04600E100E000ED00E000000008010056000369002B03DA89B24160002000E001486C
:400E80007047C04601008A000368002B01DB034803E089B2C26081600020704701008A000369002B03DAC36800200B6000E001487047C04601008A0070B5040010000F2C9B
:400EC0002BD8002A07D1002927D1154B6401E418144B1C6022E000291FD01F260E401CD1104D0F4B6401E4186960AA60CA0831002C6003F007FB31002000FFF7B9FF3100F7
:400F00002A1D2868FFF7C0FF011E04D12868FFF7AFFF011E02D0044900E00449080070BD00002340241E000801018A0003018A00194BF7B51A680193D76804003B680E007C
:400F4000834223D90025A94202D100F0FEFF0500019B18680368002B01DB104C10E063095A01A41A012279689B00CB181968A2400C0014400CD10A431A600021FFF778FF05
:400F8000002E07D1280000F0E4FF03E0044C01E0044CF2E72000FEBD241E00080301880004018A0002018800194BF7B51A680193D76804003B680E00834223D90025A9423D
:400FC00002D100F0C2FF0500019B18680368002B01DB104C10E063095A01A41A0122A24079689B00CB18196811420DD00024914319600021FFF73CFF002E07D1280000F013
:40100000A8FF03E0044C01E0044CF2E72000FEBD241E00080301880004018A00020188000A4B1B68DA68136883420DD9430999005B01C31A0120984052688B581840431E54
:401040009841034BC01800E002487047241E00080001880004018A00024B1A68002A00D118607047301E0008F0B52C246043104C1E0024681F0A2018FF2426403C400D4F7F
:4010800006607601F61906610B4E1B0C44606401A4191E04836033434461A3600023059DC261016283619D4201D02B888381F0BD301E00080000234000102340F0B50389D4
:4010C00085B002AD2B800368066A1933AB704368476A0095826AC16A040003930369C068FFF7C2FF00213B000A0000913000FFF7BBFF216B2800FFF76DFE0023EA5E002AB1
:4011000005DB1F231A401E3B9340024A136005B0F0BDC04600E100E0F7B52C25124C6843276801933C182669002E08D04D4379198869002805D13568002D02DA03E00B4820
:4011400011E00B480FE06768012425004B689D4013882D041D431560F2608C61BC40019BA4B24B62B460FEBD301E000804028A0007028A002C235843064B1B681818C369B6
:40118000934204D9036A9200D150002000E002487047C046301E00080A028A00034B1A682C235843101881627047C046301E000873B5002642690400D56801962B0CB34295
:4011C0001CD01B040069136013680369B34215DA01A9FFF765FEB0420CD10198E26903681E0C0378934205D2226A9B009B58002B00D0984731002069FFF73AFEADB2002D63
:401200000ED063691D6000251B68636AAB4202D09847656203E0A36A002B00D09847A56163691B6873BD00000A4B1A682C23584310180C23C25E002A09DB1F231A401E3B23
:401240009340054AD367BFF34F8FBFF36F8F00207047C046301E000804E100E0084B1A682C23584310180C23C25E002A05DB1F231A401E3B9340034A136000207047C04635
:40128000301E000800E100E0042819D804290FD94B1EFF3B132B13D81F231940094B8000C018C02304229B00C1504033C25005E00723D0301940034B8000C150002000E051
:4012C000014870470000264001004A00084B8200D218D0239B00D05807231840042806D1C0239B00D0581F231840E1331843704700002640F0B5012819D1C022224BD2009E
:401300009A58002A0CDB8A78901E0E280FD84C78601E11280BD8C8780D7800282FD101E01A4830E07026152D01D9AE4201D2184829E00E79022E14D0F82124024901F8271E
:401340000C4021007F2412047F033A4011432C4021438024C022C006240520400143D2009950C020C0248005360706403200E4001D590849002029400A431A5103E0382628
:40138000122DD4D9D1E7F0BD0000264003004A0001004A00FFFFFFCFF8B50D00012819D1C02180240D4BC9005A582406C826224307001C005A50F600A3593B4206D1002D30
:4013C0000AD0012000F02CFD013DF5E70020002D03D101E0024800E00248F8BD0000264001004A0002004A00494BF7B51C789C46002C05D0474B484CE358002B00DB82E017
:40140000464B984200D980E09A427ED8444B99427BD80123644663703F4B424CFF280BD8A3260F25F6009F592840AF43384398511859A843083D1FE03B4E0F25B04204D882
:401440001E592840AE43304317E01E59AE433500060A35431D51354DA84206D8FF261D59000130400F3EB54306E0F02500022D011E5928402E4D354028431851FF2A10D825
:40148000A326FF27F6009D5912013A400F3FBD432A439A511A5927481040E022D20210430AE0F027204D3F03AA4207D81D592148120417402840384318511EE01859164EDD
:4014C000009010020740019700981A4F154D3840019F074315481F517459824205D8F020120500040240144804E0F020120600050240124820400243725162465160054AE5
:401500000020995002E00E4800E00E48FEBDC046341E00081C050000000026400F060000FFFFFF0014050000FF040000FF050000FFF0FFFFFFFFF0FFFFFF0FFFFFFFFFF08D
:4015400003004A0001004A00A423F0B500251F4ADB008446D0582B000002020A85B00292039363461A484570AB421BD1029A039B1A43AA4226D0029C039D029E039F0A00D8
:4015800063464068614601F0D3FBEB0762081A4300900191009801996B088018594132003B000BE0029A039B44680800290001F0BFFB2B00620880185941220001F098FB3B
:4015C000029003910298039905B0F0BD00002640341E0008174B70B5C318DA179B185340042B22DD8023144E144D1B027459A405A40D984209D9124B0521C01801F002FAF8
:40160000201AC343DB17184009E00E4B0521181A01F0F8F90C4B0019984200D90B4873599B0A9B020343735101E000242000201A70BDC0460080FFFF000026403C0500005F
:401640000280FFFF02800000FE030000FF0300001E4A0300904238D010D840282ED005D8002831D010282DD119482EE0802827D08021100049008B4227D023E0154A904296
:4016800014D008D8A022120690421DD0124AA020934211D016E0114A904209D0104A904208D0104A90420DD10F480EE0A42003E00E480AE00E4808E0C00306E00D4804E0A5
:4016C0000D4802E00D4800E0002070470600520001005000010000F0090000A0040000F0050000F0030000F00100520002005200030052000200500005005200FF00520092
:40170000F0230F4A1B06C318934201D8580A15E0EC230C4A1B06C318934203D8580A80235B0207E0EA231B06C018904204D88023400A9B02184301E0012040427047C04608
:40174000FFFF0F00FF7F000010B50400FFF7D8FF0022431C02D0E40562426241100010BD0B4B10B51B69002B10DB0A4B0A4C1868FFF76EFF0121094B094A995099580029D9
:40178000FCD1064909590029F8D100E0054810BD00002340401E00088C040000000025400C0400000200500010B5022202490020FFF7E0FC10BDC0469503000810B5FFF74B
:4017C000CFFF10BD70B50400FFF7BEFF002824D0FEF714FDE022124B52051A605C600024FA219C60DC600F4B0F4A1D691B692D0E013555431B0ADBB201335D430B4B8900C2
:40180000186801F0FFF80100280001F0FBF8084BC118200002F08CFE00E0064870BDC046401E00080000214060F59000C4000008980800000600520070B505000C00FFF76E
:4018400083FF002828D0002C26D0FEF7D7FCC022124BD2041A608322FA2152005A609D60DC600F4B0F4A1C691B69240E013454431B0ADBB201335C430B4B8900186801F0B9
:40188000C1F80100200001F0BDF8E1239B00C118002002F04DFE00E0044870BD401E000800002140808D5B00C4000008060052000F4B30B5C0180F4BC009C01800011F23D2
:4018C000032909D81D00C9008D4013408B400468AC432343036009E01D000439C9008D4013408B404468AC432343436030BDC0460000CEBF00100304F7B504000E001500E1
:4019000000286ED0002A6CD0012312688B40002A01D1436000E08360B30001930F231900B0008140A26A8A4369680B4083401343A3622A7A31002000FFF7BAFF03207100C2
:4019400088400322636A83431800EB6813408B400343636201231F00B7400097FF43BC462F6962461F40B740A0691031104038436F69A0611F40B740E06A10403843E0620D
:40198000A86903221840B0400600E869276B10408A408840009930430A4397436A6A384356000222206304201640AA6A616B92000240286A324303401A43EB6AD800182322
:4019C0000340FF2013432A6B019D520102401343FE2292002A40934081430B436363002000E00148FEBDC04601005A0000281BD0002919D00D4B0E4AC318DB099B180A682C
:401A00001B010260CA6882620A69C2624A6902638A6842624A6882618A694263CA6900201A600A6A5A6000E0024870470000CEBF0010030401005A0010B50F24022006495C
:401A4000064BCA58A2430243CA50F02212028B58A34303438B5010BD0000214004F0000010B50F2403200649064BCA58A2430243CA50F02212028B58A34303438B5010BD7F
:401A80000000214004F000000449054A054B88580340C020C00103438B5070470000214004F00000FF8FFFFF0449054A054B885803408020C00103438B50704700002140BF
:401AC00004F00000FF8FFFFFF8B50500072700F03CFA1C4C060063693B409D422DD0022D0FD18021184A490493690B439361FFF7A3FF03226369BB4313436361FFF7C4FFD8
:401B000009E003226369C820BB431343636100F087F9FFF7C9FF072362699A432B4013436361052D09D1C82000F07AF9FFF798FF054A064B91690B409361300000F009FA66
:401B4000F8BDC0460000264000F02540FFFFFFFE031E03D1084B5869C00F0CE00020012B09D1054918008A69920F1A4201D18869C00F01231840704700002640072370B53A
:401B8000084CA2691A4090420BD0A5699D4303402B43A361002904D0904202D9C82000F03FF970BD00002640F7B5060000F0CDF9B022E8211F27244D244C01902B595205F9
:401BC000C900525C3B409B1A5A1E9341B34236D0002E13D180211E4A490493690B439361FFF72AFF0B222B59BB4313432B51FFF74BFFB023E8225B05D2000CE00B222B59C5
:401C00000920BB4313432B5100F00AF9FFF74CFFB022104B5205D35C2959DAB21F23994313400B432B51012E09D1092000F0F8F8FFF716FF064A084B91690B4093610198E9
:401C400000F087F9F7BDC046000026401CFF000000F0254041070000FFFFFFFE70B5050000F073F92C1E20D0124B19681F2901D900241AE0EC68002C17D02C68002C14D038
:401C80005E6800243200002A04D0AA42F0D014005269F8E7002E01D15D6000E0656100222C61012401316A61196000F052F9200070BDC046501E0008F0B5060085B00D0012
:401CC000204F042901D001291AD100207C68002C35D01D4B984232D02379B3420ED1A368002B01D02B4209D1E36801A85A689B6842608360057023689847BC606469E6E758
:401D0000BC68022902D1002C00D024690020002C15D00D4B984212D02379B3420DD1A368002B01D02B4208D1E36801A85A689B68426083600570236898472469E7E705B0CA
:401D4000F0BDC046501E0008FF00420070B5194C06002368002B0AD100F0F7F823680500002B10D004210020FFF7A6FF0BE001210020FFF7A1FF0028EED002210020FFF79C
:401D80009BFF0D4C14E004210C4A13698B431361012E01D030BF00E020BF280000F0D9F823680024A34203D008212000FFF784FF200070BD501E0008FF00420000ED00E072
:401DC00010B5E82400F0C1F8064B07495A68A4010A4022435A605A68114059605B6800F0B8F810BD00002640FF00FC0F70B5802504002D02AC4206D9064B186800F09CF86D
:401E0000054BE418F6E7054B1868604300F094F870BDC046DC0000080080FFFFD800000810B5034B1B78584300F086F810BDC046D40000080122014B9A6070470000254032
:401E400080220020034B12069A649B6C834200DA0148704700002740030046008022054B120198585B68DBB2002B02D08023DB021843704700002640FEE7000002680A4B08
:401E800010B51A6042685A6082689A60C268DA6002691A6142695A6182699A61C269DA61FFF7EAFF10BDC04678050008F0B51922002800D14B32E82403258A429241194ED8
:401EC000640033595242AB43134333513359164F3B403351154B5C68AC4322435A605A6817405F60002808D00023102913D921338B429B415B4201330DE003001D290AD96D
:401F000001233A2907D9DB18572904D976338B4240410422131A0F21054A1068884303431360F0BD00002140FFFCFFFFFC00214000002540000000000230800803D001309E
:401F40000238FCD1C046C0467047EFF3108072B6704780F310887047094B042803D11A68104318600BE0C022000692041040902204499200885004211A688A431A6070471C
:401F800010E000E000002140F8B50778012F06D0082F34D11C4B1868FFF7DBFF31E00320FFF73EF8194B984229D000F0CFF8012825D0022003F0D8F90600FFF7C6FF124D59
:401FC000286003F0D5F9040006281AD0022E0AD1033CB4433000E4B204F026FE002C0BD100280ED008E0380004F01EFE022C03D0002801D1FFF7AAFE2868FFF7AAFF04480B
:4020000000E00020F8BDC0467C1E000801018800FF004200002803D0024B5860002000E0014870477C1E00080100160000B58BB000212822684602F065FA6A46154B1648F7
:402040009381FB2313835383F83B1377013353770C33D3770132D3776A460232D3776A465B3353846B4601220733DA77FFF7F6FD03F05AF903F060F903F05AF906A803F0FD
:40208000A7F9002804D1054B6846019303F074F90BB000BD901300004C01000898050008014B024AD050704778F0010000003C4010B50BF0EFFA10BDF8B58023FA250C0037
:4020C00001271B0218430D4E0004F061AD00326C0A4B01203A4205D1002D0CD0013DFFF79FFEF4E7002D06D01A6C10431864DB6A0020238000E00248F8BDC04600003C4007
:402100000400160070B5FA2401260D4B000418400C4D0143E961A4002B6C0A4A0120334205D1002C0AD0013CFFF77AFEF4E7002C04D0136C18431064002000E0024870BD34
:402140000000FF7F00003C400400160010B500242000FFF7BBF8032804D00134052CF7D1002000E0012010BDA023034ADB00D058012318407047C0460000264030B524259E
:402180009DB02A00002101A802F0BCF9154B164C0493164B2A0000210AA808930993069402F0B0F9124B2A000D93124B00211193114B13A812930F9402F0A4F90F4B01A9D9
:4021C00016930F4B0F481A931894FFF70FFC0AA90D48FFF70BFC13A90C48FFF707FC1DB030BDC046666666660000FFFF1C1C1C1C66E6EE661C1A1A1A1A1A000066E6666601
:402200001A1A001C00013240800132400002324010200349034A8B5803438B507047C04600003C4070F00100F0B585B00090002800D147E1BE4F7B689B0301D5FFF7C0FD6B
:402240000122BC4BBC4C1D001959114204D0BB495B58134200D037E1FFF790FFB84AB94BEA508022009BD2021B781343B64AAB50B64AB74BEA50B74B5A6801231A4200D078
:4022800024E1B54A116F08220A4008D1B34BB44918681300884202D900F0B4FB431E2A68002B03D0AF485B03034300E0AE4B13432B607B699F499E4E01275B000DD53900DF
:4022C0000320FFF75BFC73699B0F3B420AD08022B369D2051343B36104E00320A34A8B5803438B502B5940200193019AA04BA14E13432B51FFF794FD0123AA598D4F1A42F5
:4023000008D1BB514020FFF78BFD03234020BB51FFF786FDFA27019A974B984E1A4016430192FF002E51964A964BD3581022134207D1002F00D1CBE00120013FFFF770FDCD
:40234000F1E7002F00D1C3E008218F4A0120AB580B43AB50FFF7FCFB002802D18B4E019B1E438B4B1E4001231E432E511E00894C724BEB58334207D1002C00D1A8E0012097
:40238000013CFFF74DFDF3E7002C00D1A0E00B27C02181484901FFF7B5FE041E05D102AB991D7D48FFF788FE0400013F002F00D196E0002C25D1C02202AB9E1D33885201AA
:4023C0009342E5D131007548FFF776FE041E18D180233288DB001A4200D083E00B27019380216E48C900FFF78DFE041E04D131006A48FFF761FE0400013F002F70D0002CB3
:4024000068D0B0256D056B78002B44D06B78212B41D0634FEB5B002B3DD0002C00D0FEE002AB9E1D31005F48FFF746FE041E00D0F5E0C021E85B3488084060398C43400898
:40244000594920430140F020EA5BC000EB5BD201024011439B05554A9B0F1140DB02194350483180FFF74EFE041E00D0D7E031004F48FFF721FE041E00D0D0E0C022EB5B04
:4024800031889B069B0F9B019143194348483180FFF738FE0400002C00D0C0E0009B454859781D78444B49001943FFF72BFE041E04D142494248FFF725FE04006801FFF7D6
:4024C000AFFCACE03F4CAAE03F4CA8E03F4CA6E03F4CA4E03388019A934200D080E701E03B4C8EE731003B48FFF7E6FD041E00D087E732883F2310009843009B36499F78F9
:40250000DB78012F0ED10222012B04D89FB2D21B92B2019201E0170001947022104330802E4A66E0002B5BD0019401275BE0C0460000264000003C40A0F00100B4F00100AC
:4025400006000001A4F00100A8F0010001000100ACF00100FC003C4000F03D40C800000800093D00041A0080040A0080C4F0010030000300B0F00100EFFFFEFF20000200CA
:40258000000032401040000068F0010028000200FFFFFBFFF07E0E00021E0000031E000016180000071E00007FF8FFFFFFE7FFFF061E0000081E000001100000376800007B
:4025C0000F1E000001001600030016000200160004001600091E0000C00000080048E80101201F0001907F2082436F38024332800C4ADA400A6031880B4839433180FFF750
:4026000081FD009B0400DB78DF1B03231F40019B9B001F43054BBFB23780EF50F1E6200005B0F0BD0024F400091E000064F00100014B18687047C046C0000008024B58690F
:402640004000C00F7047C046000026400120024B1B68DB0D984370470000264010B50A00002808D0FA23FF33994204D8034901F040FF002000E0024810BDC04607080016C4
:4026800001001600F0B57D4C7D4BA54407900C000492994200D8ECE08B187A4A93420ED9794A914200D8E4E0784A934207D9784A914200D8DDE0774A934200D9D9E0FFF718
:4026C000BDFF0523019300280BD0734B5D6907231D40EBB20193022D03D10520FFF7F4F90195FFF7B3FF01230393002810D06B4B694AD158E823B022DB005205D25C1F2307
:402700000B40934204D10120FFF74EFA00230393F0231B06E3185D0A06936D0200210320FEF706FC0028F9D1070008AB5B1B0293049BBB4273D980239B00EB180593002615
:402740002B00069A9A4214D8049ABA4211D9079A0299D25DCA54002E08D18021490559180978521A511E8A41160000E00126013705E0802252059A1812780299CA54059A64
:4027800001339A42DDD10024A6423FD08023C8265B05ED182800FFF715F804000120FFF73FFBA423A422DB032340D203934203D1013E002EEED128E0394B9C4204D1FEF71E
:4027C000FDFF384B0400F8E70120002C1ED1C82608A92800FFF730F804000120FFF720FBA423A422DB032340D203934203D1013E002EEDD109E02A4B01209C4206D1FEF780
:40280000DDFF284B04009842F9D00120264A029B944663440293002C02D1059D88E70024002801D0FFF706FB00210320FEF7BCFB0028F9D1FFF702FF002805D0019B022B9B
:4028400002D11800FFF740F9FFF700FF002805D0039B002B02D11800FFF7A6F9134B9C4207D0134B9C4204D00020844202D0114800E0114889239B009D44F0BDDCFDFFFFEA
:40288000FFFFFF0F00001010FFFFFF1300800014FF070016000A0016000026401CFF0000010050000200500000FEFFFF0200520006005200130016000100160010B50A0031
:4028C000002807D0FA23FF33994203D80249FFF7D9FE00E0014810BD0708001601001600002070470020704710B5FFF799FA10BD10B5FDF7FCFD074B1B681B6800229A5E9D
:40290000002A05DB1F231A401E3B9340024A136010BDC046801E000800E100E010B5FDF7EAFD094B1B681B6800229A5E002A09DB1F231A401E3B9340044AD367BFF34F8FCA
:40294000BFF36F8F10BDC046801E000804E100E0A023034ADB00D058032318407047C04600002640024B034AD058C00F7047C0461C0500000000264010B5FEF7E5FD10BD77
:4029800010B5FEF731FD10BD10B5FEF723FE10BD10B5FFF7F3FB0220FFF782FB094C0A4923681868FEF716FA23681B6800229A5E002A05DB1F231A401E3B9340034A13600A
:4029C00010BDC046801E0008B120001000E100E00420704710B5FFF7B8FA10BD10B5FFF7B8FA10BD10B50021FFF7C8F810BD000002B4714649084900095C49008E4402BCBF
:402A00007047C046002243088B4274D303098B425FD3030A8B4244D3030B8B4228D3030C8B420DD3FF22090212BA030C8B4202D31212090265D0030B8B4219D300E0090A03
:402A4000C30B8B4201D3CB03C01A5241830B8B4201D38B03C01A5241430B8B4201D34B03C01A5241030B8B4201D30B03C01A5241C30A8B4201D3CB02C01A5241830A8B42AC
:402A800001D38B02C01A5241430A8B4201D34B02C01A5241030A8B4201D30B02C01A5241CDD2C3098B4201D3CB01C01A524183098B4201D38B01C01A524143098B4201D320
:402AC0004B01C01A524103098B4201D30B01C01A5241C3088B4201D3CB00C01A524183088B4201D38B00C01A524143088B4201D34B00C01A5241411A00D20146524110462E
:402B00007047FFE701B5002000F0F0F802BDC0460029F7D076E7704703460B437FD4002243088B4274D303098B425FD3030A8B4244D3030B8B4228D3030C8B420DD3FF2267
:402B4000090212BA030C8B4202D31212090265D0030B8B4219D300E0090AC30B8B4201D3CB03C01A5241830B8B4201D38B03C01A5241430B8B4201D34B03C01A5241030B23
:402B80008B4201D30B03C01A5241C30A8B4201D3CB02C01A5241830A8B4201D38B02C01A5241430A8B4201D34B02C01A5241030A8B4201D30B02C01A5241CDD2C3098B4221
:402BC00001D3CB01C01A524183098B4201D38B01C01A524143098B4201D34B01C01A524103098B4201D30B01C01A5241C3088B4201D3CB00C01A524183088B4201D38B007B
:402C0000C01A524143088B4201D34B00C01A5241411A00D201465241104670475DE0CA0F00D04942031000D34042534000229C4603098B422DD3030A8B4212D3FC228901BF
:402C400012BA030A8B420CD3890192118B4208D3890192118B4204D389013AD0921100E08909C3098B4201D3CB01C01A524183098B4201D38B01C01A524143098B4201D3C7
:402C80004B01C01A524103098B4201D30B01C01A5241C3088B4201D3CB00C01A524183088B4201D38B00C01A5241D9D243088B4201D34B00C01A5241411A00D20146634601
:402CC00052415B10104601D34042002B00D54942704763465B1000D3404201B5002000F005F802BD0029F8D016E770477047C046002B11D1002A0FD1002900D1002802D090
:402D00000021C943081C07B4024802A14018029003BDC046D9FFFFFF03B4684601B5029800F050F8019B9E4602B00CBC7047C046F0B54F464646C0B41604360C99463300C8
:402D400005042C0C070C150C63437E436F4365431C0CAD1964199C46A64203D980235B02984647446346250CEF191D044B464A4343432D0C240464199918C91920000CBCA3
:402D800090469946F0BDC04670B500220C4B04000D0001F05DFA002804D12000290001F0B5F970BD064B00222000290000F05AFE01F0ACF980231B069C466044F1E7C046E0
:402DC0000000E041F0B54D46564644465F46F0B4924683B004000D0099468B422FD82CD04946504601F05CFA29000600200001F057FA331A9846203B9B4600D574E053461A
:402E00005A4693401F005346424693401E00AF4229D826D05B46A41BBD41002B00DA79E0002200230092019301235A4693400193012342469340009319E08242D0D900221A
:402E40000023009201930C9B002B01D01C605D600098019903B03CBC90469946A246AB46F0BDA342D6D900220023009201934346002BE8D0FB0772081A4346467B080EE0D4
:402E8000AB4201D1A2420CD8A41A9D41012024196D410021013E24184D41002E06D0AB42EED9013E24196D41002EF8D15B460098019900196941002B22DB2B005A46D34044
:402EC0002A004446E2401C005B461500002B2CDB26009E40330026004746BE403200801A994100900191AEE7424620239B1A5246DA40414613004A468A4017001F4382E7AB
:402F0000424620239B1A2A0046469A402300F3401343D5E74246202300219B1A0022009101920122DA40019282E74246202326009B1ADE402F00B446974066463B003343D8
:402F4000C9E7C046F0B556464D4644465F46F0B41D000E034C00CB0F87B0070092468146360B640D98466AD06D4B9C4235D08022430F12041343F6001E43C3009946694B51
:402F800000279C460023644402932B0368001B0BED0F51469B46400D009500D178E0604B98426CD05B46DA004B0F802109040B4313439B465346D9005A4B9C4600236044E4
:402FC0004246201A6A40924601901F430F2F00D9B0E05548BF00C0598746374300D088E0002399460233082700260293CDE74346B34649460093029B009A9246022B00D07A
:40300000BFE1002153460122002689461A40444B002136030C0D2405360B2643434C1B0526401E437600D207760816434846310007B03CBC90469946A246AB46F0BD330077
:4030400003434FD0002E00D1BCE1300001F00AF903000B3B1C2B00DDADE11D220100D31A08393A008F408E40DA40B9461643304B00279C46002360444442029385E753460E
:403080005A4613432CD1002300219B46023397E70B4320D05B46002B00D19EE1584601F0E1F803000B3B1C2B00DD8FE102005946083A91408B461D21CB1A5146D9400B0043
:4030C00059460B4351469B469140194B9C4660444042002374E7002300219B4601336FE703236DE70023994601330427002602934BE703230C27029347E70122D51A382DA6
:4031000000DCB0E153461A4000210023002689467EE700238026994600223603004B77E7FF07000001FCFFFF40510010FFFF0F80F30300005E4500D972E100D16DE1019B36
:403140004D46013B01930023340002935B461E020B0E1E430B020393330C994633041B0C494620000093FFF74DFC009B370043430600494620009846FFF7CAFC2C0C090439
:403180000C43A04509D9E419731EA74200D95CE1A04500D859E1023EE4194346E41A49462000FFF72FFC0300009A80465343494620009B46FFF7ACFC2A040904120C0A4314
:4031C00093450DD94346D219013B974200D93AE1934500D837E102235B429C46D219E0445B46D21A4346360433439B460399180C0B0C1D00059309045B46090C0C001B04F8
:403200001B0C4443049159436B4368431B190D0CEB189C4203D980246402A44660441C0C09041B04090C20185D18824200D2DEE000D1D7E0161A029B9C465D1BAC459B41CE
:403240005B42F61AB74200D106E149463000FFF7D9FB009B04004343494630009846FFF757FC2E0C09040E43B04509D9F619631EB74200D9F3E0B04500D8F0E0023CF619CE
:403280004346F31A494618000293FFF7BBFB009B06004343494602989846FFF739FC2D0409042D0C0D43A84509D9ED19731EAF4200D9D6E0A84500D8D3E0023EED192404A4
:4032C000210043463143049E059A3000ED1A0B040C0C1B0C58436643534354439A19030C9B189E4203D980225202944664441A0C00041B04000C14191B18A54250D34DD0F4
:4033000001231943964A019B94466344002B00DCF3E64A0709D00F220A40042A05D00A1D8A42894149428B4411005A46D20108D55A468C4B1A4093468022D2009446019B7C
:403340006344894A934200DD5BE65A46C908500708435602514601225B058146360B5B0D0A4055E680231B031E4211D05A461A420ED15E461E433603360B2A0089467B4B4B
:4033800046E6032B00D1E1E0012BBBD11A40BBE61E433603360B4246744B39E6002BB1D07D194A1EAF4252D91100A542A8D1039A9A42A5D1A6E703003E00283B9E400023D5
:4033C000994654E600F04EFF203041E603005246283B9A400021934677E6504600F042FF20305EE6029B0026AB4200D323E7039E0299B44661448846B045B6415B467642FB
:40340000F619B218013B0291974213D290424FD800D18EE0161A9B460DE7894500D28EE674084B46F60735005B081D434B46DB0702938BE69742EDD10399029CA142E5D9E8
:403440003E1A9B46F7E69846CAE61E00A5E6AC423ED874D0110053E70121494252E71C000EE71E002BE71F2D3CDC20230A0058465B1B9840EA4099400243481E81415E4694
:403480001143EE404B0709D00F230B40042B05D00B00191D99429B415B42F61833023CD55346012200211A40002601238946AFE502235B429C46039CE344A446029B634479
:4034C0009846A045B6417642F6190293B218B1E603988A1E41008142B6417642F619AD19039161E71F225242D31A5A46DA401300202D29D040225846551BA8400143481ED7
:40350000814107200B4318400026002809D00F2200261A401900042ABBD10B0070077602360BDB0803439946012253461A4000236EE502998D42BBD89B4600267BE6039882
:403540009842C5D3110032E70020D7E780265B4636031E433603360B009A8946034B57E5FF030000FFFFFFFEFE070000FF070000F0B55F4656464D464446F0B40D039946E5
:403580004E002B0B87B00700924680469B46760DCC0F002E69D06D4B9E4235D05B468022DD001204430F13432B439B46C3009846674B00279C460023664401934A461503D6
:4035C0005000D20F53462D0B400D914600D176E05E4A90426CD080225B0F120413435C4AED0094461D4353460022DB00604449463618701C6140029017430F2F00D9AFE0AD
:403600005448BF00C759BF465B461F4300D088E000239B469846023308270193CEE74946022A6AD0032A00D109E2012A00D0BBE111400022002300259046CCB200212D036B
:403640000A0D12052D0B1543434A1B0515401D436D00E4076D0825434046290007B03CBC90469946A246AB46F0BD034352D05B46002B00D18AE1584600F0F4FD03000B3B24
:403680001C2B00DD7BE11D22D31A3A0001005D46DA4008398D4013008F402B439B46B8462E4B00279C46002360444642019385E752462A432CD100250023022297E75246D4
:4036C0002A4321D0002D00D154E1280000F0CAFD03000B3B1C2B00DD46E11D21CB1A51460200D9405346083A954093400D431B4A944660444042002279E7012400220C40A4
:40370000124B0025904699E70025002301226EE703226CE700239B4698460133042701934CE703230C27019348E700238025984600242D03054B81E75D464346019A6FE786
:403740005D4643462100019A6AE7C046FF07000001FCFFFF80510010FFFF0F80F30300004246120C91461A0C9446424617044A461B041B0C5A43604690464A464243100071
:40378000039262461C003F0C7A437C4342440192220C9246019A5244904506D98246802040028046C24450460390100C049048462404240C1204121905922A0C2D042D0C38
:4037C00068432C00824648467C4350438146200C8046574357444744BA4503D9802040028046C144380C3F04B84648442404240C01900498A044404404905846000C814646
:4038000058460404200C8246070048465F434C464343604660436446834650464443380C8446E4186444A34203D980235B029C46E34448463F04230C3F0C2404E41957463D
:4038400068436F4384464D46504655434243380C814662444A445B44944503D9802040028446654403983F04834604983F0C8446E344C345804140428246100484460198EA
:40388000674484466744A344BC46A345A4419946D44464428742BF41D4458041E144A04699459B417F424042C8440743120CBA18A045A4415F423B0064422343D71843467A
:4038C0007D19DB0D6D021D435B465A02059B1A43531E9A415B46DB0D1A4343465B021343EA0107D501225C0813402343EA07029E13436D08574AB218002A4BDD580709D0BB
:403900000F201840042805D0181D98429B415B42ED180300E80104D54F4A15408022D200B2184E48824200DDE7E60124DB08680718436D02530580462D0B5B0D0C407DE6CF
:40394000802259461203114208D0154206D115432D0398462D0B4C46414B6FE65D4615432D032D0B3E4B69E603005546283B9D400023BCE6504600F075FC2030A8E60300D1
:40398000283B9F400023BB46984689E600F06AFC203073E60124A61A382E07DD00220C4000230025904649E6029EA3E71F2E20DC20222C001800921BF040944093400443A7
:4039C000581E83411C43F540630709D00F232340042B05D023001C1D9C4292415242AD182B021FD5012400220C4001230025904624E61F202C004042821AD440202E1CD003
:403A00004022961BB5402B43581E83410720234318400025002809D00F2200251A401C00042AD8D1230068076D022D0B0124DB08034398460C40002300E60025E3E78022DD
:403A40000124120315432D0398462D0B0C40044BF4E5C046FF030000FFFFFFFEFE070000FF070000F0B557464E464546E0B40E001100F20F9246C500420F18033703740020
:403A8000400A4E0F7F0A3043CF4E17435A00640D520DDB0FC900B24200D1E5E001267340A61AB446534500D1AFE0002E00DC0DE1002A3AD103000B4300D0E4E06B0709D09C
:403AC0000F232B40042B05D02B1DAB42AD416D427F191D003B0200D488E0BB4B01349C4200D110E13A00B94B51461A4001235007ED08520264050543120B640D0B400021AC
:403B0000280012030D0D120B64052D0515436208AF4CDB072C401443640064081C4321001CBC90469946A246F0BDA74B9C42C5D080231B0418436346382B00DDFDE01F2B10
:403B400000DD30E1624620239B1A02009A40664690460A009940F24046464B1E99413243114363460200DA40691A8D429B410D00BA1A5B42D71A3B0235D57A02530A98464C
:403B80004346002B00D1C4E0404600F06BFB0300083B1F2B00DDC5E020222900D21A4746D1409F400A009D403A439C4200DDC0E01C1B631C1F2B00DDE4E02021140028003D
:403BC000C91AD8408C408D400443DA40681E854117002543002471E7424663461A4300D14CE2674645466B0700D069E7012351467807ED08FA080B40054373498C4238D0DC
:403C000012036405120B640D79E7002E00DC9AE0002A47D06C4A944200D14FE78022120410436246382A00DC08E10143481E81410022C9B24919D219A942BF410D007F42D7
:403C4000BF183A0200D442E15F4A0134944200D14EE101205D4A69083A4028400843D507054357089A4629E706000E4300D017E714E72900114300D1F9E1802109030A436B
:403C80001203120B3BE701235B429846C4446346002B72D1691A8D429B413F1A5B42FF1A0D0068E702000A4300D107E7012252429046C4446246002A00D0E6E06918A942E2
:403CC000B6413F187642F7190D00BAE7002E00D080E0621C5205520D012A00DCF9E06A1A91464D45B6413A1A7642921B9046120200D499E04D1BA9428941C71B49427A1A9C
:403D000090469A463CE752460123002513400022F5E6280000F0A6FA20300300083B1F2B00DC39E72A002838824000259C4200DC3EE7264FE41A1740C0E60143481E8141B9
:403D40000022C9B210E7002E00D0F1E0621C94465205520D012A00DCA0E01B4A944500D1C5E06918A94292413F185242D2194908D5070D4357086446A0E6134B9C4200D06A
:403D8000D9E69BE611001F3CE1400C00202B00D180E04021CB1A9A4015436A1E95410027254300241FE763460200203BDA406346202B71D0402366469B1B98400143481E83
:403DC000814111430022CFE6FF070000FFFF7FFFFFFF0F80002C48D0CA4CA24200D1A2E07442A1468024240427434C46382C00DDDBE01F2C00DD44E14E462024A41B3E00B3
:403E0000A640A246B0464C462E00E640B4464646644626435446A5406C1EA54134002C434D46EF400D1B28E04A4643464D461A4300D0A5E6002300240025DEE61F2A5ADCA8
:403E400066462022921B060096409146B04662460E00D640424616434A4691404A1E9141020060463143C240E4E63C002C435AD0F443A146002C52D14D1BA9428941C71B8D
:403E800049427F1A14009A4675E69E4A944200D0C7E613E600227FE700208FE7002C00D0C8E03B002B4300D10FE103000B4300D104E66918A9429B413F185B42DF193B02B2
:403EC00000D41AE1904B0D001F406446F6E59A4689E63A002A43002C5CD1002A75D102000A4300D1CAE007000D009A46E6E564460022002581E662460600203AD6406246C1
:403F0000B046202A00D1B7E040226646921B904001434246481E8141114300228AE6794CA24200D061E707000D0014009A46C5E5002C41D13C002C4378D0F443A146002C86
:403F400020D0704CA24271D04C46382C00DDB2E01F2C00DDBCE02026341BA2463C005646B4404E46A0462C00F440A446444666463443A4465446A54064466E1EB541254390
:403F80004C46E7406D188D4289413F184942CF19140056E6002A2FD102000A4300D184E007000D009A46574C88E53D436F1EBD41ECB200270D1B60E7524CA24236D07442E1
:403FC00080263604A1463743BEE702000A4300D174E56A1A90464545B6413A1A7642921B9446120200D4F7E54D1BA9428941C71B49427F1A9A4661E502000A433AD0ED0899
:404000007C072C438025FA082D032A4208D0C7082F4205D145072C003A009A46C9080C43670FD200E5001743364C47E507000D00140043E53A002A4343D002000A4319D034
:40404000ED087C072C438025FA082D032A4207D0C6082E4204D147073C003200C9080C43D700620FE50017439A46264C26E50022002544E5234C21E5002049E700230025EF
:40408000BBE54C463E00203CE6404C46B446202C31D040244E46A61BB7403D436C1EA54164462C4300270D1BE7E6802200231203144C0025A1E53D436F1EBD410027EDB2AA
:4040C00060E707000D000F4CF8E407000D00F5E44E463C00203EF440A0464C46202C0ED040244E46A41BA7403D436F1EBD4144460027254346E70027CFE70D0073E50027E5
:40410000F2E7C046FF070000FFFF7FFF0B0330B5134D1A0B4B005B0DC90F0024AB4211DD104CA34210DC8024640322430E4CE41A1F2C0CDD0D48C31ADA4013005C420029CD
:4041400000D11C00200030BD094BCC18FAE7E040084CA44663449A4013000343EEE7C046FE0300001D0400003304000013040000FFFFFF7FEDFBFFFF70B5051E28D000F017
:4041800071F8154B154A1B1AD21A1F2A16DD2C00134A0025D21A94405A052403240B520D002124030B0D240B1B0523430D4C1205234013435B002800590870BD0B212C0051
:4041C000081AC440954024035A05240B520DE7E700220024E4E7C0461E0400003304000013040000FFFF0F808446101C62468C46191C634600E0C0461FB500F001F90028B4
:4042000001D40021C8421FBD10B500F055F84042013010BD10B500F0F3F8002801DB002010BD012010BDC04610B500F0E9F8002801DD002010BD012010BDC04610B500F069
:404240007BF8002801DC002010BD012010BDC04610B500F071F8002801DA002010BD012010BDC0461C2101231B04984201D3000C10391B0A984201D3000A08391B09984244
:4042800001D30009043902A2105C40187047C0460403020201010101000000000000000010B5002903D1FFF7DDFF203002E0081CFFF7D8FF10BDC046F0B55F4656464D46AD
:4042C0004446F0B41F035C00DB0F9A46194B0E034D00C90F8046360B6D0D8B4691463F0B640D9D4219D0134B9C421BD00123A54206D018003CBC90469946A246AB46F0BDAF
:40430000BE42F6D1C845F4D1D34510D0002DF0D1304303005A1E9341EBE7310001230143E7D1E0E73A430123002AE2D1DEE70023DFE7C046FF070000F0B55F4644465646AA
:404340004D46F0B41F033C0B2C4F0E034D00A3465C008446360B6D0DC90F9046640DDB0FBD422BD0254FBC422ED0002D0ED130430700814678427841002C17D15F463A4391
:4043800014D14B460020002B0AD006E0002C02D15846024301D099421AD00123484218433CBC90469946A246AB46F0BD0028F2D058425841012240421043F1E7370007435A
:4043C000D0D002204042EBE75F461743CDD0F8E7A542E2DC05DB5E45DFD808D000205E45DED248424841012340421843D8E7C445D3D80020C445F4D3D2E7C046FF070000C6
:40440000F0B55F464D4644465646F0B41C03240BA4462F4C0F034D005E00C90F80463F0B6D0D8B469146760DDB0FA54220D0284CA64222D0002D12D1384344424441002E05
:4044400020D0002C0DD05C42634101245B421C4320003CBC90469946A246AB46F0BD002E17D05B4519D05B465C4201231C43EFE7390002240143EBD1D9E761460224114317
:40448000E6D1D7E761460A43DBD100240028DFD0E9E761460A43E4D1E5E7B54203DD01225C421443D4E7B542CDDB6745DBD809D000246745CCD259464C4261410124494239
:4044C0000C43C5E7C845CED80024C845F3D3BFE7FF07000030B50024A24208D0035D651C0C5DA34201D0181B02E02C00F4E7002030BD002310B59A4203D0CC5CC454013372
:40450000F9E710BD03008218934202D019700133FAE77047F8B5C046F8BC08BC9E467047F8B5C046F8BC08BC9E4670470000000001B40248844601BC604700BF990200081A
:4045400003000000010000000100000000000000050360000400000001000000000000000100000006046000080000004C1B00086108001008000000010000000200000063
:4045800002000000080800030900000001000000000000000300000009090003080000006C1B0008710800100A0000000100000004000000040000000A0A000C0B00000066
:4045C0000100000000000000050000000B0B000C100000008C1B0008510800100A0029000300000003001800030000001920010219010200000000000C00000000000000B3
:4046000000000000006800000000000000000000000000000000121200000000000000000000000000000000000000BA0000000000000000000000000000000000001D1DFA
:40464000000000000D0000000800000000020000000000000000000000000000000000000000000000000000000000000B0000000000000064000000000000002002000092
:404680007C01000031010000090901120C00FF0380ABCDABCD80409C1B04041BFFFFFFFF000000000410080007070400F216FBE0FBE01F60427EF56D720096BE209000000F
:4046C00010502604060037D7F401FA00960064004B0032001E00140003040506020D1100F1D9001055D90010A7DF0010A5DA001057DB001053DF00106BDF00102DE000101A
:40470000D1DB001039DC001015DE001043DE00107BE0001041DF00100FE000100FE000100FE00010E9DE001091DE0010D5DE001075150110811501104D2501103526011082
:4047400041260110A1DA0010EFD90010EBDF001055DB00108FDB001063DF001085DF001079E0001035DC001091DC00102FDE001069DE0010E7E000104BDF001079E000100F
:4047800079E0001079E0001039DF001079E0001079E0001079E0001079E0001079E0001079E0001079E00010DFF50010E7F50010E3F50010DDF50010BBF50010B7F500100A
:4047C000D5F50010D3F50010AFF50010B3F50010EBF50010D7F50010D1F50010EFF50010EFF50010ADF50010DBF50010CD0C011081100110450E0110F10B011001FF001072
:40480000B5FB001085060110C901011021F7001085F70010D9110110110A01106101011035FB001011060110F15B0010C10A011079120110051601105117011025180110C4
:4048400041140110D51201108D150110B5130110DF130110EF130110F1130110F51301100FE00010E1130110EB130110E91301107D29011035230110E928011099280110D6
:40488000352901104D26011059250110F1250110B526011025BE0010572301104D2301105323011051230110552301104F2301100FE000100FE000100FE00010F9AC00109A
:4048C000453C0110273C0110273C0110273C01105D3C01103D7B0110273C01102D7B0110457B0110357B0110DF400110D74001104140011039400110373C01101F3C011034
:40490000153C01103B3C011031400110614001102F3C011059400110B9400110273C0110694001105140011049400110273C0110653C01106D3C0110753C01102B3C0110A5
:404940002B3C0110453C0110273C0110273C0110273C01105D3C01103D7B0110273C01102D7B0110457B0110357B0110DF400110D74001104140011039400110373C0110A7
:404980001F3C0110153C01103B3C011031400110614001102F3C011059400110B9400110273C0110694001105140011049400110273C0110653C01106D3C0110753C011031
:4049C0002B3C01102B3C0110696401105D640110756401102B3C01102B3C0110096101104561011015610110396101102D61011021610110516101105D610110516401104F
:404A0000B5660110B9660110C56601109D660110A96601102B3C01102B3C01102B3C01102B3C01102B3C01102B3C01102B3C01102B3C01102B3C01102B3C01102B3C011082
:404A40002B3C01102B3C01102B3C01102B3C01102B3C01102B3C01102B3C01102B3C01102B3C01102B3C01102B3C01102B3C01102B3C01102B3C011069610110A7570110BC
:404A8000555601105556011055560110D957011069570110555601104D5701101958011063570110F3570110E9570110D75501105556011055560110555601105B55011014
:404AC0003757011081550110B9570110DF560110EF56011069560110555601102F580110A556011097560110555601102357011067580110555601105556011055560110FA
:404B0000F9630110ED63011005640110ED5601108756011055600110916001106160011085600110796001106D6001109D600110A9600110E1630110F1650110FD6501103C
:404B400009660110D9650110E5650110555601105556011055560110555601105556011055560110555601105556011055560110555601105556011055560110555601107F
:404B8000555601105556011055560110555601105556011055560110555601105556011055560110555601105556011055560110B5600110D75A0110055A0110055A0110DD
:404BC000055A01101B5B0110815A0110055A0110C95A0110C95A0110735A0110315B01101F5B0110815901107D590110615A01101559011007590110075901101959011072
:404C0000FB5A0110355A0110495A0110095A0110055A0110655B0110215A01100D5A0110055A0110655A0110815B01107D5B0110055A0110055A01102563011019630110E5
:404C400031630110A95B0110035901109D5F0110A55F0110B15F0110BD5F0110A55F0110A55F0110C95F0110D55F01100D630110FD6401100965011015650110E56401109E
:404C8000F1640110055A0110055A0110055A0110055A0110055A0110055A0110055A0110055A0110055A0110055A0110055A0110055A0110055A0110055A0110055A0110FE
:404CC000055A0110055A0110055A0110055A0110055A0110055A0110055A0110055A0110055A0110055A0110E15F011008000000060F0020200107021900000007070E0562
:404D0000020220001C1202000103000E030600040040270700000707010200020307030400000000000000000000000000000000000000000000000000080000A757011057
:404D4000555601105556011055560110D957011069570110555601104D5701101958011063570110F3570110E9570110D75501105556011055560110555601105B55011051
:404D80003757011081550110B9570110DF560110EF56011069560110555601102F580110A55601109756011055560110235701106758011055560110555601105556011037
:404DC000D75A0110055A0110055A0110055A01101B5B0110815A0110055A0110C95A0110C95A0110735A0110315B01101F5B0110815901107D590110615A011015590110B3
:404E0000075901100759011019590110FB5A0110355A0110495A0110095A0110055A0110655B0110215A01100D5A0110055A0110655A0110815B01107D5B0110055A011014
:404E4000055A011008000000060F0020200107021900000007070E05020220001C1202000103000E032000800000C00000000004000000A822000000000000040000F7FF90
:404E8000FF7F0000003000000000000000000000000000000000000000000000000000000000000000000000355E0110ED5F0110555F0110955E0110FB5F01107D5F011022
:404EC000655E011009600110615F0110935E01100D600110795F01107D5E0110FB5F0110715F0110675E0110FB5F0110695F0110AB5E011019600110855F0110B15E01101F
:404F0000296001108D5F011055560110055A01102B3C011055560110055A01102B3C011055560110055A01102B3C011055560110055A01102B3C011055560110055A01101E
:404F40002B3C011055560110055A01102B3C011055560110055A01102B3C011055560110055A01102B3C0110BF5E011041600110955F011055560110055A01102B3C011044
:404F800055560110055A01102B3C011055560110055A01102B3C011055560110055A01102B3C011055560110055A01102B3C01107961011055630110FD6201107761011054
:404FC00049630110F56201109F610110A163011005630110756101103D630110ED62011055560110055A01102B3C011055560110055A01102B3C011055560110055A011081
:405000002B3C011055560110055A01102B3C011055560110055A01102B3C0110A16401105D65011000000000AF64011071650110BD270110BD6401109B650110ED2701105F
:405040008164011021650110412401108F6401103F6501105D24011030303031423830303031303230333034303530363037303830393041304230433044304530463130A4
:40508000313131323133313431353136313731383139314131423143314431453146323032313232323332343235323632373238323932413242324332443245324633307A
:4050C000333133323333333433353336333733383339334133423343334433454142000026002B00300036003C0043004B0055005F006A00770086009600A800BD00D400CC
:40510000EE000B012B014F017801A601DA01130254029D02EE024A03B1032404A5043605D9058F065C0742084409650AAA0B160DAF0E79107C12BD1445171C1A4B1DDE20A6
:40514000343100100230001008310010F82F0010083100101231001008310010F82F0010023000100230001012310010F82F0010EE2F0010EE2F0010EE2F001064330010A0
:405180006037001020360010203600101E36001038370010383700102A3700101E360010383700102A370010383700101E3600104037001040370010403700104039001054
:4051C00000000000F8B5074600256846058078683C1D2D492E46002807D06268002A06D0800702D1207A800701D00D4649E0FDF7CFFBFDF793FBFDF7EBFB00F029F9002855
:405200003DD1788C0006C00F00F0A2F905460004000C34D11D49084600F0A4FE0004000C2DD12289A17A2068194C002806D02060A280E68021810021FFF764F9684601F0DA
:405240001BFC054613486B460078E2888000001DC1B21B88A088D418A04206D3C01A801A80B201F09BF9044600E00B4C00F044FD002C04D100F07CFB08490120087000F03D
:40528000F5F82846F8BD00000100160025540010901E0008CC1E0008FFFF00006401000810B503480078012801D101F013F810BD6401000810B5FDF74BFB032801D100F086
:4052C000FFFD00F0FDF901F059FC00F07DFE02490020087010BD00006401000800487047901E000870B5044600208A0703D08A07920F891A091D084B89B2DA889E885518D8
:40530000B54206D81D68AA182260DA885118D98070BD024870BD0000901E000803001600004870479C1E000810B501F033FB10BD10B501F039FB10BD10B501F03DFB10BD54
:405340000549002806D0054981800521017000214170817008467047010016008203000010B5FFF79DFF10BD10B501F02DFB10BD10B501F03BFB10BD38B505460020694608
:405380000880002D09D0284601F03CFC0446684601F066FB002C02D015E00C4838BD01F01DFB2846FFF70EFF04000CD1284601F0B1FB040007D1FDF7CBFA032803D100F058
:4053C00055FD00F093FD204638BD00000100160038B50446002069460880002C08D06189090A05D1617A102902D8E179102901D90A4838BDA0816946204601F0CFFB054626
:405400006946A08909884018A081002D04D1102221460348FFF76DF8284638BD010016009C1E00087047000010B5084900200978002909D005F052FE044605F015FD201ACD
:4054400080B281004018C00810BD00006C01000810B5FCF793FE442202490348FFF749F8002010BD84460010AC1E000810B5FDF73FFA10BD10B519461046044C01F0C4F9CB
:40548000002800D00024204610BD0000FFFF000010B501F0E5F910BD10B501F0CBF910BD010010B5044806D0044A01201070002007F064FD002010BDFFFF00006C01000848
:4054C00070B50024034D20462C7007F085FD2C70204670BD6C01000801480078704700006C01000870B5591C89B24C080B4D64000021451906E028685054000A5618891C6C
:40550000707089B2A142F6D3D80705D0D0182038D15CC47FD454C17770BD000000103C4030B50A4C002100195B1E07E054186478555C240225430560891C89B29942F5DBDB
:40554000994201D1515C016030BD000000103C40F8B50746FF2000F0F3F9164EFF2070701548164900684018406B0024410F301D0125022901D0457000E0447005700D4882
:40558000801C4470384612F03DFB070010D112F07BFB3070012000F0D3F912F07FFB68460470447012F0E4FE6846457012F0E0FE3846F8BD6D0100086801000840F03D40C6
:4055C000F0B50021094D5B1E08E0441924685718260A7E705454001D891C89B29942F4DB994202D1401900685054F0BD00103C4070B500210A4E5B1E09E0541864782502AE
:40560000545C2C4385192C60001D891C89B29942F3DB994202D1515C8019016070BD000000103C40F0B50599091FCFB200217E1E0AE054186478555C24022543144C0419D6
:405640002560001D891C89B2B142F2DBFC0710D01C78515C24020E4A0C4381180C609C785D782102001D294384182160001DD9780BE059781A7809021143054A84182160B9
:40568000D978001D9B780902194380180160F0BD00103C4038B509480024447012F0FEFA69460C704C70684612F062FE012069464870684612F05CFE002038BD6F010008AA
:4056C00010B501F08BF90A480078012805D1FCF73DFD012809D012F02FFF05490020891E0870062000F02CF910BD12F00FFFF4E76F01000810B50B46062816D006DC01281B
:405700000FD0032801D1FFF7C5FF10BD0B2811D0112813D01228F8D11146184612F018FA10BD0020FFF714FF10BD1146184612F09DFD10BD04480078107010BD1146184663
:4057400012F016FA10BD000071010008F8B5184D184E28688019846AE00719D001F07AF90127012811D1002001F046FA052000F0E7F81149FF204870881C4078002804D10B
:4057800028688019416B39434163286880198762E0050CD50848801C0078052802D1042000F0CEF8FF202968013089198862F8BD6801000840F03D406D01000805490028B2
:4057C00005D005494A784270097801700021084670470000010016007101000838B504000C4816D06178012913D801F0F7F8607812F074FD207000280AD1694608706846BD
:4058000000F090F869460878012801D104202070002038BD0100160010B5094900280CD00278082A09D24278042A06D205494A700078087012F032FA0021084610BD000022
:40584000010016007101000810B504460448032C05D801F0C3F8204612F04CFD002010BDFFFF160010B50400054808D06178012905D801F0B3F8204612F07AFD002010BD9C
:405880000100160010B5FCF761FC0122084992040028084B086804D0C018016A1143016210BDC018016A9143016212F04FF910BD6801000880F03D400949087805280ED15F
:4058C0004A780848084900684018002A03D1416B490849004163C16A01221143C16270476F0100086801000840F03D4001480078704700006F01000802484078022800D09F
:40590000012070476D010008012807D0032807D0042803D0052803D0FF207047012070470220704710B5040002D012F065F9207010BD000001494870704700006F01000808
:4059400010B50446FCF7EAFF062C01D9FF2C01D102480470FCF7CCFF10BD00006F01000801494870704700006D010008002070471CB5002469460C70022001902346054AE1
:40598000054800F0F5F904480068401C00D1034C20461CBDE559001074010008FFFF00003EB50F4A01460D4800230124126800290BD0012908D1684600930481438169469A
:4059C000104600F0D0F980B23EBD68460093048143816946104600F0C1F9F4E7FFFF00007401000810B50089002100280BD0012802D0052807D103E000200DF061FD02E02A
:405A0000084600F0F5F8002010BD000010B50248006800F041FC10BD74010008FFB581B01F00154606463CD000F0D8FFFCF776FF2F49304B4878401CC0B2044606E02201A6
:405A4000D218127A202A2AD0641CE4B2202CF6D3002406E02201D218127A202A1FD0641CE4B28442F6D32024202C1AD03470029821490202120A200602432001C618726042
:405A80001F501B4869180078009120280CD0FFF7CBFC0746BD4223D3281AF0601BE04C70E2E7164805B0F0BD13484042854207D9FFF7F6FC014611488142F3D0009807E084
:405AC000A8B2FFF7EDFC01460C488142EAD00020F060074804703472FCF70AFF0020E1E7FFF7EEFC781B012100F01EF9DCE7000078010008F01E0008C063FFFFFFFF000083
:405B000070B5074CA5780E2D07D2FFF787FF002802D1A178491CA17070BD024870BD000078010008FFFF0000F8B520280BD2234D07017C19207A202805D000F04FFFE06877
:405B4000002802D031E00120F8BDFCF7E7FEFFF76BFC012100F0E8F80020184EE060FFF7AFFCFCF7C5FE00F0ADF80546202819D0FCF7D4FE280186191148F168814205D90F
:405B80000646FFF78DFC0021304604E088B2FFF787FC0021F06800F0C7F8FCF7A9FE0948057002E00749202008702020034920720020C8516060E060F8BD0000F01E000858
:405BC000409C00007801000810B5074CA178002908D0FFF7A9FF002802D1A078401EA070002010BD014810BD78010008FFFF0000F0B500258BB02E46089500F0EFFE00235F
:405C00006A4618462C49040161180C7A202C02D0C96800291DD000211154401CC0B22028F0D300240993099800280FD06846005D00283BD020482101081806684168089119
:405C400000210160202241600272C160002D04D028E0012111540B46DFE700F033F80546202819D0144829010818C7681348874207D90021074600F057F8FCF74FFE3846A8
:405C800006E00021384600F04FF8FCF747FEB8B2FFF706FCFCF72CFE094805700998002808D00125002E01D00898B047641CE4B2202CB8D30BB0F0BDF01E0008409C000007
:405CC0007801000830B50023DB432020094C00210A011219157A202D06D0D268002A03D09A4201D808461346491CC9B22029EFD330BD0000F01E000830B50020084C05463A
:405D00002023020111190B72A550401C4D60C0B2CD602028F5D303480370457030BD0000F01E00087801000830B50B4D00231A015219147A202C0AD0D468002901D02418C6
:405D400004E0844201D9241A00E00024D4605B1CDBB2202BEBD330BDF01E000810B50EC900F0B2FA10BD10B50EC900F0E9FA10BD38B50024E443054600290AD0052000909D
:405D80004B68097804A000F043FA2860401C00D00024204638BD00007461736B000000000EB5002005216A46009011815081034869460068FFF7D7FF0EBD000074010008D6
:405DC00010B51D481D4C0178491E0170FF206070FCF7C8FD002825D0FCF72AFC01460020FCF7CAFDFCF7D0FD411C14DB80B2012811D862881248824208D0124B0021601C97
:405E0000FFF77EFE002802D10220207010BD0D2010F086FE10BDFF20F530FCF765FD00F065F810BD0548084B02220021401CFFF767FE0028EBD110BD7A0100087C010008F0
:405E4000FFFF0000855E0010C15D001010B503480078042801D100F049F810BD7C01000801480078704700007C010008044800210170FF214170FF21F53141807047000090
:405E80007C01000806490878401E087005480178012901D003210170FF214170704700007A0100087C01000801494880704700007C01000801490870704700007C01000886
:405EC00010B5054C6078FF2803D000F007F8FF2060700020207010BD7C01000810B502484078FFF771FE10BD7C01000810B5FF22043280210820FCF743FD0B4C6078FF28EE
:405F000001D0FFF7EBFF0848084B04220021401CFFF7F6FD002803D00D2010F001FE10BD0120207010BD00007C010008C15D0010C0080A21484380B20849C82801D2084848
:405F400009E002461923C83A5B019A4201D2400801E0FF20F5304880704700007C010008FFFF000010B50F4A002313600E4A13600E4B18600E4801600E49012008600E49FA
:405F80000860282090600E490C4808600D49143008603C38506000F0C5F800F0F5F9002010BD00009801000880010008AC010008B00100089C0100088C010008182100087D
:405FC00090010008A401000800207047014610B50020002910D0094B1A689C685118A14209D25868196080188A0704D08A07920F891A091D196010BD002010BD8001000861
:40600000F8B50024164E671E321F3D463168136806E01422624310328A58521C1BD0641C9C42F6D36A1C14D02C461422544322460C3288500C214843FFF7C8FF31680028FC
:4060400008510AD031680020103408517068401C70602846F8BD2546E4E73846F8BD000090010008F3B50026F64381B000281FDB2149096888421BD80299002918D01E4F63
:40608000142204463F1D54432546396810354859401C0DD0FAF72FFAFCF740FC38682F1F4159C359994205DBFAF721FAFCF720FC3046FEBD214608310091465801590C20F9
:4060C000704308180C220299FEF713FA0A48761C001D0068C159B14200D100260649009A091D865008684159491C4151FAF7FFF9FCF7FEFB0020FEBD8C010008002803DB64
:4061000007490968884202D90020C043704704491422091D0968504310300858704700008C010008F0B500200D4A451E0346171F50600FE014260146714314680E1DA35119
:406140000C461668083433511668083435511468401C635039688842ECD30020F0BD000090010008F3B50026F64381B0002845DB26490968884241D8029900293ED0234FAD
:40618000142204463F1D54432546396810354859401C33D0FAF7AFF9FCF7C0FB3868415900292DD0211D009146580C21005971430F46C1190C220298FEF79BF913480021D1
:4061C000001D0068761C00590C34C0190160416081600E48001D00680159B14200D100260A49009A091D865008684159491E4151FAF77DF9FCF77CFB0020FEBD3046FEBD4B
:40620000FAF775F9FCF774FBF8E700008C010008FEB504460D4600201E49089E0860471E009001900290002C11D0486885420ED2002A0CD0002E0AD0642E08D808460C30BE
:4062400001681C2068430C18207A002801D03846FEBD0120226020721846FFF7D1FE6060401C13D06681A6810A4827610C3067610179A94200D205710021684601810A464D
:406280002846029B00F05CF82846FEBD00202072DDE700009801000810B5002810DB0949496888420CD807491C220C310968504308184068FFF722FF002801D0002010BD32
:4062C000012010BD9801000838B50124009400F03DF838BDFEB50027184EFF433D4600240EE01C20316860430818017A002906D04068FFF703FF002801D0254603E0641CBF
:406300003079A042EDDA681C16D01C2130684D434419FAF7F0F8FCF701FB69466068FFF721FF0546FAF7E3F8FCF7E2FA002DD5D1216868468847D1E7FEBD0000A4010008AB
:4063400038B50024009400F001F838BD1FB500220C49541E0A60002811DB496888420ED808491C220C31096850430818406801A9FFF778FE401C02D0002004B010BD20461B
:40638000FBE7000098010008F0B50021114A4D1E174611710C3F0B46BD6016E008461C2460431668041D355114680646235014680836A3551468361DA353044616680A3432
:4063C000335318301468491C255078688142E5D30020F0BDA401000838B500210091002811DB0F49097888420DDA0D4D04010C3529680859002807D0201D0818694600F0DA
:4064000073F9002801D0002038BDFCF787FA28680F34015D491E0155FCF76AFA009838BDB4010008F7B582B0002502986E1E06602F48D21C024017462E4A2C4610460C38C8
:406440000178106805E02301C358002B0FD0641CE4B28C42F7D3711C29D03401211D40180191039900F02EF9002820D101E02646F1E72048016820460C300F521D480399A6
:40648000026820460E3011541A480399026820460F30115403993846484300F0A1F8154900280968085102D00024009011E001251AE01048016801980818009900F02FF9B7
:4064C000002801D0012502E00098C0190090641CE4B203988442ECD3002D05D10298054906600879401C0871284605B0F0BD0000FCFF0000C0010008F8B50D4600216A4658
:406500008C461180002839DB23490978884235DA214B04010C3319680A59002A2ED020460C300B5A801C0E5C184670438018954224D3854222D2002006E007465F43BF182F
:40654000AF4206D0401CC0B2B042F6D36046002814D0114E271DC8190C366A46294600F008F900280AD168460088012808D030682946C01900F0D3F8002803D00120F8BD9D
:406580000020F8BDFCF7CAF930680F34015D491C0155FCF7ADF9F3E7B4010008F8B50F46002400F031F8002817D10C4900220B460C334A600EE021011D680E466A501D6804
:4065C0000C36AA53B61C1D680F31AA551D68641C6A54E4B2BC42EED31A71F8BDB401000800280BD0C01C074A81085068890053884118994203D8936851601818704700201A
:4066000070470000B4010008F8B5064600200F4D009029700C0121466846FEF763FE00280CD129460C3100980860301B001F84B221466846FEF756FE002801D00448F8BD27
:406640006C800098A8600020F8BD0000B4010008FFFF0000F8B5002827DB19490978884223DA174C05010C342168485900281CD028460C30085A009028460E300E5C401C88
:406680000E5420682F1DC01900F064F800280CD12068002445590EE0094829460C300068C01900F03CF8002801D00120F8BD00982D18641CE4B2B442EED30020F8BD000093
:4066C000B401000830B50D4604000BD0A800FFF787FF6060002805D000202570C0436080002030BD012030BD70B50D46040005D0002D03D00220205E002801DA012070BDF0
:40670000FCF70CF90221615E60688900405828606088401E6080FCF7EBF8002070BD70B50D46040007D0002D05D002212078615E401E814201DB012070BDFCF7EFF86088E9
:40674000401C00B26080616880000D50FCF7D0F8002070BD10B5040009D0227800216068FDF7D0FE0020C0436080002010BD012010BDF0B500231D46002802D00224045F0A
:406780000AE00120F0BD46689F00F6598E4201D1012503E05B1CDBB29C42F4DA15700020F0BD000001B503480122436811466846984708BD4821000810B50021052010F0E4
:4067C0005DFA10BD70B50546FCF7A8F80D4C218A002914D0638A8B4209D100206082208201202070A3682A46E068984707E0E0680121C018F9F772FE608A401C6082FCF732
:4068000077F870BD4821000810B50023084A00280BD0002909D001241470141D0BC413825382F9F74FFE012010BD1370F5E700004821000807B509480378012B01D0002059
:406840000EBD02230370C16002820021418201216846F9F743FE01200EBD00004821000804480021C160018241820121017008467047000048210008FEB5114C114F089EDB
:40688000099D00280BD0002909D0002A07D0002E05D0002D03D0002B01D01B2B01D93C460CE00096019508F03FFC042802D0052803D003E0034C133400E000242046FEBDA4
:4068C000FFFF160001001600FEB50E4C0E4F089E099D00280BD0002909D0002A07D0002D05D0002E03D0002B01D01B2B01D93C4606E00096019508F060FC042800D1002489
:406900002046FEBDFFFF160001001600F0B589B015460F460646144C00F060F8002E20D0002F1ED0002D1CD0102239466846FDF7E0FD1022314604A8FDF7DBFD1021684605
:4069400010F0DAFB102104A810F0D6FB2B46102204A9684608F000FC1021284610F0CCFB0024204609B0F0BD0100160010B50FF04FFD0AF0A7FC0EF089FC10BD10B50FF074
:4069800049FE0BF0DBFC10BD10B508F007FE0FF097FB10BD10B50DF089F80FF049FD0AF02BFD0EF07DFC10BD10B50DF07FF80FF043FE0BF0D1FC10BD10B50DF077F808F0AC
:4069C00019FE0FF08DFB10BD10B5022801D100F089FAFEF78BFFFEF797FF10BD10B500F07DFBFEF783FFFEF78FFF10BD10B5FEF77DFF012801D1FEF77FFF10BD10B501886E
:406A00008A0703D08A07920F891A091D0379827B1031534359438BB241888C0703D08C07A40F091B091D447910316143C918438989B2DC0703D092015118103189B29A07B6
:406A400005D5C0794422504340180C3081B2084610BD000001488078704700009C2100080100034803D00348008808800020704701001600C801000810B504000C4815D030
:406A8000FEF74EFC817B44238A01C179594351181C312180827B9B005A43891880312180407AC000083008182080002010BD00000100160000B501464A7809781202114337
:406AC000124A11488BB091421BD111490978002917D1FEF725FC0146102206A8FDF709FDFEF7FCFB01680191808869468881FFF775FF6846FEF766FB002802D1684600F016
:406B000009F80BB000BD000002001600030C00006401000870B5184D00280BD0FEF700FC0446807A800701D4FFF72EFFA07AC00703D004E01048801E70BDFFF717FFA07A26
:406B4000000701D4FFF71AFF204610F0EFFB002810D110F071FB00280CD100F0D1FD002808D110F05DF8002804D10DF05DFB002800D10025284670BD0300160010B5064C11
:406B800010F066FC002804D110F094FC002800D10024204610BD0000FFFF160070B5044640890D46002681070BD0C00709D020881B38E12804D26088FB2801D81B2800D2FB
:406BC0000B4E2046FFF71AFF2880617A5322C900083140182880A17BD20051430922D20189184018034928800880304670BD000001001600C8010008014988707047000054
:406C00009C2100080021002807D04268002A04D0034A80891288904200D2024908467047C80100080100160070B50546FEF75EFE074CFF280AD0FEF7E9FE012806D10020EA
:406C4000012D04D103494978002900D1204670BD020016005C21000870B5054613480E460078A84201D8002404E01148016AD02068430C18002C13D0228B50060AD5D2072B
:406C8000D20FA078022106F05DFA208B40218843208305E0D207D20FA078012106F052FA3146284604F050FC70BD0000CC1E00085C210008F8B50546002004460B4E0090C2
:406CC0000FE022466946284601F008FD0098002801D010F001FBA878214603F0A0FF641CE4B2B08AA042ECD8F8BD0000F0210008FFB50446C034A068002103468C468E46B6
:406D00002033997887B0002915D05E78F200511D06920591415C0091911D0291415CD51D0495475D151D0395455D82580192109A002A07D03CE00A99FF2008700899002070
:406D400008605EE0002908D0DA78002A05D1002D03D0491E029AC9B281540098854227D3002925D1019810F0B7FAA268059900235354A26802995354A26804995354A268EF
:406D800003995354A26806995350A06820304178491C8907890F4170A16820318878401E0006000E887027D02148864601208446A0686346014620318A78002B0AD04E7804
:406DC000F1004B1DC35C0093CB1DC75C0B1DC55C40580190002A28D0009885421FD20199401B4A190899C0B20A60B8420CD2099A2918C9B210700BE00A99FF200870089947
:406E00000B600B480BB0F0BDE819C1B2099807700A980670F000A268001D115405E00A98FF2101700899002008607046EAE70000FFFF0000064A02235188891C89B2518047
:406E4000814201D8102900D95380508870470000CC0100080148407870470000CC010008F8B517460D460446FBF758FDC034A16820318878042827D0E8780202A87810436A
:406E80000A78521C9207920F0A70A16820318A78521C8A70A1682022525CD6008D51A168721D8854A2680021331DD154F21DA168B8428F540CD33946FBF72AFEC0B20029A1
:406EC00007D0401CC0B204E0FBF712FD0448F8BD0120A168B61D8855FBF70AFD0020F8BDFFFF0000FEB575480478FEF7FFFC012831D1FBF72DFD724D032831D1A87B012806
:406F000029D800F033FF012803D100F003FF012808D0A87B002818D06849002020390A782B6A10E0A87B0028E2D10EE0824201D8002102E0D021414359188031C97801294C
:406F400009D0401CC0B28242F0D8FEF789FF032802D3FEF7CBFFAFE0FEF782FF0128FAD05848007800285FD004F052F900285BD00CF0C8F9002857D0FEF748FD002853D018
:406F800004F08CF800284FD111F084F801284BD06878C00703D000F0F1FE012844D0287E002841D16878484F002803D1FEF794FA002860D06878000706D504F06FF8064623
:406FC00000F0E4F8304377D16A7801A9684608F03DF90646B4426FD83C48864206D3FEF77BFA002868D06878002865D104F010F9002861D03648006A80B2029068784007C3
:4070000003D56846008805F02BFA03F007FE6846008803F041FE03F027FF2E490988814203D10120FEF78CFC46E0FBF7D3FC054603F01AFF69468988401A301AA0420ADB09
:407040000CF060F9012806D1FEF7E0FC012802D1387003F09BFE2846FBF7C0FC3878012803D01B4902980862DBE70120FEF762FC00F0E4FD1BE004F0CBF800281CD0102489
:4070800003F0F2FE214603F017FD03F005FEFEF7BDFC002810D00120387003F077FE0020FEF748FC00F0CAFD38780128B9D1FEF7E9FB00203870FEBD0748FEBDEC1E0008B7
:4070C0005C2100086D010008CC010008FF7F000040123C40E6010008FFFF000010B517480078002825D01648046AFEF7FFFB032821D004281FD005281AD103F061FE00F082
:40710000B1FD03F0EFFE8007800F022810D10D48418800290CD08321095D002908D101210170207E0221C207D20FA07806F00AF810BD0024D9E700F095FD10BDCC1E000871
:407140005C210008DC010008F8B50646002406F0DBF90546304606F00FFA03460A480021868A0DE001228A401046174628401F40002803D0002F01D1224394B2491CC9B257
:407180008E42EFD82046F8BDF0210008F8B500252C460A4F0A4E0CE0D020396A604308180079002803D02046FFF7CEFF0543641CE4B23078A042EFD82846F8BD5C210008D9
:4071C000CC1E000808B50020694648706846FEF705FB69460020085608BD70B50D4601F0BBFF04000BD02079002808D0FFF7F6FBE178A0782A4605F0E9FA002070BD02201A
:4072000070BD00000148007F70470000CC1E00088030C078002800D00120704700B500F001F800BD10B5094BD0225043196A85300A5C074C521CD2B20A54648A196AA24269
:4072400001D300220A54196A085C10BD5C210008F021000870B50D4601F07EFF04000BD002F0F3FD002807D021462A460A310620FEF740FA002070BD022070BD70B50D4647
:4072800001F06AFF040007D002F0DFFD002803D0207B2870002070BD022070BDF8B50F4606460146384606F025F9044614480078B04201D8002504E01248016AD020704380
:4072C0000D18002D12D0284601F084FF032C0ED0002C0BD000220121304602F091F9284603F0C8FA0221284603F0DEFAF8BD3146384606F0C7F90146304606F05FFDEEE76B
:40730000CC1E00085C210008F7B52B4F0446F8682A4D0078297F884201D30720FEBD07F0CDFE002801D00C20FEBD2078611C05F06DFCFF2822D1F868297F007888421DD287
:4073400005F0B6FC0646FF2816D02178621C03F083FB1B4821780068426B601C904705462078611C02F0B2FEFF2802D0314602F033FE002D04D01CE007251AE01F2518E02D
:407380000298002815D1F86841680078C200101A401C08180622611CFDF7ABF8F868217842680078C300181A1154F8680178491C01702846FEBD0000CC010008CC1E0008EC
:4073C000EC01000810B507F079FE002801D00C2010BD05F0EBFB05480068006B804702F011FE002000F0A2F9002010BDEC01000870B50D46044610210FF07EFE102160180C
:4074000006460FF079FE334610221946204607F0A3FE102130460FF06FFE0220287020460CF028FE70BD0000F8B504464078217802028006870FE0781143A67809050002BE
:40744000090D0643084601F087FE00210546F2B2002816D0002C10D0022F0ED0032F0CD0002A0AD00279092A07D0002A05D0134A8223527D1B5C9A4207D8288900210CF049
:40748000E8FC20460FF028FF0D49002914D10D48224600682946436930469847084988420AD1284680308178F2B2491C8170FF232146284600F02FFAF8BD0000AC1E0008C5
:4074C000FFFF0000FC01000800207047F8B5434D0646E8680078002805D007F0EFFD002803D00C20F8BD0220F8BD3078711C05F08DFB0446FF280ED005F024FA3848317891
:407500000068826B701C90470746204602F0A0FD002F02D060E01F275EE0E968087800285AD0421EA24246D0C200101A4968821FC01F8A18085C114602F0C8FDFF2802D0E5
:40754000214602F049FDE86842680078C100081A801F1118E000061B701C009010180622FCF7C7FFE86842680078C100081AC01F115C9155E868426800981218204603F08D
:407580006BFAE8680078401EC0B205F0DBF9E86841680078C200101A801F081806220021FCF7B0FFE868002142680078C300181AC01F11540CE04868E1000C1B611C4018B9
:4075C00006220021FCF79EFFE968002049680855E8680178491E01703846F8BDCC010008EC01000810B500F05BFA0CF01DFE002010BD000010B5014605220A48FCF779FF97
:407600000849052208463438FCF773FF01F000F9044880224438C17B1143C17300F088FA10BD0000A021000810B5044600786178E2780843A1781143084321790843617917
:40764000084305D007F024FD002803D00C2010BD122010BD204605F0D1FB002010BD000010B50078002105F02FF8024902200876002010BD5C21000810B502788178407804
:40768000002305F037F8024901200876002010BD5C21000810B50C4605F08AFC064A117E012900D1002000211176022121700CF03DFA002010BD00005C210008024A936853
:4076C0000360D06808607047CC01000870B505460024800708D50948807A400604D500F06FFA002800D10224680705D500F086FA002801D104200443204670BDAC1E00089E
:4077000010B5FBF765F905F041FF074807F034FE012000F033F8040001D105F01DF909F041FD204610BD0000B81E000870B50024104D114E002811D0304608210C30FDF745
:40774000D1FD0404240C13D1287FC100091AF068001DFDF7C7FD0404240C09D1F06800210170297F4068CA00521A0021FCF7CAFE204670BDCC1E0008CC010008F1B54D4874
:407780009F22817A82B0114000248172FDF7C8FD0746807AC00706D0474802990068C268384690470446B87A800708D5002C7CD1424802990068C26A384690470446002CE8
:4077C00073D1787A102809D83A492031009108770298FFF7ABFF040002D066E0384C64E038480025457045734571C5750576457645758570C5708571C573042144300173E1
:407800001F21C1809B21417245732E4EFF2020363073757300F09CFB07F0CEF802F0F6FA30462030C5700298012814D100980178D02041433046FDF755FD0004000C08D131
:407840000098007841012048FDF74CFD0404240C01D01B48FEBD002507E02846029902F04FFA040005D16D1CEDB200980078A842F3D8144900204431C87288724439887335
:40788000401E4883FF200877B87A0121000700280848C27A01DA0A4301E052085200C272032030757075F175B1750849002008702046FEBDAC1E0008FC010008EC010008FA
:4078C000FFFF00005C210008D00100087A01000870B505460E46084605F016FE0446304605F04AFE0121A9400A46224001400A4301D0012070BD002070BD10B5044608467D
:4079000005F03AFE0121A140014201D0012010BD002010BD7047FEB51C4616460F46054602F0A8FFA878FFF779FC02460190334639460094284600F00DF8002808D1A87853
:407940000199FFF789F9FF2C02D138460FF0C4FCFEBD0000FFB50D4685B004468178164610460E9F05F07AFE00280ED0FF2F27D0C8200159F800031D0A58C01DCB5C085C65
:407980005278834216D9012716E02648D022016AA078504385300A5C002A01D1224A927C521E0A54FF2F02D128460FF095FC012009B0F0BD9006870F69460898088108E0E4
:4079C0006878A9788006870FE8780002014368460181204602F044FA0390002806D032462946204600F0C3FD0398E1E7384600F0F4FE074604A800903B4602AA21460196F9
:407A0000284600F02FFC094BB200A178D218FF208854684600893B46C2B2A078314605F047FBE1E75C210008F0210008C5210008F8B518480026009027E000253046FFF718
:407A400083FB07001ED01448D022016A3046504385300C5C12E0601CFBF75AF8CCB23846E040C007C00F07D02146304603F0CCF821463046FFF712FC6D1CEDB20748818A82
:407A8000A942E8D8761C0098F6B20078B042D4D8F8BD0000CC1E00085C210008F021000810B5FEF729F90020FFF768FE04F054FFFAF74EFF032803D1FEF7D8F9FEF716FA47
:407AC0000FF0C6FC09F06EFB002010BDF8B5002400F04CF90125012800D1012406F0F0FE012801D1022004430F4E1049002004270A78336A0FE0D021414359180979002943
:407B000007D001290BD002290BD0082181402143CCB2401CC0B28242EDD87470F8BD2C43F7E73C43F5E700005C210008CC1E0008F8B5FF2069461E4E0870F07B0024C009D1
:407B400035D01C4D15E0D020316A60430F188320C05D01280BD102236A46FF21384602F0DAF901280ED04420C05D01280AD0641CE4B22878A042E6D8F07B4006400EF0730D
:407B8000002410E04520C05D00280FD10121384600F0D4FC0AE0D020316A6043081800F092FC641CE4B22878A042F4D80020F8BD5C210008CC1E000810B5FFF787FF10BD53
:407BC000F8B500252C460B4E0EE049682C20604308180122694607F005FE0006000E01D0054D05E0641CE4B2B1680878A042ECD82846F8BDCC010008FFFF0000F8B5002535
:407C00002C460C4E0FE04068E100091B401801226946FFF779FB69460870002801D0064D05E0641CE4B2F0680178A142EBD82846F8BD0000CC010008FFFF000010B5084C54
:407C4000FDF754FE052809D02078012806D1FDF74DFE052802D020780028F1D110BD0000CC01000810B5FDF741FE012803D0FDF73DFE0228F7D110BDF8B504468079254681
:407C8000603517460E46002806D0687FFDF79CFF0020A071FF206877A671002E09D0687FFF2806D12046A178024B3A467D30FDF727FFF8BD7992001010B5827904468A431E
:407CC00082716034607FFF2803D0FDF77DFFFF20607710BD30B50D4C022061690C4B8AB29978002901D0022906D11D785B78EB18282B01D9032002E0032900D10120510516
:407D0000490DC0020143616130BD0000C0113C40BA21000800B500F031F8002807D0012805D0032801D0042801D0002000BD012000BD000002460448806901040020C90C12
:407D4000114200D00120704700103C40014600B50020C90701D000F009F800BD014600B50020C90701D000F001F800BD0248006AC005C00F7047000000103C4004488069EE
:407D800080B2410501D5042070474007800F704700103C4038B50446000610D5FFF7EEFF01280CD1684603F033F86846007800F0E3FB012002F0E8FD0220FFF7FDFE034860
:407DC000006801692046884738BD0000EC01000810B5034A0178117004F084FF002010BDBA21000870B50446FFF7C0FF002801D00C2070BDA27B01212848002A827801D025
:407E00000A4301E05208520082706279012A0AD0C17849084900C1702079214E012806D0042804D00AE0C2780A43C270F4E70622E11D301DFCF75DFBA079B072194D28681E
:407E40000168204688472079012808D06188208806F0A2FB2080207904280CD013E02868C168E01D88470021E01D04F0A3FF0120C002208007E02868C168E01D8847002129
:407E8000E01D04F097FF2079B070204604F038FFB07A05F0EBF8002070BD00005C210008BA210008EC01000808B50178FFF75EFF814201D10C2008BD002927D00720694640
:407EC0000870FFF75BFF012801D0042808D11A49887A091D02F0FAF8FF2801D00B2008BDFFF718FF01280BD10121684600F092F8012801D0092008BD6846007804F09EF870
:407F0000FFF7E8FE04F030FF012011E0FFF702FF012806D1684602F07BFF6846007800F087FB04F017FFFFF721FF0028FBD10220FFF742FE002008BDBA21000810B5034A41
:407F40000178517004F0EEFF002010BDBA21000838B5002168460FF035F9002801D01F2038BD01210098C90201804180002505714571857107214173857304F0C1FE009CCF
:407F8000202200212046FCF7BDFA25702A460021601CFCF7B7FA204604F0A4FE204604F0C1FF00980FF098F90B2200210248FCF7A9FA002038BD0000BA21000810B5044695
:407FC0000748844209D8204601F0C6F8002804D00089A04201D1012010BD002010BD0000FF0E0000074A9179491C8906890E917138220A4092014907090E114308430249E5
:40800000084070475C210008FF0E0000C006C00E70470000F3B5174B0E4618781649401C164AC4B281B000200978126A10E0A14200D80024A14201D8002502E0D025654368
:4080400055192F79002F07D0401C641CC0B2E4B28142ECD80020FEBD1C700021204601F04FFE2E712046FFF7BDFF2881019804700120FEBDE0010008CC1E00085C210008A4
:4080800010B507F0D9F80222002100F003F804F08BFB10BD10B5094B40074907000F090F185A595A40185043C0086421FAF730FD002800D1012080B210BD0000C846001033
:4080C000F7B54120405C88B015460C46002802D02878042802D200200BB0F0BD6946087200262046FFF794F8012800D00126204603A93C300191009023460327217F38333B
:408100003246606A07F058F902A8089900900B46019120463A4603A9283006F0E5FF06006846007A287002D1204600F0C1FA204601F0D2FD3046CFE7FFB587B00C460546AF
:408140001078694608724120005D1746002829D000262046FFF75CF8012800D00126204603A93C30019100902346217F38333246606A07F021F902A80090291D019120463D
:408180002B1D03A928300A9A06F0AEFF05006846007A388005D1204601F09EFD204600F087FA28460BB0F0BDFFB50C464020415C25468035107889B0164600290BD06946DF
:4081C0000873C0B2002814D000272046FFF720F8012810D010E0002100910190A078099B129A0C9903F038F80120E87100200DB0F0BD1F20FBE7012703200890204604A964
:408200003C30019100902346617F38333A46206A07F0D2F8A0780C9902F066FF0F4A0999801803AA01900B4600920291204604A92830089A06F0A5FF02466846007B30701E
:408240000120E8710C99064DA3788900491912985854204601F04AFD1046C8E700103C40C5210008FFB506464020405C89B015460C46002810D0084601F0F2FD01280BD0F7
:40828000288869468883002813D000272046FEF7BFFF01280FD00FE02878002100910190A078331DFF22139902F0D6FF00200DB0F0BD0220FBE70127204603A93C3001916D
:4082C00000902346617F38333A46206A07F074F8A078139902F008FF00900C4A009912988918029007AA009201912046331D03A928300C9A06F045FF02466846808B28809C
:40830000204601F0F3FC1046D1E7000000103C4070B5054680350446E9784030002908D0012905D10179042902D14078002808D070BD01790C29F8D00D29F9D1287800287E
:40834000F6D0A078FEF700FF2979C840C007C00FEED0A07802F058FC2979A078FEF79EFF70BD000010B518490446484028D0002101231A468A40904221D0491C2029F8D3BB
:4083800000212046C840C243520618D0400616D0491C1929F5D3A0B2210C020AC3B2884201D193420BD01F21204600F01BFA182805D8A00E062100F015FA022801D2002049
:4083C00010BD012010BD0000D6BE898E70B50D460446FEF71DFF01280AD0E87AA97A00020143A07802F0E0FE012808D0002070BD00222421204606F03CF8242070BD28218F
:408400005A200155204600F037FD282070BD000008490978814201D8002004E00649D022096A504308188030C079012800D0002070470000CC1E00085C210008014610B558
:40844000002049070FD5094A0021146A084A137807E0D0224A43A2181279022A04D0491CC9B28B42F5D810BD012010BD5C210008CC1E0008014610B5002049070FD5094ACF
:408480000021146A084A137807E0D0224A43A2181279022A04D0491CC9B28B42F5D810BD012010BD5C210008CC1E000810B5044601468034E06A002804D089780EF02AFF71
:4084C0000020E06210BD38B50546002000902846FEF79EFE01282BD1284601F0B6FC002826D028792C46C01E4034030002F0FCF90705051B1B051B201B00284601F0B6FC10
:40850000012810D0284605F09BF900280BD0284605F0A0F9012806D0A97868460EF068FE002803D105E06079002801D10120607138BD2846009905F0EDFD38BD4030417172
:40854000704740308171704770B50546403528790C46052904D0002C05D1801E022802D8022006F003F82C7170BD017170479200101880304161704770B53C2502F0AAF8CA
:40858000040004D020460021473002F007FD0023FF222946204600F05BFD002C02D0A07802F00EF870BD000010B50B490978814201D8002404E00949D022096A50430C18A7
:4085C00020217F200155002C05D020890BF0B4FC204600F06DF810BDCC1E00085C21000870B505460F480078A84201D8002404E00D48016AD02068430C18002C11D02079C2
:4086000007280ED1204600F0BAF8204605F0E0FF0A21484302462046044B29467F30FDF76FFA70BDCC1E00085C2100089DA0001010B502F04FF8002802D0807801F0C0FF2B
:4086400010BD38B5044600206946087001236A46FF21204601F018FC054601236A46FF21204601F058FC2843012812D0214640318A79002A02D1087901280CD048790128A8
:408680000DD0022A0FD0E079400602D5204605F04BFF002038BD204601F0C2FEF9E72046FFF711FFF5E7204600F028F8F1E7000010B50446408A00280DD00748F521807AD8
:4086C0000840C00607D5204605F082FF82B2618AA07803F0BFFF10BDAC1E000810B50023054C0B60A48A944205D992001018803042690A60436110BDF0210008FEB506469F
:40870000002000900190A8208559B17868460EF06FFD002801D00720FEBD0098374660370290344678884034608238882082E08BA082304605F035FFA88CE18B884207D158
:40874000288A3988884203D1688A7988884203D0F07920210843F071688A7880288A3880A88CE083FEF766FBA083E08BFEF772FBE0763046029905F009FD0198FEBD38B52E
:40878000044600200090A07900280FD14420005D052801D00E2809D1A17868460EF028FD002803D12046009905F034FE38BD10B501F054FE002010BD70B50C4605460146D0
:4087C000204605F025F8002805D0A17828460EF095FD232070BD0D2070BD002800D102207047704770B500231A46491E0CE00446D440E507ED0F541C0646E640F407E40F89
:40880000A54200D05B1C521C8A42F0D3D8B270BD30B50021124C0A46A05C002308E0C50701D0491CC9B201290AD840085B1CDBB20028F4D1012903D8521CD2B2052AEBD3F5
:4088400002290BD207488118C87B0122082B03D29A400243D0B200E01043C87330BD0000A02100085C2100087FB504468034E16A05460E46183108226846FBF73AFE314672
:408880002031082202A8FBF734FE102168460EF033FCE06A102108300EF02EFCE06A2B46083028331022694606F056FC7FBD10B504460821FFF700FA10212046FFF7FCF92B
:4088C0002079052822D0062820D008281DD1218900200BF07DFA072020712046FEF798FC012819D00E212046FFF72EFE002180200155204601F06EFE2046FFF7D7FD204668
:40890000FFF7D6FE2046FFF79CFE10BD2089012200210BF041FADEE70521E4E7FFB581B01F4604460821FFF7C7F910212046FFF7C3F92079082803D0092804D0042503E068
:408940000425012601E009250026204601F074FA00212046FFF7F8FD25712046FFF7A6FD0398002E02D0012808D00BE001280AD12089002202990BF00FFA04E02189029889
:408980000BF026FA0127002180200155012F07D0204601F01FFE2046FFF753FE05B0F0BD5A2102980855204605F090FD054605480121428A2046FFF75FF9002DEED109202A
:4089C0002071EBE7AC1E000870B50C460546FEF71FFC012809D108212846FFF76DF90023012221462846FFF799FF70BD10B5044601F022FA2046FFF759FD00212046FFF759
:408A0000A3FD10BD70B505461A24FEF701FC012809D108212846FFF74FF90023012221462846FFF77BFF70BD38B5044600200090A17868460EF0DCFB002801D00D2038BDFB
:408A40002046009D01F0A4FB2946204605F05CFC05480821428A2046FFF70EF906212046FFF772FD002038BDAC1E0008F8B50446002000900E46A17868460EF0B9FB002827
:408A800001D00D20F8BD204604213830009D0EF010F9AC200059082118300EF00AF9012E02D1204601F074FB2946204605F0B0FB05480821428A2046FFF7DEF8022120469B
:408AC000FFF742FD0020F8BDAC1E000810B50446FFF7CAFE03212046FFF736FD204601F0C9FE10BD10B50021FFF7C0FF10BD000038B5044600200090A17868460EF078FBA8
:408B0000002811D12046009A01F096F91146204605F005FC05480821428A2046FFF7ACF807212046FFF710FD38BD0000AC1E000838B5044600200090A17868460EF058FB5F
:408B4000002810D12046009905F0B5FC06480821428A2046FFF790F804212046FFF7F4FC204601F087FE38BDAC1E000810B5FFF79EFE10BDF8B50446002000900E46A178D4
:408B800068460EF035FB002801D00D20F8BDAC20005908212030009D0EF08BF8204604213C300EF086F8002E02D1204601F0F0FA2946204605F053FB0E480821428A2046C4
:408BC000FFF75AF8204601F08AFD00280AD0204600F026F8002803D009212046FFF7B4FC0020F8BD08212046FFF7AEFC204601F041FEF5E7AC1E000810B54421095C0829A0
:408C000006D0092908D00A2901D100F09BF810BD0B21FFF799FC10BD00F002F810BD000070B504460079052805D0062803D0082811D00C2070BD03220621204605F019FCB3
:408C40000F480821428A2046FFF716F811212046FFF77AFC12E006215A200155204605F035FC05466220025B0A20424301212046FFF702F8002D01D109202071002070BD6E
:408C8000AC1E000838B5044600200090A17868460EF0AEFA002801D00D2038BD2046009D00F074FA08202071204601F071FA2946204605F034FB0021412001550F21204630
:408CC000FFF742FC204601F0D5FD002038BD10B5024601F0B1F810211046FFF735FC10BD10B50446FEF794FA012809D04420005D112805D100231A4606212046FFF70EFE6A
:408D000010BD10B5FFF7D3FD10BD000038B5044600200090A17868460EF06AFA00280DD12046009905F0C7FB05480821428A2046FEF7A2FF0D212046FFF706FC38BD000083
:408D4000AC1E000838B5044600200090A17868460EF04EFA002801D00D2038BD2046009905F09EFB05480821428A2046FEF784FF0C212046FFF7E8FB002038BDAC1E000812
:408D8000007870477CB536490978814201D8002404E03449D022096A50430C18002C5DD0204601F052F8002858D0207903280CD005280CD06220015BA07804F0D7F82646FE
:408DC0004036B079012805D030E0042000E0062020712BE00021204604F069FD25468035A86A002804D0A1780EF094FA0020A8620020B071E87801280CD02046C030417B6A
:408E00007D22114041732046FFF71BFC2079072805D007E02046C030417B7E22F1E72046FFF746FC0221204601F03EFD0E48407BC00713D02079042810D120896946088079
:408E40006034207A88702089000AC870A07A08716089000A487168460BF028FA7CBD0000CC1E00085C210008A021000810B55A22115400F05DF810BD10B50446FF21FEF782
:408E80001BFF09202071A07804F0B2F810BD000010B512490978814201D8002404E01049D022096A50430C18002C15D0204600F0DDFF002810D10B480068C169204688473B
:408EC000E07EC00608D4BC20005D012804D10648006801682046884710BD0000CC1E00085C210008FC0100080802000810B504468079002809D022215A200155FF212046EA
:408F0000FEF7DAFE204600F013F810BD10B5037902464032002B03D09176092B02D003E0002100E02221917600F002F810BD0000FEB5044600890027009027812079254662
:408F4000803500282FD001282DD002282BD0002005F00CFB0AE002AA01A9204604F044FC002808D1A17801980EF0C8F9204604F067FC0028EFD0FF212046FEF79DFE204642
:408F8000FDF798FE3049AF70887B002804D0401E0006000E887306D1F9F7C0FC2A4840304770F9F7A5FC26466036B07FFCF70CFEA86A002803D0A1780EF0ACF9AF62E86A1C
:408FC000002803D0A1780EF0A5F9EF6225464035A97E002934D0009800F0B6F8F07FFCF7F3FD2046FFF74CF8A07802F0C1F8204602F0ACFEA0780AF0E1F8E87B02F0B8FB5C
:40900000A87BFF26FF2805D0104909680A6C00219047AE73EE73A07801F0D2FA0B20FEF7CBFD01F02DF9F9F793FC032807D10648807B002803D1FF20F530FCF735FFFEBD71
:409040001F21A976C7E700005C210008EC010008FFB583B01E461746054606F0D7F804006AD020460C303146009001F079FF2046062200211830FBF745FA2046062200218A
:409080001230FBF73FFA2D48224600683946836A284698470190049820702846FEF7B8F8012148402E4640366070002D11D028896080F07920710498002811D16879607120
:4090C000F08BE08028466030018821814088608109E01B488069C005C00F2071002060800498022824D02846062248300099FBF700FAFF2F11D0114801210068026C38463E
:40910000904710482C220068416838465043021D8A180A30085C114601E02079009903F075FD0546FF2801D003F034F8B773F573204601990AF0CFFD07B0F0BDEC0100084F
:4091400000103C40D40100080A4610B5014600200AF00AFF10BD000000B50146FEF756FF084A1278824201D8002004E0064AD023126A58431018002802D002898A4200D0D4
:40918000002000BDCC1E00085C21000838B504468034E16A002907D1817868460EF03AF8002801D10098E062E06A38BD10B5014600F056FE012803D08878FEF733F810BD01
:4091C0000348026A8878D02148438430105C10BD5C21000870B5054604468035A879012811D10948A178026AD02048438430165C3046FEF76DFB002805D10220A871A07894
:40920000314603F0BFF970BD5C2100080EB500220A216B460292198100905A811046029B00990EF04CF90EBD70B5104DA87A00281AD00F4C217FFF2916D0608B01F036F89D
:40924000012811D10020A872401E6083FF20207701F0EAFD044601F021FF010002D0204600F0D8FBFEF7E4FB70BD0000A02100085C2100087047000070B5104AC0B2117803
:40928000491E11700E490978814201D8002404E00C49D022096A50430C18A07900280BD025466035687FFF2806D02046FFF71EFE0020A071FF20687770BD00007A01000882
:4092C000CC1E00085C2100087047490510B5490F0B0001F009FB060704080C0C0F073E21FFF7C4FD10BD0821FFF710FE10BDFFF71FFE10BDFFF7FAFD10BD0000F8B52B48F7
:40930000002500904DE0A84201D8002604E02848016AD02068430E18F9F700FB30464030C48A078B0021C1820183F9F7E1FA304600F08BFD012831D1A00702D52846FFF783
:4093400021FDE00602D52846FFF7A2FDA00602D52846FFF75BFF600609D5F9F7DFFA1449002040314870F9F7C3FA00F005FF200602D5284600F020F8600702D5284600F071
:4093800043FCE00703D021463046FFF79EFFF80704D00849B0780968496988476D1C0098EDB20078A842AED8F8BD0000CC1E00085C2100080802000805490978814201D8B5
:4093C000002070470349D022096A504308187047CC1E00085C21000810B50446054800680168204688470448006801692046884710BD0000FC01000808020008F8B5054673
:40940000FF20694608702888FFF7A6FE040035D000F01BFD002831D0207909282ED002236A460021204600F076FD012828D02046FDF7EEFE0646E07920210843E07120468C
:4094400004F052FA002823D0294601F005FA02236A46FF21204600F017FD01281AD04620005D00281BD02325E079DF210840E0712946204604F08FFB2846F8BD0220F8BD63
:4094800068460078012801D02A20F8BD2320F8BD0720F8BD02204034A0710020F8BD002E05D02046FFF72AF90500DDD1E4E70C20F8BD000070B50E460C2501F0EDF80400D8
:4094C00013D00025228929460A480AF073F80123FF2202212046FFF7BBFDA07801F0F2FB2046FFF725FD022000E000203070284670BD00000E200000F8B5044601F0CCF86C
:40950000002801D00C20F8BD6079A11D00F0DEFDFF2801D00B20F8BD02216846FEF77AFD012859D13248017868460078814201D8002504E02F49D022096A50430D18002D07
:409540004AD000212846FEF7FFFF2E46002040367071B0712848002100684268284690470620FEF729FB2F46208A60373880E289A189A87809F0A4FCF083608A78800420E7
:40958000F0760320B0831B4806228778A11D2430FAF7AFFF2079012820D06079F0710121A01D03F007FCFB20074012488770217E012918D0C278FB210A40C2700F482146FF
:4095C0000068826828469047A978204603F0C2F82846FFF7ECF8F8BD0920F8BD0020F07104200743E1E7C17804221143C170E5E7CC1E00085C21000808020008EC010008E0
:4096000070B5164602461B480D460078D0211A4B5143904201D8002401E0186A4418002C26D0204600F01CFC012809D1186A8431405C1146FEF74CF9002801D104F07AFE5E
:409640000E483146006882692046904700280CD0204680308178A94201D3491B00E000218170208929460AF0F4FB204601F002F970BD0000CC1E00085C210008FC01000869
:4096800070B505460088FFF767FD040014D000F0DCFB002810D02079092822D0A97825464035A976204604F011FF0646A879012804D06220025B02E0022070BD6A8A0A20C3
:4096C000424301212046FEF7D7FA01F055FB8021204602F059FD01F06BFB002E01D109202071002070BD0EB5002218216B460292198100905A810120029B00990DF0DFFE10
:409700000EBD0000F8B5194E0025B07A002824D101F0C4FC26E001F0BBFC1549401801680068CCB287B22146384600F0BFFD012814D010480121478304774577B1720E49AE
:409740000978A14201D8002003E0006AD0214C430019002801D001F08DF8F8BD01F09EFC6D1CEDB20028D6D1F8BD0000A021000800103C405C210008CC1E000810B5044670
:40978000C0060FD50C4900200B6A0C490A7807E0D021414359180979022909D0401CC0B28242F5D806480068C1692046884710BD00F050F8F6E700005C210008CC1E00081E
:4097C000EC01000810B50088FFF7C6FC040007D04420005D082805D00B2803D00C2010BD022010BD2046FFF71BFA002803D009212046FEF7A9FE002010BD70B50546008863
:40980000FFF7AAFC040008D0264640363079082805D00B2803D00C2070BD022070BDAC20005910220830A91CFAF763FE2046FFF71BF83079082804D02046FFF783FA0028AF
:4098400003D00A212046FEF77FFE204601F012F8002070BD70B51E491E4D0978814201D8002403E0D0212A6A414354182179022904D0002901D003F0BBFB70BD01228321A4
:409880000A5501F03FFC032020710820FEF794F900212046FEF758FE0121204601F004F8204647300121064601F078FB0A480068416A304688470246012300212046FFF736
:4098C000C7FBA078FFF788FDA87B401CA87370BDCC1E00085C210008EC01000810B50C46002121700088FFF737FC03000BD000F0ACFA002807D00948F521807A0840C00684
:4099000003D4112010BD022010BD022020705A8A188900210AF044FB002010BDAC1E000870B50088FFF718FC040008D000F08DFA002804D0E079C10903D0002070BD0220A8
:4099400070BDC1068025002908DA2843E07108480221428A2046FEF78FF9EEE7204600F053FC0028ECD1E1792943E17170BD0000AC1E0008F8B50F46002569460D702E4628
:409980000088FFF7E9FB040010D000F05EFA00280CD0E079410638D4E17E4A0708D48A074021002A1BDA0843E0712EE00220F8BD05F02CFC067021894180E1898180A17EC3
:4099C0004170218A0546C180022038702978104809F002FF28460AF087FA0020F8BD0843E07102236A460C21204600F04DFA00280BD102236A46FF21204600F08CFA0028CC
:409A000003D1204604F090FD05462846F8BD00001D0400003EB500220F236C460292238100910190628169460EC900200DF047FD3EBD0000F8B50F46054600F04BFE04003A
:409A400052D0032020710026832006552046E6703146473001F0A2FA05F0EEFB25464035EA8B6179FEF716FB1030FF2281B249321346204604F094FD0920FEF79DF8A07884
:409A800001F05CFB0021204600F00EFF00212046FEF75AFD6E710023AE713A4619462046FFF7D6FA1248002100684268204690471048817B491C8173A078FFF78DFC00F0DD
:409AC000EBFD040007D00B480021243003F072F9204600F0C3FCF8F73BFF032803D14034E08BFCF725FAF8BD284603F081FAF8BD080200085C210008F8B50446FF206946AD
:409B0000087000262088FFF727FB05001AD0FDF77FFB002812D02948807AC00710D0284600F093F900280DD0287903280CD004280AD0072808D0092836D103E00C20F8BDAE
:409B40001120F8BD0220F8BD4420405D01282BD02846FFF71BFB070028D00822211DFAF7C8FC3846A1782030017261881022090A417221460C311838FAF7BBFC02236A46C1
:409B8000FF21284600F0C7F9012811D002236A460521284600F078F9012809D0284600F03FFC06463046F8BD0D20F8BD0720F8BD01212846FEF7C8FCF4E70000AC1E0008CD
:409BC00010B50E4AC0B21178491E11700C490978814201D8002404E00A49D022096A50430C18208B102108432083A07803F000FA08212046FFF78AF910BD00007A01000855
:409C0000CC1E00085C21000810B517490978814201D8002404E01549D022096A50430C18002C1AD020464030417902290BD1002141718320005D012810D02046C030417B4E
:409C40007D2211404173207E0021C207D20FA07803F078FA2046FEF7F4FC10BD2046C030417B7E22EDE70000CC1E00085C21000870B505460E460088FFF76EFA04000BD0BC
:409C800000F0E3F8002807D01248F521807A0840C00603D4112070BD022070BD6020005B5E21095B401C48430004C10C6888884201D2122070BD60822079072802D1204699
:409CC000FEF7F6FC02203070208900210AF090F9002070BDAC1E0008416A491C416204D1017F491C4906490E01777047016A491C016204D1417F491C4906490E41777047CB
:409D0000F3B506463D4881B00078B04201D8002404E03B48016AD02070430C18002C05D0FBF7FEFA807AC00702D00EE00220FEBD2546C0352F68F8F7F1FDD02200212046E3
:409D4000FAF7E0FB2F60F8F7D3FD2E480299006882682046904705004DD1A6700026E676267131462046FEF7EFFB204600F064F8204603F05FFD244F6782862006551F48F0
:409D8000F5212038807A084000D00120A07526830298002805D020462021C030FBF7A2FA85B2C020005920220021FAF7ABFB4C20A664065320464030C671FF21C1738173FA
:409DC0000122603042750275C27582754276027603228276C27606774277002022186032401CC0B251770328F8D305484030C07820736034E780E8B2FEBD0000CC1E000857
:409E00005C210008FC010008FFFF000010B50020074B084AFF2119541418401CC0B221740428F8D31F2119541018017410BD0000A02100085C2100080021416201770162FA
:409E4000417740300170417070470079002805D0012803D0022801D0012070470020704780308079002800D00120704740300079002807D0012805D0052803D00E2801D05F
:409E80000120704700207047F0B5002405461470C07E0126C006002803DA0124142900D116702846FFF7E2FF002803D00124052900D11670E87E470708D480070ED5012469
:409EC0000C290BD11670E87E400707D5E87E800704D4012B01D10C2905D001248320405D012802D008E00024F8E7A879800703D50124082900D11670012B02D1092900D1FB
:409F000000242046F0BD10B5807803F035FB002800D0012010BDFFB581B0019F04980026403714460D46022810D17879012803D1012D00D120700126B879022800D10126B7
:409F4000019803F087FC012800D1012600232370797980208122022908D1012D02D0002D02D002E0227000E020700126B979012908D10126002D02D0012D02D002E02270E9
:409F800000E020700198A030017F032902D0042908D003E0162D11D101262670007F022804D00BE0162D09D1002607E00126182D03D0162D01D0172D00D12270049802282E
:409FC00006D12078C00702D00120207000E02370304605B0F0BD000010B5084A1278824201D8002004E0064AD023126A584310184030C173084602F0CDF810BDCC1E000831
:40A000005C210008F8B500240F4D104E17E0A04201D8002103E0D020316A604309180846FFF713FF002808D00F464037F87BFF2803D001F09DFBFF20F873641CE4B22878B3
:40A04000A042E4D8F8BD0000CC1E00085C210008F8B5064600240F4D18E0A04201D8002104E00D48016AD020604309180846FFF7ECFE002808D00F464037F87BB04203D13E
:40A0800001F076FBFF20F873641CE4B22878A042E3D8F8BDCC1E00085C21000810B50449C0B20A78521E0A70FEF77EFA10BD00007A01000810B50449C0B20A78521E0A7098
:40A0C000FEF78EFA10BD00007A010008F3B50024C70781B0134EFF0F1FE0A04201D8002504E01148016AD02060430D182846FFF7ACFE00280FD02946062248310298FAF76A
:40A10000E9F9002807D14035E879C007C00F874201D12046FEBD641CE4B23078A042DCD8FF20FEBDCC1E00085C21000830B50446FF281BD000210E4B0E4D14E0884201D8C3
:40A14000002203E0D0202A6A484312181046FFF77CFE002805D04032907BA04201D1012030BD491CC9B218788842E7D8002030BDCC1E00085C21000810B500F055FE0446D0
:40A1800000F08CFF010002D02046FFF743FC10BD70B5054604468035A879002827D1FF20E075174BA078D0225043196A85300A5CD026521CD2B20A54A078196A7043114E35
:40A1C0008530768AB24201D300220A54A078D02250430246196A85328E5C84300E54A1783046FDF775FB002802D00120A87170BD0220A871A078314602F0C4F970BD000049
:40A200005C210008F02100087CB50446FF206A46002110700191014602232046FFF77BFE01280FD002236A4608212046FFF72CFE012807D0A17801A80CF0DAFF002809D09E
:40A2400007207CBD68460078002801D023207CBD2A207CBD2046019DFCF7DAFF00280BD02946204604F016F804480221428A2046FDF702FD00207CBD11207CBDAC1E00088D
:40A2800070B50024074E084D07E0D020316A60430818FEF7D6F9641CE4B22878A042F4D8002070BD5C210008CC1E0008F0B50F46810785B0890F0291000A6946888055484A
:40A2C0000078B84201D8002404E05348016AD02078430C18002C26D000F0DAFE06466846808800280BD00298012840D002283ED0032809D04120005D01286ED085E047481F
:40A3000030180068608180E000200290A17802A80CF046FF002807D04120005D012877D12046FFF7D9FC73E06846029D82882946304602F095FF394830180068608120468A
:40A34000FDF7E6FF01AA21462846FDF7B9FE002807D0384600F0C0FCA17828460CF0B0FF28E0EF772946204603F094FC4DE00020009020890390A17868460CF0FFFE0028B7
:40A3800002D0002005B0F0BD6846009D8288291D304602F065FF2148301800686081384600F09AFC2046FDF7B3FF8020005D00280FD106E03D205A2108552046FEF75CFD04
:40A3C00026E001AA21462846029BFDF7B5FE002804D028460CF06AFFECE713E00298FEF700FA01460398287003980901000A0843687068468088A870000AE8702846FFF795
:40A4000072F905E02046FFF767FC384600F064FC0120B7E7CC1E00085C21000800103C4070B501790546032904D0042904D0072908D109E0052400E006240121FEF716FB45
:40A44000002805D00D2070BD0824FEF7EDFAF7E7284600F00FFA2C71002070BDF0B587B0054604F0D3FE044604F0C9FE019004F0BCFE009004F0CEFE029004F0DDFE0690D7
:40A480000098207000982F46000A607000984037000C0590A07000982E46000EE070F87E20710198607101986036000AA07101984149000C0490E071387F2072B88B0522E1
:40A4C000000A6072B87FA072F88B000AE072307820733088000A6073B078A0737088000AE073204610300391FAF703F80020E870A878039902F0C8FD0020687106980299B5
:40A500004001084300216175A075000AE07504E0F98B288849004018288000F0A5FC2988042200F05FFE0128F2D023481038417C027C090211433182C17C827C0902114389
:40A540007182007DB0820298307600983081059870810198B0810498F0811848298801601821204602F0A6F87088F98BC000F8F7CFFA124980B28860012183204155A878C6
:40A5800000F07EFBB188A87802F0F8FBF98BA878042208F02BFAF8F71DFA0446A87808F0E7FC06494031086200F07CFB2046F8F715FA07B0F0BD00006C21000800123C4046
:40A5C00010B50021FFF79CFB002801D0002010BD012010BDFEB50546803001908079002839D0AE780096D021294C4E433746206A8437C05D0099FDF780F9012828D0226A66
:40A600002046D15D491CCCB22249498AA14200D80024019B002199713346FF218533D154026A8636D1550021006A0B4681550A46009802F0C7FAE97DFF2904D0284603F0EB
:40A6400064F8FF20E87503F075FE0026114F1AE0019803218171FEBD00200090224669462846FEF73BF80099002904D0FF231A462846FDF750F9641C788AE4B2A04200D8C0
:40A680000024761CF6B2788AB042E5D8FEBD00005C210008F021000800B5022000F002F800BD000030B5044608480021036A0848027807E0D020484318180579A54204D012
:40A6C000491CC9B28A42F5D8002030BD5C210008CC1E000800B50120FFF7E4FF00BD10B5044604F093FD218901808034E16A4160E16A2831816009F085FB10BDF7B50746CF
:40A700000C460879897882B0092807D0F9772046FFF7A6FB4D4E012806D00FE038460CF0EDFD022005B0F0BDA178D0204843326A8430105CFDF7CCF8012824D0A078FDF7FC
:40A7400067FE01281FD03D780121384603F0CCFC2046FEF72BFD0190A17802F07FFF002818D0204681213A4AC0300C2D3ED023DC26464036002D26D0012D27D0062D33D07D
:40A780000B2D4BD128E06846027C21463846FEF713F8C7E7A078D0225043316A85300A5C002A01D12B4A927C521E0A54A17838460CF0A4FD0720B5E7122D24D0142D25D07E
:40A7C000162D2BD104E00122B27101E002227271427B0A43427321E02046FCF719FD01281CD10020307019E00120FBE7E07E400704D4528A04212046FDF73EFAE07E022176
:40A800000843E0760AE0528A102104E0E07EC00604D5528A40212046FDF72EFA009504AA21463846019BFDF7BFFC69460A7CA0780323019902F03CFCA0780199FCF70CFA8B
:40A84000A17838460CF05AFD00206BE75C210008AC1E0008F02100088A8802804A884280CA8882800A89C2808A890281498941817047000010B50246803293790021002BC3
:40A8800003D19278002A00D00121064A927A002A00D000210279092A00D10121807802F085FC10BDA021000870B50C460546FCF7AFFC00280BD1012C06D92879092806D06D
:40A8C0002846FFF720FB0446002C02D004E0012402E0287EC007FAD1287E2146C207D20FA87802F02FFC70BD30B47446641E2578641CAB4200D21D46635D5B00E31830BCEC
:40A90000184700000B4B01280BD002280BD004280BD008280CD10748803002630548A83005E0202002E0382000E05020C01801607047000000103C400149886070470000A8
:40A9400000103C4010B50446FF20F130012C04D0022C05D0042C08D105E0FF20D53004E0FF20D93001E0FF20DD30002202F074FD03490869034A80B2A0431080086110BD63
:40A9800000103C40E2010008034A1169034B89B2814319801161704700103C40E2010008034A1169034B89B2014319801161704700103C40E2010008F8B5244F14243A680C
:40A9C000054665432C46936813341B5DF1269B0036019B191E4E9B1900931E68B6B2760876001E602C2306465E43002909D190685168035D301D08181649FF22C96902F027
:40AA000007FB3868A91D80688022035D40181149896A02F0FDFA38680E498068096A035D4019202202F0F4FA38680A4980680C35035D4019496A402202F0EAFA3868012187
:40AA40004068805B084300990860F8BDD401000800103C40F0210008F8B505460120A84086B214460F46012231467C2002F0F4FC3A463146782002F0EFFC607826780002EC
:40AA80000643E078A27800020243607923790002034307480C2180694D430649401944182660001D44182260001D40180360F8BDF021000800103C40401880B270470000EA
:40AAC00030B5124BCC061B7849095B0701255B0F640E0902ED02012B10D0022B0ED0032B01D0042B09D18007800FD2072843120E0243144306482143816230BD044321439D
:40AB0000D001084303492843886030BDF021000800F13D4080143C4010B5234A12785207520F012A29D0022A27D0032A01D0042A22D1421C13461C78007822465C782402D5
:40AB400022439C78DB78240422431B061A431202164C0243A260481C024613780978184653781B0218439378D2781B0418431206104300020843E06010BD4278037812020B
:40AB800013430B4A1361C37880781B021843506148780B78000203439361C878897800020143D16110BD0000F021000800F13D4000143C400B4A12785207520F012A09D061
:40ABC000022A07D0032A01D0042A02D1064A106051607047054A83B21360000C5060916070470000F021000800F13D4000143C40044A002180180268491C89B21029FAD3A2
:40AC00007047000000103C4010B50C4602F08CFC01494018046010BD00103C40704770B50C46054600F018F821462846FFF7ECFF70BD0000002310B5F121064A09011846D3
:40AC40008C182360091D401CC0B289B21028F7D310BD000000103C4070B50C46054602F069FC0549054A097D694309190902214389B28018016070BDF021000800103C40A4
:40AC800010B504490863FF20012220211D3002F0E3FB10BD80103C400149086070470000C0103C4000B50549012088600449442008600420FFF774FE00BD000040123C40AD
:40ACC00000103C400349086302494520803908607047000080103C40054AD1687C2389B2994380000843D06002494D200860704740123C4000103C4070470000054B19688B
:40AD00000722920289B2002801D0114300E0914319607047001F3C4010B5094800784007400F012808D0022806D0032801D0042801D10DF067FA10BD02495420086010BD11
:40AD4000F021000800103C4010B5094800784007400F012808D0022806D0032801D0042801D10DF057FA10BD02495320086010BDF021000800103C4000B503490888488003
:40AD8000FFF702FE00BD0000E201000810B5F7F7A7FD012802D10320FAF756FD0120FBF72BFF02495020086010BD000000103C4000B502484088FFF7F3FD00BDE20100082D
:40ADC00010B5FAF779FD10BD03490868012280B2D203104308607047001F3C40884201D8081A03E00022D243101A401880B27047884201D9401A00E0081A044980B28842D4
:40AE000003D901210904081A80B27047FF7F000000210170704710B50B4602460021F820FAF760FB10BD00000148006BC0B2704780103C4010B50A490978814201D8002443
:40AE400004E00849D022096A50430C18F7F766FDC0342068C48BF7F74BFD204610BD0000CC1E00085C2100080148806880B27047C0103C400148406880B2704740503D4038
:40AE800000280DD00C4A90690870000A4870D0698870000AC870106A0871000A48717047064A10680870000A487050688870000AC8709068F0E7000040103C40C0113C4048
:40AEC00000B5024A00F004F800BD0000FF7F000000B51346FFF782FF984201D8022800D2002000BD0148006980B27047001A3C400148406A80B2704700103C40014840698E
:40AF000080B2704740103C400148006880B2704700503D400148C06B80B2704700103C40F8B50646002402F0EFFA0546304602F023FB064609480021878A0BE001208840A0
:40AF4000034602462B403240134301D02043C4B2491CC9B28F42F1D82046F8BDF0210008002910D00B4B196B8AB2596B9B6B89B20270120A42708170090A9BB2C17003715B
:40AF8000190A41717047044B996A8AB2D96A1B6B89B2EDE700123C4040103C40012905D0054989690904C90F017070470249403189688907C90FF7E700103C40FFB581B095
:40AFC00000242D4B2D4D0B9E002805D0022803D003283ED006281DD1A86B2F4684B2A004850E2007000F012802D0252D1AD916E00C2D14D106230021F820FAF773FA0623DB
:40B000000021F820029AFAF76DFA002E01D0B86B1DE0002304980480184605B0F0BDFFF7D3FEF9E706230021F820FAF75BFA062DEFD30A98002806D0AD1F0246ABB200214B
:40B04000F820FAF74FFAB86B002E80B2E1D03080DFE7A86B84B2A004800E0C28DFD106230021F820FAF73EFA06230021F820029AFAF738FAA86BCCE7FFFF0000C0103C40B9
:40B08000024800684005C00F70470000001F3C400148C06870470000F02100080248806A8006800E7047000000543D40084910B58000084B4218D9687C2489B2A1430843D9
:40B0C000D8600548101800688006800E10BD00003044010040123C4000103C400148406880B27047001A3C4010B5054B1A8A9C8A5443444398684A432018801810BD0000F4
:40B10000F021000870B50B4908630B49D024444325460B6AFF2285355A5523460D6A8433EA54096A002286340A550123114601F049FD70BD80103C405C21000870B50B4A6C
:40B14000D02141430D46146AFF23853563550C46156A84342B55126A00238631535400220123114601F02EFD70BD00005C21000870B50B4AD02141430D46146AFF238535E8
:40B1800063550C46156A84342B55126A00238631535402F0C3F90349C98D02F07BF870BD5C210008AC1E000870B50D460B490978814201D8002404E00949D022096A50435D
:40B1C0000C18F7F7ABFBC0342068C48BF7F790FB02222946204600F005F870BDCC1E00085C21000810B50023884201D8081A03E00024E443201A4018044980B2884201D83A
:40B20000824200D90123184610BD0000FF7F0000024840680006C00F70470000C0103C4070B55478157824022543D47888232602947834435679127936023243002900D02C
:40B2400098230449086303488038181805604460826070BD80103C40FFB581B015460E4607460A9CFFF740FF002C0AD022460B9B049902F021F90549B0004018C55505B066
:40B28000F0BD0B9A049902F0FDF8F4E7C5210008F8B59C469308394D002403E0A600AF598751641C9C42F9D39207920F4B1C002A06D0012A15D0022A27D0032A39D13EE05F
:40B2C0001D7809782A465D782D022A439D78DB782D042A431B061A4312020A43A100425027E0A600AD590C78CB7822464C781B06240222438C78240422431A431202EBB24E
:40B300001A438251C978301812E0A200AB584C780D7824062D042C431D042D0E2D022C43DBB21C438450CB788C7819022143101841606046012801D1FFF7EEFCF8BDA40087
:40B340002A59097815022D0E09062D04294315042D0E2D022943D2B2114301511A461B78194653781B0219439378D2781B041943120611430902090A2018D9E750F13D400C
:40B3800070B50C4D2A785407640F012C08D0022C06D0032C01D0042C01D100F00FF870BD02460B46044CA888082121620021FAF71FF970BDF021000880143C40F0B52B4A11
:40B3C00008232A4E503A5363546B9C435463820703D000238F08BF001DE08C08002203E09300C558F550521CA242F9D3A30014E0C218521C144625782A4665782D022A43D8
:40B40000A578E4782D042A4324062243C45C12022243F2501B1D9F42EAD88A0724D089070022890F012904D0022904D0032917D107E0C25C14E0C018417800780A0202437D
:40B440000EE0C01801460A7810464A78120210438A78C97812041043090608430202120A0248103818180261F0BD000050F13D4070B51A4909784907490F012921D0022911
:40B480001FD0032901D004291AD10446FFF75CFC134D00216018401C02461378184653781B0218439378D2781B04184312061043625C000210434A191061091D1029E9D3EB
:40B4C00070BD212504466D01FFF73EFC1023224600212846FAF78CF870BD0000F021000800F13D40154909784907490F012918D0022916D0032901D0042911D1411C0A463B
:40B5000013780078194653781B0219439378D2781B0419431206114309020143084801627047417802780902064B0A439A63C178807809020843D86370470000F021000805
:40B5400000F13D4040143C4008B5094A127D4243521812020A4380210A4369460A8001F0E9FF69460988034A8018016008BD0000F021000800103C40FEB5044600266846DD
:40B580000680868006810125A078FBF7DDFD0746A078FFF7C5FC0743A078FFF787FD0743A07802AB01AA694600F020FA3146264660363177002F55D12079092852D06846F3
:40B5C000808800284ED0204602F03AF9002849D0684681882046C030002909D00168CA79022A05D0CA7AD30902D05206520ECA720068817A002905D0C17AC90902D1217EAF
:40B60000890600D50025214640318A79012A06D04979022903D0BC21095D02290CD1718BC08BFFF7DBFB69468988C91C884202D30D49884200D9002568468088002811D066
:40B64000012D0FD10421204600F0B0FD01203077684681880422204600F0CAFD208B082188432083FEBD0000FF7F0000F8B5044680782521C001C9024018394940184069BB
:40B6800086B2F7F74BF9FFF7C3FD002864D0207E000761D420466030017F01295CD146210B5D00252146C0312A46012B07D1438B0868C08B834251D0401C83424ED0294888
:40B6C00003689BB200938368FFF7CEFB5F06264B03D5009D2D1AED18ADB20F687988814201D2401A05E0814209D93F888F4206D2081AC01882B21D48824200D900221B4848
:40B70000854229D8D00700D0521C50083146F7F7FFF907464800301A4004010C0A2901D9012300E00223581C704340000A30A84212D81021204600F039FDF81881B210226A
:40B74000204600F055FD204600F08EFC00F01EFC208B082108432083F7F7CAF8F8BD000000103C4000503D4000000100FF7F0000FF2806D0034B196A012289B28240914376
:40B7800019627047801F3C4030B513490A680146C0310B689A80037902464032022B13D00B6800241B88958B6D00EB181B190C689BB223809279012A05D160304088096847
:40B7C00000011818888330BD044B5B6A93830B6803249B88E7E7000080503D4040123C40F0B585B0002704460546C03403972068252201880291A978D202C90189182E466D
:40B8000040360191B17901297ED044494A68828088682168802208822068022781880291C17A1143C17203F007FDF28B6979FCF731FC0146284660300090C18203F0FCFCF0
:40B84000B18BC9198AB26979FCF724FCB179344A012921685FD00B8AD31A1B18D833CB8103992F4B0918F07E5843081821688881B08B410002980818C01987B22068591EAA
:40B88000078020680290C089884210D9491CF7F73FF90299381A088027682149F889F7F737F9F9812068022901D20221C181B07901282BD1009920684988028809015118B1
:40B8C000818300980321C08A09030005000D8843A035297D8907C90F09030143687D8007C00F42030A430F4901984018C26221688989C16320680B49028A0198403140185F
:40B9000042602168C98900E002E0C16005B0F0BD8089039087E7CB891B18A0E780503D407102000000103C40F8B52F4DAA6AEB6B92B29CB28378E606F60EB34214D12A4E7F
:40B94000034689074036C03300290EDA002160300177186801884180F06819680880A00602D41968A009C881F8BD1968CC8B641CCC83696A1C68A183E96A1C685704A18007
:40B9800011061C68890FE17191041C68890EA1711968FF0FCC7AD20B3C43CC7219688A728321095C002910D11968002A07D10A884A80F1681A681180696B1A68D181296BBA
:40B9C0001A681182A96B1A68918119688A7A002A06D000224A830022042100F0BFFCF8BD4A8B521CF6E7000000503D4010B52524C001E4020019044C001944690C80816928
:40BA00001180C069188010BD00103C402522C001D2028018024A8018406908807047000000103C403EB5044600F06EFD684606F0D5F9684600780022022836D26846817864
:40BA40001B4803781B48994201D3002103E0D025036A6943591821604078430706D4800707D514482030007E800702D060318A8015E00A4660326846D388808883420DD9E2
:40BA800083235B5C002B07D1C0310968C9890C2902D8012800D9401E908000E093800298002801D000F0F8FC3EBD22603EBD0000CC1E00085C21000802488068C006C00ED4
:40BAC0007047000000503D4008B5034680786946FFF79CFFFFF7C8F9C0331968801C0988401A01210904401880B24910884207D2694609884900F7F70BF8401CC0B208BD10
:40BB0000012008BD2522C001D2028018024A8018806908807047000000103C40F8B5054604464034A0792F462E466037C03601282AD13068798BC08BFFF750F92D49884244
:40BB400005D2032803D24021284600F01DFBA079012819D13168788BC98B884214D18320405D0028284613D0FFF70EFE2021284600F00AFB284600F03DF9284600F0CEFA33
:40BB8000E08A82210843E082607902280ED019E0FFF726FE4021284600F0F6FAF6F7D8FE0328E7D1E08BFAF7C3F9E3E73168788BC98B884206D1284600F006F9E08A042123
:40BBC0000843E082BC20405D022811D13168788BC98B88420CD108480068416A284688471021284600F0D0FA208B012108432083F8BD0000FFFF000008020008F3B506460F
:40BC00000446C036306881B0818B0088FFF7E6F821792546204F4035032919D91921C902884215D9FFF720F93168898BFFF748F9717900290CD1002820D081004018C20831
:40BC40002046A178154B7E30F9F75AFF012070718320005D00281DD1207903281AD90E4B0299703330685943AF238289DB00C91A8A420FD9A979012909D103E0E88A38430F
:40BC8000E882E3E76034C08B618B884202D0E88A3843E882FEBD000001020000C19B0010F8B582782523D201DB02D51876220446125AC03420684A43C1898918C1812068D0
:40BCC00081898918818126682721F0890901884211D94F1C3946F6F71BFF3188081A308026683946F089F6F713FFF1812068022901D20221C1812068024980896918C863A4
:40BD0000F8BD000000103C402521C001C90242180D4800211018016041608160C160016141618161C161016241628162C162016341638163C16304484030101801604160EA
:40BD40008160C1607047000000103C40F8B50446FFF712F88320A178005D06F039F91649086882B28868254680B246060023C035002E1CDAC006A478C00EA04217D1FFF7BE
:40BD800073F8101A01221204801880B201280ED90124CC60C8688007FCD56846FFF742FE0098002801D000F015F92C7100E02B71FEF7FEFFF8BD000000503D4010B500F04D
:40BDC000A3FB06F06DF910BD81782522C901D20289186030064A038A89180B62428A4A628A6A808A92B2120A120210438862704700103C4081782522C901D20289185E2219
:40BE0000135A074A89184B610246603213888B615288CA61C0300068808B48637047000000103C4081782522C901D20289180A4A8918CA6A032392B21B039A43A030837D63
:40BE4000C07D9B07DB0F1B038007C00F134340031843C8627047000000103C40F0B581782522C901D2028B1801466031244A0C899A1814604C8954608C89946004464034AD
:40BE8000E67ECD8936023543D560E48B54610C8894614C88D4610C8A14624C8A54620D7E46792D028C8A760335432543ACB294628324134E245C40360025C030002C0CD03E
:40BEC000D56200689B19808818600E4B0A2018628888106355639563F0BDCC8A03272405240D3F03BC43D4620468A489D4630468278A9C1967600768FF89E760E1E70000D2
:40BF000000103C4000543D4030B581782522C901D2028C181C4962181368014660310B8153684B8193688B81D368DDB2CD811D0A03464033DD7615699D835569DD839369EB
:40BF40009BB20B80D5694D80156A0D82556A4D82926A92B2D5B28D82D504ED0E520B0D764271002B01D000220A770749403161180A68C03003689A804A6803681A82C9685B
:40BF80000068C18130BD000000103C4008B510490122086883B2886840060FD5FEF764FF181A01231B04C01880B201280ED90120C860C8688007FCD5002A07D06846FFF709
:40BFC00031FD0098002801D000F004F808BD000000503D4070B581782522C901D2028B18144A9168490604D50121D160D1688907FCD50146C0310C46096809881160642170
:40C000000D4D095A5B191963014680310B46C97800290CD000215160DB7881785B014024234319439160807806F0A2F870BD2168C989F0E700503D4000103C40044A1168AC
:40C04000FF23F13389B29943000101431160704740503D4003490869012280B21203104308617047001E3C40FEB5044680786946254648708035E8780870062027468870D6
:40C08000C03738680088088102A9684606F08CF8002838D10520694688701E480126807A800603D5286B017E807A01E01B210846EA78002A00D102262246A032137D012B31
:40C0C00022D089003C313B68527D9C890919012A1DD080003C30FF302D300F4F08183946F6F716FD801985B26846858060003946F6F70EFD401CA84201D96946888001A937
:40C10000684606F051F8FEBDC9007031DBE7C0007030E0E7AC1E0008710200001CB581786A4651708321095C1170042191704030C08B908001A9684606F036F81CBD10B5EF
:40C1400086B081786C466175014680310A46C97821750821A17500212181A1725E231B5AA3810223E381D278A274012222700191C02109580988218280786075214605A833
:40C1800006F012F806B010BD10B5807805F0F8FF10BD0000FF2806D0034B196A012282400A4390B218627047801F3C40C030026810290ED09179D18201680A884A800168FC
:40C1C000CA8B0A830168CA894A820068818981827047518AD18101688A8A8A8101684A880A8001688A7D8A710068018BC1837047F7B5064680780D46252288B0C101D2027D
:40C200008918039106AB05AA01A9FFF7EFFB3446C034374620686037798BC08BFEF7DEFD03462068798BC08B401980B2FEF7D6FD01460A98082828D1304640308279012A25
:40C2400023D1444A914220D993421ED2002B1CD02268B97E927F891AC9B20091C08B029068466A1A8088049050430299F6F73AFD00994018401C85B202984200681A4243AF
:40C28000049840004843101803E0684680884000684321680A8810180880206800908179387E684308182521F6F732FC009881710A98082809D02068C18B4919C183803647
:40C2C000F078254E00280DD033E03079032803D12068418B491941832A460821304600F03DF8ECE72168F88ACA8968431218CA8121688A891018888125682721E889090187
:40C30000884211D94F1C3946F6F702FC2988081A288025683946E889F6F7FAFBE9812068022901D20221C1812068818903988019C1632068C17980798A07D20FC9079200CC
:40C34000090F1143000208430399891988630BB0F0BD0000FF7F000000103C40FEB50F460446002069460880888016460881A07801AB02AAFFF73AFB254620460123C0354E
:40C3800040302179042F02D003294AD053E0092902D0032908D030E0217EC9062DD4C18A01221943920226E029688A7A012A1AD18A8B002A10D1A2782526D201F602961960
:40C3C000264A926862273F5B3F01BA1892B28A832249C03971184A63C18A02221143C1822179032909D12968498B062905D3C18AFF22194301321143C1822046FFF78EFB2A
:40C40000684601882046FFF7F9FB8320005D002806D168460089002802D02046FFF7ACF8FEBD2968498B062905D3C18AFF22194301321143C182002708E02868C18B491C3C
:40C44000C1832046FFF76AFB7F1CBFB2B742F4D3684601882046FFF7D1FBFEBDC0103C40F1B50B4F0025386A84B20A48406986B202E0A01984B20125012221460098FEF747
:40C48000B1FE0128F5D0002D00D03C62F8BD000040123C40C0133C40F8B5002405F0F0FC0546174E174F27E0E80722D03078A04201D8002003E0D020396A60430818FFF710
:40C4C00003FB01463078A04201D8002003E0D0203A6A604310180822FFF78AFE3078A04201D8002003E0D020396A60430818FFF7BBFD6D08641CE4B2002DD5D1F8BD00000D
:40C50000CC1E00085C210008FEB5684605F0E6FC68460078002830D00024184D184E29E0C00722D02878A04201D8002003E0D020316A60430818FFF7C7FA01462878A04221
:40C5400001D8002003E0D020326A604310180822FFF74EFE2878A04201D8002003E0D020316A60430818FFF77FFD01984008641CE4B2019001980028D2D1FEBDCC1E000865
:40C580005C21000810B50C4600F0C8FF06494018016889B20A091201FF21224301310A43C9008A43026010BD00103C4070B526490446097800204907490F40250346012963
:40C5C0000FD002290DD0032901D0042924D100201E4E0146012C24D0032C1ED0052C25D122E000211A4E0A46012C08D0032C02D0052C09D106E0B56002210A2204E00421BE
:40C600000C2201E004210D223461306AC0B204460C42FAD03262336170BDB56202200A2104E004200C2101E004200D21F462726B14460442FBD07163706B0821884370635F
:40C64000F362D0B270BD0000F021000800F13D4080143C40F8B505460D48164600780F46A84201D8002404E00A48016AD02068430C187F20005DF9F7A7FABA1B0A20424351
:40C680002046054B29467F30F9F73AFAF8BD0000CC1E00085C210008B5A00010044A106303488030816102494B2080390860704780103C40024610B50B460F20002180018A
:40C6C000F8F796FF10BD000013B50C46002269460F20F9F70FF869460978E0030843034980B208630249472008601CBD40113C4000103C407FB50E4604461D46002202A943
:40C700000E20F8F7F7FF1048F10100780F4A4007400F03280BD0042809D0A00208436946097A084380B21063A009906307E0E80301436846007A014388B21063946304490C
:40C74000462008607FBD0000F021000840113C4000103C40017E012901D9012101764279C9B253000B430179CA001A4310210A4303498A6002880A604088486070470000DA
:40C7800040103C4006490978814201D8002004E00449D022096A50430818603043837047CC1E00085C2100080349884200D908460249486270470000FF0F000040113C4090
:40C7C0000148806B80B27047C0103C402521C001C902401807494118086A1070000A5070486A9070000AD070886AC0B21071000A5071704700103C4070B50E4D14462A78D6
:40C800005207520F012A09D0022A07D0032A01D0042A02D1224600F00FF870BD02460B46E8880021F8F7CCFE012CF6D1FEF774FA70BD0000F0210008F8B594461B4F8207B2
:40C8400005D01A4F0023103F8E08B60015E08C08002303E09D007E5946515B1CA342F9D3A3000CE0DA191469C454240AC5186C70240A220AAC70EA701B1D9E42F2D88A07B9
:40C880000DD00A4A103A9A18146900228907890F03E09D184455240A521C9142F9D86046012801D1FEF738FAF8BD000050F13D4010B5114909784907490F01290FD002295C
:40C8C0000DD0032901D0042908D10C49496A0170090A4170090A8170090AC17010BD084A11680170090A417051688170090AC170FEF712FA10BD0000F021000800F13D40C3
:40C9000080143C400148806B80B27047C0103C4010B50A49F1240A681421414393681331595C24018B001B19102906D251682C225043085A02495918086010BDD401000873
:40C9400000103C400121814010B589B200227C2000F082FD10BD0000FEB5FF210120FDF7F1FF3F210220FDF7EDFF1F210420FDF7E9FFFF210820FDF7E5FF3020FEF704F873
:40C980007D48802101607D4C20784007400F032801D0042803D10BF03BFD0BF01FFC7748774E00784007400F022806D0032804D0042802D0012807D00BE00321316003281A
:40C9C00005D0042803D004E00020306001E00BF02FFC002211460320F8F78CFE69486A49028D4A61428D8A61828DCA610546624F00242035803709E03C636248818E62480A
:40CA000001632046FEF7B4FB641CE4B22878A042F2D85D480621C03881635A4C5A48218F816320460C30029000F0B0F9062268460299F7F75EFD69464879C02108436946D0
:40CA40004871684600F0DAF900F0B0F8FFF702FB4A4800784007400F032829D0042827D0E08FB8634748444940304088C0314860E08D0121C903084343490862434901205A
:40CA8000086141498031C8683F2280B212029043072212021043C8603F20FDF781FF374C20784007400F022804D0012802D008E04820D6E7FEF748F9354907208861FEF72D
:40CAC0002BF9E020FEF794F8E820FEF791F8F020FEF78EF80020FBF7D3FA2C490020486110228A618915F96227494031C86022485B21016020784007400F032801D00428A7
:40CB000001D10BF095FB20784007400F022806D0032804D0042802D001280AD00BE01D4830601D490869012280B252031043086101E01A4830601448C038416B0122114303
:40CB400089B24163816B114389B2816314494015086014482978006805F0FEF906F00CFB00231846FFF7D0F85B1CDBB2042BF8D30D4900204870FEBD00103C40F021000844
:40CB8000001F3C40AC1E0008C0113C40001A3C4080143C4003200000001E3C40E023000040503D40D00100089C21000804480021C1638163024974204039086070470000BE
:40CBC00040103C4070B51E4614460D4600F0A6FC0C49411808680122D20280B2012E09D0904300090001FF22284301329043002C04D005E01043044A1040F2E710221043AF
:40CC0000086070BD00103C40FFF90000F3B5254A84B0926900924A780B78120213430393CA788B78120213434A790979FF20120211438C461C499E46CA6B92B20292896B27
:40CC4000742289B20191184940390A60174900220F7F24E00121144B9140009C403BE3181C6889B2A5B21C681B68A4B2039E9BB26E407546654064462E435C4026430CD129
:40CC8000029B194209D00199D140CB070499DB0F8B4202D1104606B0F0BD521CD2B29742D8D8F8E7F021000840103C40CC1E000830B50A49FF20C96B094A8CB200210125B2
:40CCC000137F05E02A468A40224204D0491CC9B28B42F7D830BD084630BD000040103C40CC1E000810B50446E020FDF781FF20782246401CC3B20021E020F8F711FC10BDAB
:40CD000042790021012A02D901214171090342790A430179042914D049001143827B032A01D8D2001143427B52010A43817909021143012252031143054A91610088D0615C
:40CD4000704711460122920211430222E5E7000000103C4000B50120FDF716FE01494120086000BD00103C4000B50120FDF718FE01494020086000BD00103C40024A1063EA
:40CD800001488030C160704780103C404178027809020A4306490A60C2788378120213434B604279007912021043886070470000C0113C404278130202781A4301290CD0D5
:40CDC0000C498A62C278837812021343CB6242790079120210430863704707490A63C2788378120213434B6342790079120210438863704740103C4000123C404178027895
:40CE000009020A4306498A61C278837812021343CB61427900791202104308627047000040103C404178027809020A4306494A60C2788378120213438B60427900791202B7
:40CE40001043C86070470000001F3C40F0B50021FF2501350E4E0F4C15E0F1238A001B01D21893191A6892B2D7070AD0520852001A60884201D12A4300E0AA4301273A43AA
:40CE80001A60491CC9B2E27A8A42E6D8F0BD000000103C407C21000810B500222021302000F0DAFA05494320086001F009FDC007FBD10220FDF768FD10BD000000103C40A1
:40CEC00030B591B0054640216846FDF7A4FF0A4C0849A1630220FDF763FD6A782021302000F0BAFA4220206001F0EAFCC007FBD011B030BDFFFF000000103C40017942792B
:40CF0000490011438279D2000A43FF2101310A4303490A6302888A624088C8627047000000103C4010B50446E820FDF761FE20782246401CC3B20021E820F8F7F1FA10BD2C
:40CF40004178027809020A430749CA63C17882780902054B0A4340331A60417900790902084358607047000000123C40024A1063014880304160704780103C40094810B529
:40CF800081420DD8C8000521F5F7C2FD064989680818064980B2486003497220C039086010BD0000409C0000C0103C40001A3C4010B5074948200860064C206B4006FCD405
:40CFC000002211461020F8F795FB606B80B210BD00103C4040113C400349732008600349042048637047000000103C4000113C4010B500F093FA0121490200F04BF910BD04
:40D0000010B500F08BFA0121890200F043F910BDF0B515460F4604461E46FF2A04D000222946184600F0D6F86078237800020343E078A17800020143607922790002024336
:40D040000C207043C419084827183B60241D23181960241D20180260FF2D04D001222946304600F0B7F8F0BD00103C40012808D8044A916901235B0299434002084380B2AD
:40D080009061704700103C40084A106348780B78000203439360C8788B7800020343D36048790979000201431161704780103C40F8B51C4615460E46074600F041FAA9009E
:40D0C000044A2143801801600349B0004018C455F8BD000000103C40D92100080149C86070470000C0103C40044A916B8905890D8002084380B290637047000080103C403D
:40D1000010B50E490B68142141439A681331515CF122890012018918094A89180A6892B2D40709D0520852000A605A682C235843105A01221043086010BD0000D401000852
:40D1400000103C4038B5174B1B78834201D8002304E0154BD0241B6A60431B182024012906D0022904D0002A05D0002903D005E0188B204301E0188BA0431883187E8006A6
:40D180000ED58320C05C00280AD198786946FEF7B9FC68460088002802D01846FEF766FA38BD0000CC1E00085C21000810B50C4600F0B4F90649401801688AB240218A43E4
:40D1C000A10111430122D2029143016010BD000000103C40F12380001B01C018054BC3181868002A80B201D0084300E0884318607047000000103C4070470000F0B5174BE5
:40D200008C07C318002C03D000209508AD0014E09408002003E01D6886008D51401CA042F9D3A0000BE01C680C54240A0E187470240AB470240AF470001D8542F3D89407BC
:40D240000AD01C6800239207920F03E0C5184C55240A5B1C9A42F9D8F0BD000000103C40134610B50A4A12785207520F012A09D0022A07D0032A01D0042A02D11A46FFF7F5
:40D28000BDFF10BD0A460021F8F72CF910BD0000F0210008034A8018026892B20A4302607047000000103C40F0B5264BC518880703D000239708BF001DE09408002003E083
:40D2C0008300CE58EE50401CA042F9D3A30014E0C818401C044626783046667836023043A678E4783604304324062043CC5C00022043E8501B1D9F42EAD8900721D092070E
:40D300000020920F012A04D0022A04D0032A17D107E0C85C14E0C81841780278080210430EE0C81801460A7810464A78120210438A78C97812041043090608430002000A81
:40D34000E850F0BD00103C40F0B5424C00198C0704D000249D08AD00AC461DE09D08002403E0A6008F598751641CAC42F9D3AC0014E00D196D1C2E4637783D4677783F02B3
:40D380003D43B778F6783F043D43360635430E5D2D0235430551241DA445EAD89B079B0F551C002B22D0012B31D0022B40D0032B1BD112780B5D1206134309198A784978E2
:40D3C000120409020A43134303512B78EA7819466B7812061B021943AB781B04194311430902090A0019401C0160F0BD2B462D78127829465D782D0229439D78DB782D0492
:40D4000029431B061943090211430151F0BD1678D578334656782D06360233439678095D360433432B431B020B430351D178D9E755780B5D2D062B431578091949782D04D1
:40D4400009020D432B430351D178927809021143C8E7000000103C4070B5094BC5182868002384B2080003D104E040085B1C9BB2C607FAD08C439A40224390B2286070BDFB
:40D4800000103C40134610B50A4A12785207520F012A09D0022A07D0032A01D0042A02D11A46FFF701FF10BD0A460021F8F7A0F810BD0000F021000838B514460C4A1278FC
:40D4C0005207520F012A0BD0022A09D0032A01D0042A04D11B1F9BB22246FFF735FF38BD00930A4623460021F8F79CF838BD0000F0210008034A80008018405C8007800F43
:40D5000070470000D921000800B500F00DF802494018006880B200BD00103C40014900014018704708420100014900014018704704420100A121000149024018704700009F
:40D54000034A928A424350180249800040187047F021000800410100054B02469B8AFF208B4203D9880003494018805C70470000F0210008C521000800B5FFF7DBFF024905
:40D580004018006880B200BD00103C40F0B5304902460B680020002B14D10A6052070D26520F0024B601012A0DD0092503276D02FF020423022A1BD0032A2FD0042A2DD090
:40D5C00012200C60F0BD112292018A80CA80032252028A600122D202CA6040220A8205224A828A82CC610C624C628E618C62F0BD8D80CD8001225203CF608A6012110A82E8
:40D600004B828B82D2008E61CA61832252010A62432292014A628922520116E08D80CD800522D202CF608A60FF2201320A824B8229228B82D2028A61064ACA61054AC0323A
:40D640000A62054A4A62044AC0328A62F0BD0000F0210008C0480100404A010010B503460C460846FFF788FF02462046FFF74CFF012199400A4001400A4301D0002010BD12
:40D68000012010BD0A4600B501461046FFF764FF00BD000010B50F4801680F480818846AFF2102310C4202D0F8F750F80DE0406B400F022801D1A00607D5FAF72BF9074867
:40D6C0000069012180B201F071FA20460AF0E0FA10BD00006801000840F03D4000103C40F8B50446002000900E461546A178684609F07EFD002801D00720F8BD2B46324611
:40D700002046009900F0A8FEF8BD38B50546002000900C46A978684609F06AFD002804D1009928464C7000F0F2FE38BDF8B5044600206A46107005460846FBF721FB0600AD
:40D7400004D0012806D0162E3AD10DE001236A46002102E001236A4619462046FCF7DBFB0546012804D02BE001236A461621F4E78320005D012811D1CD20005DC0070DD02F
:40D7800068460078C1090DD1C00701D0232200E02A2231462046FFF7A3FF11E068460078C0090DD068460078C10720464030002901D0232100E02A2181762046FBF75CFB8D
:40D7C0002846F8BD10B582790A4201D0FAF774FA10BD10B5044680780021FFF7CFFA01212046FDF761F810BD8030C368002B0AD00B60817A11700169C160C17A81720021D3
:40D80000016108467047014870470000FFFF00008030C368002B04D00369002B04D004487047C160827201E00161C27200207047FFFF000000218030C160016170470000CF
:40D840008030C068002801D00020704700487047FFFF000070B505468035E8680024002806D0FBF78DFA002801D0012800D101242869002806D0FBF783FA002801D00128BB
:40D8800000D10124204670BD70B50446C0790E461546C1090AD04006400EE07101F0B6FC067021894180856006F0F1FA70BD70B50446C0790D46810601D43A2D13D13A2D7F
:40D8C00002D0DF210840E07101F0A0FC0570218941805E21095B818060342188C1806188018106F0CBF970BD38B54621095C04468034002910D1A16A00290DD18178684622
:40D9000009F088FC002807D100980021A062C181A06A4185A06A4180A06A38BD01480078704700003C22000810B50446FCF798FA01280AD10648A178026AD020484384305B
:40D94000105CF9F7C5FF012801D000F0F3FC10BD5C21000870B50C460546F9F759FC012838D02879032803D0042801D0072830D1E079A67900020643A8783146FDF714FCFA
:40D9800001282DD0284660304683A17809020182627811430182217909024182E27811434182617981823246611C284600F09DFB02212846FAF7C2FD2846C030417B822282
:40D9C00011434173287E0221C207D20FA878FFF7B9FB70BD01222421284600F04AFD70BD28215A2041552846FBF746FA70BD704770B50C460546FAF7E9FC00284FD120217D
:40DA00002846FAF759F9F4F789FF284661784030C176E17809028183A278114381836179C38B0A022179114320228B4203D0EB791343EB71C183E1792E460B02A179603611
:40DA4000194333888B4203D0EB791343EB713180617A0B02217A1943738843828B4203D0EB791343EB717180C18B70888000F5F74FF8401E318880B2814200D93080012134
:40DA80002846FAF75EFDC035687B822108436873E07AA17A000201437183F4F729FF70BD70470000F8B50D4606460027F9F7B0FB012845D0264CA07AC00707D04420805DAE
:40DAC000002806D0102803D01F212CE01A212AE001273046FBF75AFB002823D0344680340822691CE06AF6F704FDE06A697A20300172A97A4172E06A2946183008220B314A
:40DB0000F6F7F7FC29463046042213313830F6F7F0FC39463046FBF72DF8002810D1002F0FD012E007210322304600F0A2FC628A08213046FAF7A0F811213046FAF704FD61
:40DB4000F8BD06213046FAF710FD01202070F8BDAC1E0008704770B50446403000790D46022813D126468036F06A08222030691CF6F7BFFC29462046042209313C30F6F7FC
:40DB8000B8FC2046FAF7A2FF0120307070BD10B5FBF732F810BD70B50E4605462021FAF78BF82C468034A06A002804D0A97809F0B1FB0020A06231462846FFF778FE00211E
:40DBC0002846FAF7BEFC2846FAF73BFD002070BD38B504460020009020790D46032803D0042801D007281CD12046F9F711FB012818D0A178684609F0FBFA002811D10C48B8
:40DC00006A78807A00991040F5221040A075E07E08221043E076204600F05CFB2046FAF710FD38BD08222421204600F022FC38BDAC1E00087047000070B50D460446022126
:40DC4000FAF73AF82046F9F7E3FA012805D009222421204600F00DFC70BD0C486978807A6A1C0840F5210840A075E07E08210843E076E079EF210840E07100212046FFF73D
:40DC800003FE2046FAF7DDFC70BD0000AC1E000870470000F3B581B004460298FBF770F805462046FCF7D1F800287DD0192D04D32046029900F0ABF976E0264640363079F1
:40DCC000002700900300FCF70FFE0E1C1C1C08081C1C1C0808080808081C0298354A01780020135C8B4201D1012702E0401C0728F7D38320005D002801D1072901D0002F0F
:40DD000003D00098022816D02EE0A078FFF770F9002301223D212046FAF700FE3D20B0762046FFF756FDA178029809F0C9FA2046FBF7FEF8FEBDFFF7F1FD002814D1042D1E
:40DD400012D00D2D10D0112D0ED0152D0CD0072D0AD0092D08D0202217480299F6F7C9FB012000F003FC1FE020460299FFF7DEFC012819D0A8000F4D029908352A582046AE
:40DD80009047A178029809F09BFAFFF7C7FD0228D0D109480849007880002A5820469047002000F0E3FBFEBDA178029809F088FAFEBD0000D84600101C22000870B50D46EF
:40DDC00011490978814201D8002404E00F49D022096A50430C18002C15D0204600218030C1718079032802D12046FCF7F3FB2046FFF79AFD192D04D20549A80009582046AC
:40DE00008847FCF73DFA70BDCC1E00085C2100084447001010B50446403000790E2805D12046FAF72FFF01208034207010BD10B50446F9F7EDF9012802D1002040342070EA
:40DE400010BD10B5044640300179062905D00F2902D12046FAF73BFF10BD2046FAF748FE01208034207010BD70B50446054640342079072805D12846FBF7DEFF2846FAF738
:40DE800031FE20790F2801D10020607070BD000038B5044600220E4800920D46807AF5210840C0060FD52046FBF7E0FF01280AD0A178684609F09CF9002803D12046009954
:40DEC00000F0B4FA38BD2946204600F0A0F838BDAC1E000810B504461021F9F7EDFE2046FAF7E6FB10BD000070B5054610480C46807A400704D409782846FFF706FC70BD04
:40DF00006078032803D1A1782846FAF75DFD6078122803D110212846F9F7CEFE60781628EDD10448A1780068C2682846904770BDAC1E00080802000810B5FAF7D1FE10BD84
:40DF400010B54978FAF740FD10BD10B5FAF7C8FE10BD10B54421095C032901D1FAF7E8FD10BD012140304170704710B54421095C042904D00C2901D1FAF7C8FE10BDFAF7A1
:40DF8000F5FD10BD10B50446F9F742F9014620464030012900D1417000790D2802D12046FAF7AFFE10BD70B502790D460446052A03D0062A01D0082A01D1FAF717FD687824
:40DFC0005A21085509212046FAF7CFFAFCF7D4FE80212046FEF7D8F8FCF7EAFEA078FFF70FF82046FCF746FC70BD10B50446FF21F9F762FE16215A2001552046FAF798FF42
:40E00000A078FEF7F5FF2046FCF734FC10BD70B50C460546FBF724FF002802D02078E87570BD21782846FFF770FB70BD70B5054648780C46032802D12846FAF7E3FC60786B
:40E04000122806D110212846F9F736FE2846FAF72FFB0748214600684268284690476078162804D10348006881682846884770BDFC01000808020008704770B50D460446B5
:40E080000421F9F719FE6878A076E8780002E081A9780843E081687900022082297908432082E07E04210843E076800704D4204600F03AFA072815D0E079410612D5BF2112
:40E0C0000840E07101F0A2F80021017021894180E1898180A17E4170218AC18005F004FFFCF7CEF870BD7047704770B50446C07815460A4600280AD00020E070C1B2A0783D
:40E10000FDF78EF8A0782946FEF7C8FA70BD0120F3E70000F8B5064601200C46087005221949601CF6F7E5F9B078FCF783FE0546B0786946FDF7E6FC684600880A214843CB
:40E14000114942191039887B002802D0401E4300C018101835460C30603568834A7C0B7C12021A432A82CA7C8B7C12021A436A82097DA982A071000AE07108223146204694
:40E18000FCF7BCFAF8BD00006C2100087CB505468030866A0C46A878FCF74CFE014628465C30009001AB3246284600F031FAA878FCF740FE69468988FCF710FE69462846F4
:40E1C0008988603041830021217029464031CA7E62700A7FA2708A8B120AE2708A7F2271C98B0C22090A61710178A1710188090AE1718178217240886946000A6072888885
:40E20000A072000AE07229462046FCF777FA7CBD70B5054603200C4608702E4680360822601CF16AF6F765F9F06A08222030017A6172407AA072F16A204618310B30F6F70B
:40E2400058F929462046042238311330F6F751F9172229462046FCF751FA002070BD70B50546042008700C46AC20415908222031601CF6F73EF92946204604223C31093056
:40E28000F6F737F90D2229462046FCF737FA002070BD000070B505460C46C07910210843E8710820207002460021601CF6F72AF90748F522817A11406170C07A0922C007A0
:40E2C000C00FA07029462046FCF718FA002070BDAC1E000870B5054609200C46087008220021601CF6F70EF9A87D607005480922C07A2946C007C00FA0702046FCF7FEF91C
:40E30000002070BDAC1E00080B4610B501460A20187001221846FCF7F1F9002010BD0B4610B501460B20187001221846FCF7E6F9002010BDFEB50020694608720546334F4B
:40E3400060E03348016AD02068430E183046FFF777FA002854D18720805D002850D101AA69463046FFF740FA002849D100980478002C09D0012C16D00C2C23D0092C21D000
:40E3800069460A79314629E0012302AA00213046FBF7C1FD012804D030460099FFF7F6FE2EE00C221FE0012302AA19463046FBF7B2FD012804D030460099FFF7ABFE1FE073
:40E3C000082210E0012302AA21463046FBF75CFD00286846027906D131460098FCF78EF9022C05D00CE031460098FAF7E5F907E0B0780121FEF7DAFE09213046FAF7B5F851
:40E400006D1CEDB23878A8429BD8FEBDCC1E00085C21000810B50B46122119708178D977014601221846FCF769F910BD10B50B46132119708178D9770649896AC90603D16F
:40E44000018B402211430183014601221846FCF755F910BD00113C4010B50C461121217062700146A37003222046FCF747F9002010BD38B50446002000900D46A1786846C1
:40E4800008F0B6FE002801D0072038BD00980D210170457002222146FCF730F9002038BD0B4610B501460520187001221846FCF725F9002010BD0B4610B50146062018705F
:40E4C00001221846FCF71AF9002010BD38B5044600200090A178684608F08AFE002801D01F2038BD009D022028705A20005D6870A078E877208B1021084320832046FFF7AA
:40E5000068F9022221462846FCF7F8F838BD10B50B46072119708178D977014602221846FCF7ECF8002010BDF8B50546002000900D4EA9783488684608F05AFE002801D035
:40E540000720F8BD00980C210170717941708470210AC170F2880271110A417106222946FCF7CCF80020F8BDAC1E0008094A1178002906D0012909D0022908D1002807D00E
:40E5800001E0012804D00021002900D0107070470121F9E73C22000800B500F016F800BD704770B50546FFF79FF9044602884188A87804F085FCA084E0886082A088208235
:40E5C0006088E0812088A08170BD4018400870470246603000885E21895A401C4843C10800D101214008528A00E0401A8242FCD9704710B56021095A80780A01511A10311A
:40E600008CB2FCF717FC2146FCF756FA10BD0000FFB581B0054604464035288A69460A9F08801E46A078FDF76DFA694609880A20491C41431048807B002802D0401E420087
:40E640008018081881B20298FCF736FA3080A07804F024FC06468320005D012804D1E98BA078042204F0C2F9A078314604F05CFD388005B0F0BD00005C210008F8B51546E8
:40E680000E46074600F00EFA0446012804D02A463146384600F0B6F92046F8BD014600B50020890701D500F00BF900BD014600B50020890701D500F003F900BDF0B593B015
:40E6C0000020FF210391059007901290012612A92F2005F008FD002804D000F097FD0446002600E0129CFEF76BF881040507890E40060891C00F891F2D0F06900491202949
:40E7000031D2062D2FD800F0DBF8C0072BD03E2020700220A0700120E07003210420624F062D2DD0022D2ED0042D2ED025715E48417949084900417106986071A01D06216C
:40E74000FCF769FBFCF79CFC070006D0574A611D1268A01D126A904703900498012DC0B2029020D044E0002E02D0204605F0C2FC00F04CFD402102A8FCF74DFB13B0F0BDB4
:40E7800002202071D3E72171D1E720717879C007CDD0002E02D0204605F0ACFC002600F035FD0446C3E70398FF280BD040482C220068416803985043095A4120884301D16A
:40E7C000012007903B48407E012804D10799002901D1012F02D0002F06D007E00120059020730D270B2006E00128F7D00020029020730D270220A0700898062824D0049812
:40E800002746C1B20D373846FCF705FB0598012817D12948006B03A9C007C00FFCF730FBA07C8009012806D13946062203A8F5F751FE002805D10020203FF8770290022087
:40E84000A07002980D30C7B2FEF75CF8694688806A4601A90620F6F74DFF69460878E0557F1E16486770407801280BD12A46A01D069900F017F9012811D02A46A01D0699EA
:40E8800000F0C0F8002E04D02046059905F018FC74E7054801224179114341716EE7204605F028FC6AE700005C210008EC010008D4010008A021000800103C407D2200089E
:40E8C0000248806B0004000E7047000000103C4010B50446000701D5FFF7F0FEE00601D5FFF7ECFE0248006881692046884710BDEC01000810B502460178FFF7E1FF814270
:40E9000001D10C2010BD0D485378002443705470002908D000F06EF81046FEF7D1FA0420F9F74AF907E01046FEF7B6FA0520F9F743F903480476002010BD00007D22000801
:40E940007C210008F8B50446FFF7BAFF002801D00C20F8BD6079164DFD2702260128E8781DD03840E87013480068416820468847A0790128A87814D03840A8702046FEF7D2
:40E98000BDFA0B48218862882030914203D1017E0122114301762179012904D006E03043E0E73043E9E7017E314301760020F8BD5C210008EC01000838B5002001460090BE
:40E9C000684608F0FFFB002801D01F2038BD009C002161712171A1711021218020466180FEF78CFA204608F077FC00F003F8002038BD000002480021017007218170704706
:40EA00007D220008F7B50C2082B0254D0F46002400902878E040C0072DD02148E10040380E18062230460299F5F754FD00280AD1B079B84207D1F079002801D0062802D167
:40EA4000049804280BD02878E040C00713D0641CE4B2082CDDD300980C2803D00BE00420F07119E0A878401CC0B2A870082801D10020A870C4B20A48E10040380E180622D8
:40EA800030460299F5F735FDB7710498F07128780121A14008432870002005B0F0BD00007D220008F7B5164E00243546403529780120A040014217D0E0008719B979019818
:40EAC000814211D1062238460099F5F703FD00280AD1F879022810D004280ED001280CD0002807D0062805D0641CE4B2082CDED30020FEBD02980428FAD00120FEBD000075
:40EB00003D22000801484078704700007D22000870B5064614460D46500702D5A8B2FAF72DFE200702D5B0B2FAF7E8FBA00702D5280CFFF7CDFEE00702D0300CF9F72AF99E
:40EB400070BD70B5044660C8F8F7C8FA2089C01F0300FBF7C9FE0C071A121E212412122712171312F3F7F4FE032801D1F7F76EF9294630466289FFF7CBFF70BD284604F054
:40EB800063FD70BDFAF750FB70BD2846F8F74CFC70BDF8F74DFF70BDFAF76CFB70BDFAF793FB70BDE8B2FAF7ADFD70BDF3B5002189B0069105910C460391009101910291C7
:40EBC000F74989688EB230400490B00618D5FCF74BF9F44908800120F6F7B2FEF24900200870F3F77DFE012802D10020F6F72CFE2020FBF7A1FE0420F7F75CF901200590EA
:40EC0000EA487107009024D5E5484030006987B20498400718D5F80613D5E5480021026A009800780BE0884201D8002502E0D0234B43D5182B79022B29D0491CC9B288426B
:40EC4000F1D8B80880000390394600220420FBF759FE300775D5D748406B80B20190D0488030806A87B2049800076BD5019804218843384367D0D048C06BC006C00E02906A
:40EC8000009801780298814211D8002515E02846FDF7E4F82846FCF777FD2846FDF74FFA40212846FDF770FAFDF770F9C9E7C048D022016A029850430D18002F05D02846C2
:40ECC0004030C18A3C433943C18201988207B84801463C31403006910090002A3DDA2879002803D1C420405D002833D102212846FCF71AFE2846FDF7B7F907A90298FCF738
:40ED000001FFA878012103F0A1F9002817D1FDF755F8002813D14620405D012807D1C0217A204959405BC98B401E884207D08320405D002808D16846808B002804D0012081
:40ED400006E0ABE099E095E00698FCF76BFE0020009908700120F6F703FEF80657D52879002803D1C420405D00284DD104212846FCF7DAFDF3F7ECFD03280CD1C0204059BB
:40ED8000807A002810D18320405D00280CD101212846FCF785FFC0204059807A002803D18320405D00280DD000980078012809D0002810D17E480021C06B807803F046F9F9
:40EDC000002808D02846FDF74FF90698FCF72AFE0099002008707648C06B002809D001216A465172017B1172FDF7F4F802A8F6F739FD28460A3009F015FA2846C0300179CC
:40EE0000002901D1012101710220F6F7A9FDF80705D07805400F022801D1F6F7A1FD28464030018B06912946C031CA88C08A824201D00443C880087B002805D1A035287F49
:40EE4000012801D010208443600609D500984078002802D04020844302E0009801214170394600220820FBF74DFD544901980840504948633F2000028443019840070DD5EE
:40EE8000F6F71EFBF6F78CFF4A4904204863FCF7BFF9012802D10220F6F762FDB00719D53F48806B85B20498800709D50399280408430390FFF704FDC00701D00120059023
:40EEC00081210398490488430390294600220220FBF718FDF0073AD03148006A85B20498C0072CD02804044329208001054206D033492846096849698847012864D005203E
:40EF000040068443A8071AD50220F6F729FD284F2037B87AC00712D0787B00280FD0387BF97A88420BD2274800688168387B14225043801D0818FDF775FF00207873812074
:40EF400040048443294600220120FBF7DBFCF00605D50120F6F7F4FC1020FBF7EDFC700602D54020FBF7E8FC039806992043084301D00120059007206946088103980090B6
:40EF80000194049848810598002807D069460EC90A98002850D0002008F04CFA0BB0F0BD00103C40E6010008CC010008CC1E00085C21000800113C4000503D40FBFF00006A
:40EFC000EC010008D4010008FBF784FB074600218030C170384640300090807BFF2808D138464830FBF7BCFF384600214730FBF7D5FF00983946C0794831FBF767F8FF2846
:40F0000005D0292080058443FDF7AEFE7AE73846FCF77AFF3846FCF7E3FB3846FCF71EFF3846FDF78CF840213846FDF7ADF8FCF7ADFFFDF78FFE65E7002008F040FAADE7DE
:40F04000F0B587B0054605A81E461746019100900C9C04AB06AA02A903A800F0CFF92846FCF706FA21463046FCF78AF96846017A0398FBF79FFD05A904A8FBF74DFD68467A
:40F08000027E21463846FBF71BFD07B0F0BD000070B50948C4782046F8F758FE06462046FFF7FCFA05462046F9F7C8F9014630462843084370BD00005C21000870B5094885
:40F0C00084782046F8F74AFE06462046FFF7EEFA05462046F9F7CEF9014630462843084370BD00005C210008F8B5069E1F463478042C17D3231FDDB23B460095FFF7A0FF62
:40F100003819001FFCF7EEF90520FDF74FFA0446012229460798FDF76FFB3570E00701D00020F8BD1F20F8BDF8B51C46009301271346069E079D3A46FFF782FF2846FCF761
:40F14000D1F90520FDF732FA0546012221463046FDF752FB2846F8BDF8B51D4616460F460024FCF785F931463846FCF709F90320FDF71CFA012231462846FDF73DFB2046CA
:40F18000F8BDF8B5069D089E2C780094FFF758FF0120FDF70BFA07463046FDF789FB0023224631460798FCF773F8241D2C70780701D41F20F8BD0020F8BDF8B51C4600932F
:40F1C00001271346079E069D3A46FFF739FF0120FDF7ECF90746002221462846FDF70CFB3046FDF765FB3846F8BD10B500F02CF90446F9F7B7F80128F8D1204610BD10B5B5
:40F2000000F022F90002000A10BD0000004870478422000808B500F017F96B4600210090585CC006C00E421F0B2A04D9491CC9B20429F5D3EFE708BD08B56A4600210B203A
:40F24000F6F758FA6846007808BD0000FEB5064601200290042017460D46444C0090FBF703FE28802146FBF727FC3080F8070BD0FBF73EFE019028880199FBF721FEA04221
:40F2800002D2044601983080B8070BD5FBF742FE019028880199FBF713FEA04202D204460198308078070AD5FBF728FE074628883946FBF705FEA04201D204463780F6F765
:40F2C0000BF900280AD0FBF709FF074628883946FBF784FDA04201D2044637802448807B00283BD0FBF710FE074628883946FBF7E7FD0546A04231D2FCF7DEFB1D4909789A
:40F30000814201D8002004E01949D022096A504308180190F7F77CFF002817D101983D21C0300068C089F3F7F3FB401DC0B200900A280BD90A21F3F7EBFB0091854204D39A
:40F34000391A281A8FB285B200E0002537802C460198F7F75DFF002800D102900098FDF7BDFE0298FDF7C0FE2046FEBDFFFF00005C210008CC1E000810B50E4C0C492346DE
:40F380000833A160002142189278002A00D05A54491CC9B20429F6D3FF21A0689A314843A06000F051F8F8F7DDFF0128F9D110BD040302015C21000870B5059C049D207046
:40F3C000060A6670060CA670000EE0704806D101400E0843207104221946601DF5F789F82046042229460930F5F783F870BD00000149086070470000E8010008F8B5079C76
:40F400000E46E178069D09020160A77839430902016067783943090201602778394301602079611D4006400E30702079C009107004221846F5F75DF821460422093128469F
:40F44000F5F757F8F8BD000010B5FBF70DFD094A916848400849096848408108C3084409414063405940C30F59404008C9070843906010BD5C210008E8010008F3B5074669
:40F4800081B00E4800240E4E0E4D10E031682C234A6821465943535CDB0706D01B315118029801F02BFB002805D0641CE4B2E97AA142EBD8FEBD3C70FEBD0000FFFF000054
:40F4C000D40100087C210008FFB585B00C4600200090A004850E0E99684601810026FFF711FB6106C90F27073F0F0191012805D13A460798FFF7C2F8012849D069462F200E
:40F5000004F0F1FD002843D1009C3E2020700599022001290CD0A070A81FC6B20120E0703B00FBF7E1F907080A0C120E121012000B20A070F2E7002008E0012006E00320D7
:40F5400004E0042002E0022000E0FF20207101986071A01D06220799F4F7CBFF0598012818D0267320460D30AA1F0899F4F7C1FFED1DEDB203AA02A90620F6F7BBF86846D7
:40F58000007B60556D1E65702046059904F098FD09B0F0BD01202073E4E700000249014808607047A8470010EC010008704700207047FF2070470120704710B5400606D580
:40F5C000FF210020FAF736FA0220F8F7F5FA10BD7047704770470020704770477047002070470020704700207047002070470020704700000249014808607047EC4700104A
:40F60000EC01000870B512248AB00D46064600292FD000200290039004900590102202A92846F4F757FF002823D00821684607F040FB6946487940214006400E08436946FC
:40F64000487103226C46C91C02A8F4F752FF0322E11CF01CF4F74DFF06AA294602A8F7F755F90404240C04D1032206A93046F4F740FF20460AB070BDF0B50546FF2129704E
:40F680000022144C144B072011462468DB7A0FE02C2766684F43F65DF60707D014274F43A6681337F75D0126BE403243491CC9B28B42EDD8D143002207E0CC0702D02A7060
:40F6C0000020F0BD4908521CD2B29342F9D90029F3D1F0BDD40100087C21000870B50546FF210D4A297014680C4A0A480021D37A0CE02C2266684A43B25AD60704D052077A
:40F7000002D52970002070BD491CC9B28B42F0D870BD0000FFFF0000D40100087C210008F8B50C460546FF206946087068798009012807D022782946684601F063FA68463D
:40F740000078F8BD2946684601F092FA68460178FF29F4D00A4E2C22306851434068091D411806222846F4F7C4FE30682C2241686846007850430A30085C801C2070DEE79C
:40F78000D40100083EB50446FF206946087213480068C007C00F19D001216846FBF7E0FB684640798009012813D02278694602A801F028FA6846017AFF2907D008482C2240
:40F7C0000068514340680A31405C20706846007A3EBD694602A801F04BFAF7E7001F3C40D4010008F0B589B01646044600256A461570FF201075CC48072700680278CB483D
:40F800000790C07A82426FD2204606F0C7FB07006AD10C27F7F7E2F8FBF732FC002804D0C248203840784007F2D1A27A211D684601F0E8F9BE490746884220D1684606902A
:40F8400000208446FF206946087007990727CB7AB5490020096807910EE007992C2249684243895CC907C90F614503D106990027087012E0401CC0B28342EED80DE0002E61
:40F880000BD1A9486A46006881681078142250431330085C6A46107501252846384303D105A8FFF7E9FE0746002FB1D16846017D9D48142300688268684600785843133044
:40F8C0001154012E11D098482C230068002241686846007858430A52934800684168684600785843801C0AE01AE18F482C220068062341686846007850430A5A1A400A52B4
:40F900000020019002900390049087482C230068A27A41686846007858430A300A54824800684168684600785843002A03D00A5A10231A430A527C482C22006841686846FF
:40F94000007850430B300818214610220B31F4F7D0FD75482C22006841686846007850431B300818214610221B31F4F7C2FD6E482C2200684168684600785043001D0818BA
:40F980000622211DF4F7B5FD6748142200688168684600785043081806220021F4F7B2FD6148142200688168684600785043801D081806220021F4F7A5FD5B481422006895
:40F9C00081686846007850430C30081806220021F4F798FD012E33D0534C2C22206841686846007850431B300818102201A9F4F771FD0223002820686946406809780FD00B
:40FA00002C225143425A1A43425220686946426808782C214843801C115A012319430EE02C225143425A9A43425220686946426808782C214843801C115A4908490011527D
:40FA4000394C2C22206841686846007850430B300818102201A9F4F73DFD0028206822D06946097842682C204143505A04231843505221682C234A6869460978594380235A
:40FA8000184350526946226808782C21414353680B315918142392685843801D1018FFF7B1FD074608E04168684600782C2250430A5A84239A430A5220682C2142686846CC
:40FAC00000784843011D0A305118105CFDF79EF80823FF28206869464068097804D02C225143425A1A4303E02C225143425A9A43425220682C2241686846007801235043BD
:40FB00000A5A1A430A52684600210078FAF754FF38462843304303D120680178491C0170384609B0F0BD0000D40100087C210008FFFF000038B50A461B4909784907490FE8
:40FB4000022903D0032901D004292AD11749897A490626D50146684601F054F80006000E1FD1134C2C222068082341686846007850430A5A1A430A5268460078FAF7D6FAB9
:40FB800000280AD020682C22416868460078012350430A5A9B021A430A5268460078FDF7AFFA002038BD0000F0210008AC1E0008D4010008F1B584B000260396FAF78AFD7C
:40FBC0000446FBF75DFA002830D0049880057DD5FF2069460870002101A8FBF7C1F96946487A8009012824D0022836D001273A4601A9684601F006F805000AD0012047405E
:40FC00003A4601A9684600F0FDFFB6490546884225D0B5482C2200684168684600785043085CC04380071AD4AE4D1AE0012005B0F0BD01A96846FFF721FC050011D101201B
:40FC40000390A9482C22006841686846007850430A30095C4720015503E00027C7E747200755F8F78BF8002D57D1012823D0042821D00220F8F75EF801281CD19A4D2C2160
:40FC800028684268684600784843011D0A305118105CFCF7BBFFFF283FD028682C22416868460078082350430A5A1A430A5268460078FDF725FA039800281CD08A4D1422CC
:40FCC0002868816868460078504300E032E00818062201A9F4F70DFC286814228168684600785043024613328B5C08187F492022096AFDF78DF9684600784E2108557A4952
:40FD00002C22096850434968001D0918204606224830F4F7EEFB012675E0754880694007800F012803D100217248FDF743F8FDF71BF868E00498400665D5FF2668466E49B4
:40FD40000670684F0868012280B2920310430860002101A8FBF704F9FBF792F925464035AE73012600284ED06846407A8009012828D0002201A9684600F044FF002806D0E0
:40FD8000012201A9684600F03DFFB8420AD056492C2309684A68694609785943515CC943890701D5002812D05448807AC0072AD00020FDF71DF94E4880694007800F0128C3
:40FDC0001AD01DE001A9684600F052FFEAE768460078A87344492C230968584303464A680A33D25CEA714968001D0918204606224830F4F77EFB06E000213E48FCF7DAFF16
:40FE0000FCF7B2FF0026049800053CD5FF2568460570344E002101A8FBF7A2F8002201A9684600F0EFFE002806D0012201A9684600F0E8FEB04221D02B492C2309684A68B8
:40FE4000694609785943515CC943890716D428488169006A89B2C0050CD44807800F012803D100212348FCF7A5FF0020FDF7C0F8FCF77AFF4034A5730020D8E6002804D043
:40FE80004034A57301263046D1E6174D2C222868022341686846007850430A5A9A430A522868142281686846007850431330085C00221946FDF78EF96846214600784031F3
:40FEC00088732A682C256843054653680A355B5DCB715168001D0918204606224830F4F708FBCFE7FFFF0000D4010008F021000800103C40F0010008001F3C407C210008E6
:40FF0000F0B500278BB004463E46FAF7E3FB08907A4D60057ED500200690059009A9039004900191009007AB03AA05A90320FBF745F86946898B4906CA0F002816D16846B9
:40FF4000407C03A98009012802A815D000F05AFE6B4988420AD029682C234A686946097A5943515CC943890700D465486946497E8909012904D011E0FFF780FA0127F5E7A3
:40FF8000002873D128682C2241686846007A50430B30091805A800F0B1FD0126002865D10120F7F7C7FE01281BD169460A7A28682C214A434068131DC1180A32805CFCF725
:40FFC00025FEFF2852D028682C2241686846007A082350430A5A1A430A526846007AFDF78FF83800474F1AD02868142281686846007A50430818062203A9F4F77AFA286863
:020000041001E9
:40000000142281686846007A5043024613328B5C081800E02AE02022396AFCF7F9FF002E24D028682C2241686846007A402350430A5A1A430A522868142281686846007ADD
:4000400050430C300818062205A9F4F752FA2868142281686846007A5043024613328B5C0C3008184022796AFCF7D2FFE00606D525490868012280B2D20310430860E004D9
:400080002AD500206946087209A90191009007AB03AA05A90320FAF791FF00281CD16846808B03A94006C20F6846407C8009012802A804D000F0A6FD002803D00CE0FFF7D8
:4000C000DDF9F9E728682C2241686846007A5043085CC04380070ED509208001044201D1200508D508984030817B0020F9F7A2FC0220F7F761FD0BB0F0BD0000D401000806
:40010000FFFF0000F0210008001F3C4070B50C24F6F764FCFAF7B4FF002803D00E484078400717D1FAF786FD0C4D002128680A4C01702034E27A2C214A4340680021F4F70C
:40014000E1F9E27A14204243286800218068F4F7D9F90024204670BD5C210008D4010008F8B5144800784007400F022803D0032801D004281DD11048807A400619D500244D
:400180000E4F08250E4E11E038682C21426820464843115A0B4BA94311523A681940526811522046FCF7ACFF641CE4B2F07AA042EAD8F8BDF0210008AC1E0008D401000813
:4001C0007C210008FFFB0000F0B504468BB0AD48002607903546600605D4A00603D4E00501D4A00528D5FFF711F809A90191009008AB03AA05A90020FAF7E0FE0790600624
:4002000001D4A006EED5002069460872FF2000900798002810D1088C41060007000F01906846407CCA0F8009012803A902A804D000F0E8FC002804D000E1FFF71FF9012659
:40024000F8E76846407E904F8009012810D1019801280DD138682C2241686846007A50430B30091805A800F049FC01250028E3D186488078F8F7FEF801281CD169460A7A9B
:4002800038682C214A434068131DC1180A32805CFCF7BCFC0090FF28CED038682C2241686846007A082350430A5A1A430A526846007AFCF725FF019801283DD1002D3BD01A
:4002C0003868002E05D081686846007A1422504305E041686846007A2C225043001D0818062203A9F4F7F6F80006000E01D1002E24D168463A68007A2C23434351680B3361
:40030000C9181423926858430C301018FFF77AF909903868142281686846007A504302461332801D8B5C081859498022896AFCF76FFE099800287DD1002E3CD03868142241
:4003400081686846007A50430818062203A9F4F7D0F83868142281686846007A5043024613328B5C08184A492022096AFCF750FE0098FF281FD0386842686846017A2C202E
:400380004143505A430702D5019B012B01D1002D03D001235B021843505238682C2241686846007A202350430A5A1A430A526846007AFCF7A5FE002D40D038682C22416892
:4003C0006846007A402350430A5A1A430A523868142281686846007A50430C300818062205A9F4F786F83868142281686846007A5043024613320C308B5C08182449402294
:40040000496AFCF705FE21482030807A400715D50098FF2812D038682C2142686846007A4843115A4B0703D501235B0219431152684600E002E0007AFCF762FE200606D531
:4004400014490868012280B2D20310430860E00501D4A00510D5002069460872079800280AD1088C4006C20F487C03A98009012802A803D000F0C6FB0BB0F0BDFEF7FEFF46
:40048000FAE70000FFFF0000D40100085C210008F0210008001F3C4010B5054A01781175411C034806220E30F4F723F8002010BDA0210008F8B515461E46024600206B46E5
:4004C0001870684600F09EFB0406240E02D002242046F8BD0948002E006881686846007802D01422504302E014225043801D091806222846F3F7FDFFEAE70000D4010008CA
:400500000148C07A704700007C210008F8B50646002768463C4D0770286802240078002818D0304605F03EFD040013D10C24F6F755FAFAF7A5FD002803D0344840784007CD
:4005400008D13278711C684600F05CFB0406240E02D002242046F8BD28682C2241686846007850430F5268460078FCF7D1F9296808780028EED06A461278431E93422AD042
:400580004B682C2148432C3819182C20424398182C22F3F7AEFF2968142288680978142351436A461278143941185A4380181A46F3F79FFF28682C224168007850432C38BF
:4005C00008180021F3F79EFF2868142281680078504314380DE048682C214A4380180A460021F3F78FFF286814228168684600785043081814220021F3F784FF28680178E0
:40060000491E0170A6E70000D40100085C21000838B50A46174909784907490F022903D0032901D0042922D11349897A49061ED50146684600F0E6FA0006000E17D10F4B56
:4006400069461868097842682C204143505A0824A043505219682C234A68694609785943074B1840505269460878FCF749FD002038BD0000F0210008AC1E0008D401000816
:40068000FFFB0000F0B58BB00446FF206946087200200A90A00605D4600603D4200601D4A0057DD5FEF7B2FD08A909900191009007AB03AA05A90020FAF780FC01908E4E4F
:4006C000A00601D460066CD50198002869D10025694600950D72888B4006C20F487C03A98009012802A804D000F08CFA070009D013E0FEF7C3FE070001D001250DE0012020
:400700000A900AE030682C2241686846007A5043085CC043800700D4784F6846407E800901281BD16846808B0007000F012815D130682C2241686846007A50430B300918D4
:4007400005A800F0DBF9002804D00225384304D0012703E001210091F8E70027002F7AD167488078FDF7A2FF01281ED130682C2142686846007A4843011D0A305118105C95
:40078000FCF744FAFF2866D030682C2241686846007A082350430A5A1A430A52684601E0A5E06EE0007AFCF7ABFC30682C2142686846007A4843115A4B0707D501235B0247
:4007C000194311526846007AFCF79AFC00984D4F002824D030686946097A40682C225143425A40231A434252306869468268087A142148430C301018062205A9F3F779FEE7
:40080000306869468268087A1421484301461331535C0C3010184022796AFCF7F9FB0A98002818D03068142281686846007A50430818062203A9F3F75CFE30681422816868
:400840006846007A5043024613328B5C08182022396AFCF7DDFB002D13D06846818B0807000F012805D12848407E012801D1022D10D06846008C009003AA0020099BFEF72A
:4008800023FEA00533D50020694608720198002807D015E06846008C009005AB03AA0120EDE7888B4006C20F487C03A98009012802A81ED000F0A6F96846007AFF2816D0D0
:4008C00030682C2142686846007A4843115ACB439B070CD50A4B20339B7A9B0707D501235B02194311526846007AFCF709FC0BB0F0BDFEF7C3FDDFE7D4010008FFFF000061
:400900005C210008F0210008A021000870B5054605F05AFB04000DD107484078400709D1F6F75CF8FAF7ACFB01462878884201D0FAF7E4F9204670BD5C21000870B50646DA
:4009400005F048FB040010D1094D287EF5F73CF900280AD132887D20EA82C00042432846044B00211830F5F7CBF8204670BD0000A02100085D0B011038B505460020694681
:400980000C240870FAF77CFB002803D01E484078400708D12A78691C684600F033F90406240E02D00224204638BDE8790223174A002810684168684600780ED02C2568433E
:4009C0000D5A9D430D521068142281686846007850431330085C002211E02C256843851C4D5DED07DFD00D5A1D430D521068142281686846007850431330085C01220221FA
:400A0000FCF7E8FBCFE700005C210008D4010008F8B50024264E054600291AD00C213046F4F760FC0004000C40D1E9792C2041433068001DF4F756FC0004000C36D1E9797D
:400A40001420414330680830F4F74CFC0004000C2CD118484022817A002711438172E879154D2C21E87230680770EA7A40684A433946F3F747FDEA7A1420424330680021EE
:400A80008068F3F73FFDFF2007E014223168624313328968641C8854E4B2E97AA142F4D8E1200649AF728000C8820020F8BD0000D4010008AC1E00087C210008A021000847
:400AC00070B5FF2815D00B4A0446126853682C2254431A5BD5070CD055070AD5002903D0012189020A4301E003490A401A53FCF707FB70BDD4010008FFFB000070B5164C4A
:400B000088B00E46050023D0002E21D0002000900190029003906879400619D5102269463046F3F7D7FC0006000E11D00322E91C6846F3F7DEFC04AA31466846F5F7E6FE4F
:400B4000032204A92846F3F7C5FC002800D10024204608B070BD0000FFFF0000F8B51E491F4B0878401E08701C480021C28A7D20C000424319481830F4F7C2FF0024194DBE
:400B800023E0194B20461A682C26516870430E5CF60718D00B30091820461423584392680746861D9019FEF72DFD0006000E0AD10D48133700680D498068896AC35D8019B3
:400BC0008022FCF725FA641CE4B2E87AA042D8D801206873F8BD00007A010008A02100085D0B01107C210008D4010008F021000810B5014606220248F3F77BFC10BD00007A
:400C0000F0010008F7B582B016490091FF20029900240870144E154F1FE030682C21254640684D43291D401806220399F3F752FC002810D13068294640680A31425C049982
:400C40008A4208D1405DC00705D0029804700020009005B0F0BD641CE4B2F87AA042DCD80098F6E7FFFF0000D40100087C210008F3B581B0FF200199114F08700024114D77
:400C8000114E17E02868062281681420604308180299F3F71FFC00280AD1286841682C206043085CC00703D001980027047004E0641CE4B2F07AA042E4D83846FEBD00000E
:400CC000FFFF0000D40100087C210008FEB50446002069460190087007460646014606225448F3F70FFC5348FCF72AF96079524D022801D003287DD1A279E11D6846FFF7AC
:400D000081FF0606360E23D14C482C230168684600784A684343D25C120619D5142289685043801D0818FCF77DF84448142200688168684600785043024613328B5C801D55
:400D40000818892180224901FCF762F9012001902079012801D0042815D168460078FF2811D036492C22096842434B681B329A1889681423584308181146FEF743FC0606FB
:400D8000360E0BD000260198002842D0A87A01210843A87268460078287345E0274F2C2238684168684600785043085CC043800702D5E01DFCF7C4F83868142281686846E8
:400DC0000078504309180622E01DF3F792FB386814228168684600785043024613328B5C081817492022096AFCF712F938684168684600E014E000782C2250430A5A012360
:400E00005B021A430A5268460078FCF779F90127B9E76079022801D0032801D1801E6071A87A40084000A872002F01D00120A0713046FEBDF00100087C210008D401000867
:400E4000F0210008F3B587B00C46FF206946087000250595019508728548039060792F46022801D0032800D10127207E022801D0032800D10125FAF703F9002810D02079FD
:400E80007C4E012819D06279002F01D0921ED2B2A11D6846FFF7B6FE0390002816D0BEE0002F02D06079801E6071002D02D06079801E6071002009B0F0BD002DEFD002A846
:400EC000FEF70CFC039000287ED0A8E06A482C230168684600784A6843431B33D31889681422504308181946FEF78CFB0799039040310491002836D0002D66D05E482C22F0
:400F000000684168684600785043085C40075CD506220021A01DF3F7F5FA04986179C1710121A01DFBF746FF534D1422286881686846007850431330085CFBF787FF2868B7
:400F40002C22416868460078032350430A5A1B021A430A5268460078FCF7D2F8B07A04210843B07279E04448142200688168684600785043024613328B5C08183F4920223F
:400F8000096AFCF745F806220021A01DF3F7BAFA04986179C1710121A01DFBF70BFF0120019035482C220068FF23416868460078013350430A5A1A430A5268460078FCF794
:400FC0009FF82D48006801E01AE028E0816868460078142250431330085CFBF737FF002D1DD025482C2100684268684600784843115A4B0713D501235B0219431152A9E7E7
:401000001D482C220068012341686846007A50430A5A5B021A430A526846007A9CE7B07AFB210840B072002D17D00598002814D1207E801E20766846007AFF280DD00E4925
:401040002C2209685043496801230A5A5B029A430A526846007AFCF753F8002F05D00198002802D16079801E6071039823E70000FFFF00007C210008D4010008F0210008CB
:40108000FEB5054640790027424E022801D0032845D16846FEF722FB07063F0E12D13E4C6846226800782C21414353680B315918142392685843801D1018FEF7A3FA0706E6
:4010C0003F0E05D06879022827D0032825D026E020681422816868460078504302461332801D8B5C08182D498022896AFBF790FF0120687120682C224168684600780123C6
:4011000050430A5A5B021A430A5268460078FBF7F7FFB07A022108431CE0801E687101204002002401900FE01B482C22006862434168019B885A98438852C00702D02046E9
:40114000FBF7DEFF641CE4B2F07AA042ECD8B07AFD210840B0720F49A8792039104A03280BD0022812D001280CD0002050768878FD22104088703846FEBD01205076A879F7
:40118000801EA871887802221043F3E701205076F1E700007C210008D4010008F0210008A021000810B509490748096888420AD10748084BC28A7D20C0004243044800214B
:4011C0001830F4F79DFC10BDEC470010EC010008A02100085D0B0110F7B515460C46F9F74FFF0746FF2C3DD0002F3BD014212646687C4E432C2180094C4301281AD11C4893
:40120000214600680A314268525C0099921C4031CA714168201D0918284606220C30F3F768F91348062200688068811928461830F3F75FF90098F5F7EBFF002815D0042031
:401240000C49897A01420DD0094800684168095D490707D58068B61D8119284606221230F3F747F9F807C00FFEBD0120E8E70000D40100087C21000810B510490A781049B7
:40128000824201D8002003E0D0230A6A58431018002812D00A6B138802468032146B23800B6B146B5B88A3810B6B126B19881289914202D05A8800F009FB10BDCC1E0008C9
:4012C0005C210008024901484860704750480010F8010008F7B50D463449334F897A84B03E4689065DD52C468034216B0A8B2946C0310091824204D3886820308078002820
:401300004FD0002A02D12A48006B828828460699F5F7A6FD0646B84208D12889002102F098FD069805F0D8FF00263AE00027FF2069460197087200988068203081780129F2
:4013400003D1A178002900D0C170A078401CA070A878FCF711F90407240FA878FCF7D4F80007000F04430F2C00D00127002416E00120009002AB03AA01A92846F5F7B8FC2B
:4013800000280AD10199002907D06846037AFF2B03D0027B2846F6F7BEFA641CE4B2BC42E6D3304607B0F0BDFFFF0000AC1E00085C21000870B50446C034217B0546002969
:4013C0000CD0284600F0CAFA072807D0207B152802D1284600F018F80020207370BD704700487047FFFF000070470120704770470020704700207047024901484860704755
:4014000030480010F801000870B50646FDF7FEFE04463089354620808035286B4089E080286BC08A2081286B00896080286B808AA0803046F7F705F9204604F027FF70BDED
:40144000FEB5044600790D46C01E05280DD848482E78807A20278006002807DB31462046FCF753F9E07E3843E076FEBD40212046FCF7A8F9A8786946000288806978084346
:401480006946888029790A026946CA80E9780A436946CA80A9790A0269460A8069790A4369460A80297A0A0269464A80E97925460A4369464A808035296BC88069460888CD
:4014C000296B88806946C888296B488269464888296B0882204600F099FA2046F5F798FE00281ED1FDF7A8FE5E210A5B6179F6F7D1FD22460146A032507D0128286B408988
:4015000026D080003C3083B2107D0128286B008B21D080003C3082B2103189B22046FDF73FF86420015BA078FBF728FC142E15D00F49A07D897AEF2239400843E17E384346
:4015400011403943E176A0752046FFF75DFFFEBDC0007030D7E7C0007030DCE71521CC200155A07D3843A0752046FFF723FFFEBDAC1E0008014A526812691047F801000876
:40158000014A526812691047F8010008F3B585B0FF206A460024107301941472184A2046927A920628D5059EC036B26820329578002917D1002D14D0009003AB02AA01A9B4
:4015C0000598F5F795FB07466846037BFF2B06D00199002903D0027A0598F6F79CF9002F00D00124B0682030C178002904D0002D02D00124491EC170204607B0F0BD0000E0
:40160000AC1E000870B504464878142801D015283BD1E07EEF21084020210843E076A07DDF210840A07540212046FCF7CBF82046F5F7EEFD002820D1FDF7FEFD5E210A5B9B
:401640006179F6F727FD22460546A032517D204680300129016B498918D089003C318BB2006B117D008B012913D080003C3082B21035A9B22046FCF793FF6420015BA0785F
:40168000FBF77CFB2046FFF7BFFE70BDC9007031E5E7C0007030EAE710B5044604F036FE00280CD106490A6B928822800A6BD28862800A6B1289A280096B4989E18010BD01
:4016C0005C21000810B5044604F026FE002806D103490A6B12882280096B4988618010BD5C21000870B5054604F01CFE002817D12888F7F731FD040013D0F8F7A6FB0028D1
:401700000FD0207909280ED02046F8F7AFFB01280BD0F5F763F9AA886988204600F0D6F870BD022070BD0C2070BD2A2070BD000010B5044604F0FCFD002806D10349228853
:401740000B6B1A80096B62884A8010BD5C210008F3B5064631480025807A83B080065AD53746C0373868344680340090206B0290B8680190F1F7D2F8D02200213046F2F7A7
:40178000C1FE029820630198B86000983860F1F7AFF8049801280FD130462421C830F3F7A1FD05042D0C36D130461A21B030F3F799FD05042D0C2ED11A220021206BF2F791
:4017C000A1FE3046049900F05DF81549226B086B80881080086B226B00895080226B1B209080226BD080226B1081226B50810A6B236BD2889A81096B226B4989D181FF21B5
:40180000226B49311182226B5182226B9182226BD182216B0883284605B0F0BDAC1E00085C21000810B504460020002906D00C211248F3F757FD0004000C1DD10F491B226A
:4018400030390B6B1A80FF220B6B49325A800B6B22889A8022880B6BD2007032DA800B6B62881A816288096BD20070324A81044920238A7A1A438A7210BD00008C210008D4
:40188000AC1E000870B50546C03500290FD1A86820308678002408E0A868E1004058002801D005F019FD641CE4B2B442F4D324220021A868F2F726FEA868FF2120300170A9
:4018C000A86800212030417070BD000070B5064604468036306B03898B4206D1838A934203D11D4B1B78002B07D0E37E9D0606D5A57DAD0603D41A2070BD002070BDDB067A
:4019000028D483891546AB4200D91D460180306B82812046F5F77CFC00280ED1FDF78CFC5E210A5B6179F6F7B5FB316B1030CB8981B22A462046FCF733FE6420015BA078FF
:40194000FBF71CFAE07E10210843E0761420C0342073D2E7232070BDF801000838B50546002000900C46A978684605F041FC002807D0142C03D1E87EEF210840E8760720B9
:4019800038BD0098092204702C468034216B89784170216B4988090A8170216B897BC170216BC989090A0171216B09784171216B0988090A8171216B097BC171216B898951
:4019C000090A01722946F8F799FE38BD70B504460088F7F7C1FB014680310B46096B2289CD89AA4203D1E5884E88B54206D0CA811A6BE1885180044A01211170A28861883A
:401A0000FFF764FF70BD0000F801000830B50024002835D0014680310A6BD3881588AB4200D32B4615899D4201D0138101240A6B538A9589AB4200D32B46958A9D4201D0DC
:401A4000938201240A6B958853889D4200D22B4655899D4201D053810124096B0A8ACB899A4200D31A46CB8A934201D0CA820124B421095C012200F007F802490020087010
:401A8000204630BDF80100088030006B0129838A09D099080F39038989B28B4200D21946002A03D005E0D9080E39F4E7028B8A4200D901837047000070B504461B3CE12CD4
:401AC0001CD2104C246BA588854217D30E4DA94214D8FF204930814210D3E6888E420DD3FB2A0BD81B2A09D32189914206D3AB4204D8834202D36089984201D2122070BDCA
:401B0000002070BD5C21000848080000F0B5314A0446314B002110465D5C491CC9B2A542FAD1A3009E462D4B491EDB7DCDB29C462A4C00216B003434E45A284B4E003433EC
:401B40009E5B254B5B5C9F00244BDF59BF897F00F619B6B2B44202D90020614625E0B24200D932460E46491CC9B2AE42E5D11CE01A4B4D0034335B5B1E1B052E09D2164D90
:401B8000164E6D5CAF00F559AD896D005B199BB206E0124F75467F59FF89FF1CBE4217D39A4200D91A46491CC9B28C45E0D8094988420CD1101B04280AD9084A71465158CD
:401BC000C01E897C80B2002901D1401E80B2F0BD0020F0BDFFFF000000020008B4220008F7B50546002082B0164604460090F9F73BF90346002015E081006A581278002AED
:401C00000ED0062A0CD0464A670010556958098ACA1A012109045118424A641CD153E4B2401CC0B2697D8142E6D8012021E0014611E03C4B94467246DA53019B6246DA8352
:401C4000374A575C5318BC46203BDF7F57546746491EDF77C9B2002909D0324B4F00DA5BFB18203B0193DB8B9E467245E1D3401CC0B2A042DBD300200399641EA446294CC5
:401C8000086015E026494200095CA35A8F00EF591219FF895288DB19DB1C93420AD9039A136801228A4013430399401CC0B20B606045E7DB0399096800290BD0184A125C35
:401CC0000120904001430398016001200090009805B0F0BD124801788A00A858807C3070B170002801D00128F1D1AA5821889289638852008A1892B2934204D9511A05E01F
:401D0000491EB180E3E7591A042905D9C91E89B2B1800028F4D0DAE70020B080D7E7000000020008E822000870B50A46034641780024007800F010FA264DFF2847D09E78C5
:401D400025493300F8F7D0FD09060A0F13171B1F242943008000085800781CE0800008584068106034E08000085800890EE080000858807A0FE080000858808906E080001B
:401D80000858C08902E080000858008A10801FE080000858807C10701AE080000B581B7813700B585B6853600B581B8913810B589B7A93720B589B8993810B58DB89D381A9
:401DC0000B581B8A13820858807C907400E02C46204670BD01001600B4220008F8B50446002020606060254EA060F07D002809D001280CD0224669463046FFF7F1FE012834
:401E00001AD031E005202070FF20A070F8BD307E2070317DA170002801D00128F6D1317D8900715889894900C91E89B2A1800028ECD1491EA180F8BD0127104867701C30C5
:401E4000009905F0B1FB054680003058807C2070B17D2846A94207D9FFF758FEA080A5700098AF40B843A06020783076A0783075A178A088890071580881F8BDB422000835
:401E8000F8B5154F05460026387D344600901EE0E80716D0009880003858018AA0003858008AF8F79BFF0121C903884201D3002807D1094821461C3005F0EAFB0120A0402D
:401EC0000643641C787D6D08E4B2A04201D3002DDED13046F8BD0000B4220008F8B505460020287068602872F8F7BEFF0746F8F7C1FFFF213931884201D2022600E003266C
:401F0000002420E0A00010580178002919D0062917D0008A0121C01B0904401880B24910884201D8B0420CD801202870917DA14203D96968A040014369602146054805F0F7
:401F4000A7FB641CE4B2034A1C3A507DA042D9D8F8BD0000D022000870B51C4DFF222A7505222A7600266975EE75A975334606E014225A4312189C005B1C2A51DBB28B4219
:401F8000F6D30C4603E0A200641CAE50E4B2052CF9D314224A4310180A4601460B481C3005F09BFA00280FD100240AE0A000285821460670012000F00BF8002804D1641C21
:401FC000E4B2A97DA142F1D870BD0000B4220008F3B583B0002668461A4C0671607D0D4600282BD069464D70039808702946039800F0B2F80746FF281ED0024601A968466A
:4020000000F060F9B8002258711E51602258090C118122589672225891812258D18121582A460E8220580521817420461C30039905F07EFA05B0F0BD0348FBE70248401CEE
:40204000F8E70000B422000801001600F8B50F4606460024F8F708FF0546F8F70BFFFF213931884201D2BF1C00E0FF1C0B48B2008258F9B2107800280ED006280CD0108A27
:402080000122401B1204801882B20120C003824201D88A4200D801242046F8BDB4220008F8B52B4D0024E87D022801D20020F8BDF8F7DAFE264F264B002134370126360463
:4020C0005D7D11E08B00D2581378002B0AD0062B08D0204B1955128A6300121A9219641CFA52E4B2491CC9B2194A8D42EAD8012117E008460AE07B53164BF2831A18203A61
:402100001D5CD67F1E54401ED577C0B2002806D04500EE19203E7A5BF38B9A42EBD3491CC9B2A142E5D30B49388809787B888A0007498A58D2898218D21C9A4206D80A7DBB
:4021400092008958C989C91C8842AFD80120F8BDB422000800020008022804D20348807D401E884200DAFF2108467047B422000810B50146014805F0FBF910BDD022000854
:402180000A4610B50146024805F066FA10BD0000D02200080A4610B50146024805F04CFA10BD0000D0220008F3B500980C46417800250078FFF7D0FF06463F48FF2E78D0C0
:4021C00000993E4F89783E4A0B00F8F78DFB09060F161D242D34393E72002178062968D232462146009800F06DF863E0216891425FD8B000385841605CE02188914258D882
:40220000B0003858018155E02178022951D2B000385881724EE021881922D201914248D8B0003858818145E02188914241D8B0003858C1813EE0B10079582088088239E04C
:402240002178052935D2B0002FE02178062930D2616891422DD8218991422AD8A17A022927D2A3891921C9018B4222D8E18991421FD8A17C05291CD232462146009800F0DD
:4022800021F8B0003A58616851603A58218911813A58A17A91723A58A18991813A58E189D1813A58218A1182A17C3858817401E0FFE705462846FCBD01001600B42200080F
:4022C000FF18000010B51A4B92009A58097814781170002C0BD0002917D1D87D401EC0B2D875012811D1194600204B7D1DE0012901D0022909D1D97D491CC9B2D975012904
:4023000003D1417819750078187610BD82008A581278002A07D0062A05D082008A58927C0A76087510BD401CC0B28342EED810BDB4220008A03001777047000002490148E8
:402340000860704798480010080200087047704770477047704770470249014808607047704800100802000870B5224DA030447E6E7D002334404476067E2D7D2E400676EB
:40238000857E2C400C70047EC57E2C4014700D780224032D00D30C701578032D00D31470447E0025012C02D0022C04D00CE0047E012C03D008E0047E022C05D10C78167869
:4023C000B44201D00D701570047D0E78344200D00D70447D1678344200D015700978002901D0012381751178002901D00123C175184670BD7C2100081CB50400684681701A
:4024000008D020896A4610802046A030417D1171007DD0702146C031487B820701D57D2202E0C20702D07E221040487303496846096888472046F6F704F91CBD54020008A6
:4024400010B541780078491EC9B2FAF73DF9024904200876002010BD5C21000810B5C1780278491ECBB281784078FAF743F9024903200876002010BD5C210008F0B587B08A
:402480000026694600960E740E75054605AA04A9FFF76AFF2C46A0340746012814D1A07D022602282AD000200290E07D022827D0002001902846FCF79CF80090A878009B7B
:4024C000019A0299FAF75EF91F48807A800604D5A17D00222846FFF7D7FA03966846007C009E00906846007D019000200290A97802A804F07DFE002818D103E00120D3E7C1
:402500000120D6E702981823019A0099037041708270C670310A017105222946F8F7EEF880212846F5F7C8FB03982077002F08D1607F002805D10320607700212846FFF7FC
:402540005BFF07B0F0BD0000AC1E0008014A12689269104708020008F8B50F460546F4F757FE214EF17AC907C90F12D02C467978A0342176B97801276176677700280DD0D0
:402580002846FFF77BFFC035687B822108436873F8BD39462846FBF73AFDF8BDB07A800604D5002201212846FFF76EFA00200090A978684604F01CFE0028E4D10098172248
:4025C00002700A4A2946537D4370127D82700322F8F794F8728A80212846F5F74DFB042020776777CFE70000AC1E00087C21000870B506460E480C46C07AC007C00F30469E
:402600000DD0F4F705FE00280CD035466078A0352876A07868763046FFF730FF70BDFBF7F6FC70BD172224213046FBF722FF70BDAC1E0008014A1268D269104708020008C7
:40264000014A1268126A10470802000870B517490978814201D8002504E01549D022096A50430D18002D1FD02C46A034207F02281AD1E07D60750E48A17D21752030027D69
:40268000E276407DA07609482038807A800603D501222846FFF7F8F9002020770320607700212846FFF7A8FE70BD0000CC1E00085C210008FEB50C460746F4F7A9FD0128EA
:4026C0001DD080213846F5F7F7FA2E48A578017D407D667805400E402079E1780002014330463C462843A0340191002804D0B878F8F75AFD012808D0002E0FD00FE0182208
:4027000024213846FBF7B5FEFEBD28215A20C155002020773846F6F7AFFBFEBD667D002D00D1257D207D28420ED0607D30420BD000200090607F00281BD1032060770021C6
:402740003846FFF759FE14E0022D17D00021022E16D0002202200090B878019BFAF712F80948807A800604D5002229463846FFF78BF9E675A57500982077FEBD0121E6E731
:402780000122E7E77C210008AC1E000870B50C46F6F7E2FC0546002060702070002D0BD02846F7F752FB002806D0A035687D6070287D2070002070BD022070BD10B501785C
:4027C0004478CA078378084903D14A7D224009D08A750078800703D4087D184002D0C875002010BD112010BD7C210008F8B50746FF2168460170FE783D793888F6F7ACFC1F
:4028000004000FD0F7F721FB00280BD0B9782148CA0709D0B422175D89070AD4067D2E4005D008E01E20F8BD477D3740F4D11120F8BDB520065D2546A035687D304209D07D
:40284000287D384206D00320687700212046FFF7D3FD14E002236A4618212046F7F75BFB01280ED002236A46FF212046F7F70CFB012806D0AF76EE76204600F07FF800209C
:40288000F8BD68460078002801D02320F8BD2A20F8BD00007C21000870B50E4605468021FAF790FF2C460020A03420770C48017DE176407DA0760B48807A800604D5217D80
:4028C00001222846FFF7E0F82846F4F7A1FC002805D10320607731462846FFF78DFD70BD7C210008AC1E000870B505468021FAF769FF2C460021A03421770C49087DE076E9
:40290000487DA0760A48807A800604D5217D01222846FFF7B9F8607F002803D100212846FFF76AFD0320607770BD00007C210008AC1E000810B50F490978814201D800207C
:4029400004E00D49D022096A5043081800280FD00949A03020318A7D037D9A4203D1CB7D447DA34204D08276C97DC1760121017710BD0000CC1E00085C210008F8B5054647
:402980002C460020A0346077207F012801D1022060772846F4F73CFC134F00281AD0032600200090A978684604F022FC002810D1009816220270A27E4270E27E82702946AA
:4029C0000322F7F79BFE7A8A80212846F5F754F92677F8BDB87A04268006E1D5A17E00222846FFF751F8DBE7AC1E0008F7B54804040C82B0384801900178029816468142F6
:402A000005D919200002844201D8082E01D9334C52E0029F0620474331483D182879012801D0022802D1029800F0C8FB2C48C4536E71C45B408B84421ED22146F0F768F861
:402A4000002919D10094019800240078019011E006202146414322480E183079012801D0022804D170880099F0F752F87180641C0198E4B2A042EBD8029800F033F8174999
:402A8000044688421DD0164E6C80F15B708B814206D2F0F73DF8002902D1029800F000FC718BF05BF0F734F8002908D0022028710B48017F491C0177204605B0F0BD012096
:402AC000F5E72879002803D06888801C80B200E00A2068800320EAE7CC1E0008FFFF0000F2220008F0B50646AFB00020039001200690E0480090E048089030460622DF49B6
:402B00005043002501904018029050E028460621DA4A4843811804910979012901D0022943D1B54241D0039F14214F430BACE5550199105A515A00F0A3F93F1904467860ED
:402B400001282AD0049802994079497905914118A14204D90020B860F860069015E00499201A49880919081A04912146EFF7D0FFB96004990598081A2146EFF7C9FFF96036
:402B80000098844201D2A0B20090F868A04201D9012000E00020387403E00020B860F86006900398401CC0B203906D1CEDB208980078A842AAD8069800280ED00398002801
:402BC0000ED000200490AD490198085A01900020044605900546039045E00020C04343E1A64806760199415A418300203CE1284606214843A14907904018069000790128A7
:402C000001D002282DD1B5422BD01420214641430BA80F18B8680099EFF77AFFB960F8680099EFF775FFF9600698069940884979A70042181FA9CA510099EFF769FF27A872
:402C4000C1518E490798095A019800F019F901901FA8C0590099EFF75BFF1FA8641CC151E4B26D1CEDB208980078A842BFD8601E054681B20A901FA800F0FAFAA9B227A869
:402C800000F0F6FA002729E00898002500780790B80006901DE0062029464143774808180179012901D0022911D1B5420FD04188407908180099EFF72BFF0A4606981FA994
:402CC0000858824203D106982BA90D5004E06D1CEDB20798A842DED87F1CFFB2A742D3D3002559E0AE002BA806968059062148436249401840880099EFF70AFF1FA88059EE
:402D00000F4686B209902146681CEFF701FF880008902BA907900858062148435749401840880099EFF7F4FE07981FAA105A012C82B223D9B94201D3B1420ED9BA4201D326
:402D4000B2420AD9914214D3B24201D2B94201D8012000E00020002810D08F420ED196420CD10A98854209D0069923AA0998505010E0B942EED8B242ECD3E9E7089827A906
:402D800009580198401E08180199EFF7C1FE069823AA11506D1CEDB2A542A3D300205BE000991FAA8900555823AA535800202E461F469D424DD0002122E0142251430BAA09
:402DC00089188A680020B24205D3BA4203D8AA4200D915460120C968B14206D3B94204D8994200D20B46012007E0002805D18A4214D99642F7D88F42F5D36146491CC9B2E4
:402E00008C46A142D9D3002823D0AB4210D30399581B884207D8002905D01AE0964218D98F42E0D315E003905819400804900EE0019803991818401B88420AD903900198ED
:402E40005919081840080199EFF762FE0491012005900098401CC0B20090A042A0D30598002800D1B9E6049802994880029840882FB0F0BDFFFF0000CC1E0008F2220008D4
:402E800010B50C46002807D0002C05D0EFF740FE20460C00FAD110BD002010BD014606225143064A04488A181179012901D0022900D1508870470000FFFF0000F222000875
:402EC000FEB5284B1B780293834209D91923DB01994205D89A4203D8062901D3062A01D22148FEBD914201D10846FEBD49040E0C51041E4A0F0C117F002905D0012906D1B0
:402F00001146097E814202D1F0198008FEBD3D4624E001200024019016E0204606214843124942181279012A0CD1085A29460090EFF7EEFD002905D028460099EFF7E8FD1C
:402F4000002909D1641CE4B20298A042E5D80198002801D06808FEBD6D1EADB2B542D8D2D2E70000CC1E0008FFFF0000F2220008FEB5062107466A4E4F43BC1921790129E8
:402F800006D0022904D0F7F76FFF6188401860E0337E0121062283426ED1624B00241D780BE0062363439B191B79012B01D0022B01D1844203D1641CE4B2A542F1D8A542B5
:402FC00003D1F7F751FF0A3043E06846447101718271694601A8FEF7A7FE06204443A019418868460088411A68460180F7F73CFF0546684601882846F7F7FAFE04466846C2
:40300000018803222846F8F7EDF8002823D06846018801222846F8F7E5F8002812D0778B20463946EFF774FD7819401A01E0708B001984B2032221462846F8F7D3F80028B7
:40304000F5D16BE0768B20463146EFF761FD4819801984B262E0718B2046EFF759FD481901E0708B001984B2032221462846F8F7B9F80028F5D151E0684643710171827101
:40308000694601A8FEF750FE684661880088091868460180F7F7E8FE0546684601882846F7F7A6FE02902079022817D0768B6846018803222846F8F795F800281FD0684668
:4030C000018801222846F8F78DF800280298314610D0EFF71DFDA819401A02E0F65BE6E7A01984B2032221462846F8F77BF80028F6D113E0EFF70CFDA8190818A9E731460A
:403100000298EFF705FD481900E0A01984B2032221462846F8F766F80028F6D12046FEBDF2220008CC1E000810B50B460621104C484302191179012906D0022904D0205A36
:403140004008F3F777FE10BD0A498B4206D15188022903D3C8031904401807E0215A50880818C01A801EEFF7D3FCC803000C10BDF2220008FFFF0000F0B500200E4A84469E
:40318000014606460A4B0B4CFF20157809E006270A467A43A352121953801671491C5071C9B28D42F3D82076638326776046F0BDFFFF0000F2220008CC1E0008F8B50146E0
:4031C0000020009026480078844688421AD9084606225043234F8646C0190279002A11D000220271204B7246BB52FF2643804671387F1C46401E3877387E354688422CD18A
:40320000002019E01948009027E0062201465143CA191279012A02D0022A06D00AE0795AA14207D20C46064604E0795A994201D20B460546401CC0B28445E6D8FF2E01D0A2
:40324000304602E0FF2D03D0284600F029F804E0FF2038760020C04378830098F8BD0000CC1E0008F2220008FFFF000001001600F0B58C4600230FE00022C91A491E08E05C
:403280009600371884597D68AC4201DD85517C60521C9142F4DC5B1C61466345ECDBF0BDFEB5064615480621374606764F43C15B41830146002479181148009100780190C1
:4032C00016E006200D49604345182879012801D002280AD1B44208D06888C95B421800984088101AEFF7FEFC6980641C0198E4B2A042E6D8009800214180FEBDF22200088D
:40330000CC1E00080348C078002801D000207047012070478025000810B5012200F046F810BD000010B5054802780121002A017002D10120F2F734FB002010BD0C02000888
:4033400070B5144D297803200129287002D10120F2F726FBEDF7CFF8EFF7E0FA00246C60FF22813221460C48F1F7CCF8F02200210A48F1F7C7F80948F030C47004704470B4
:40338000C47304734473EDF7B2F8EFF7B1FA002070BD00000C020008102300089024000810B5002200F002F810BD0000F8B515460C460646EDF79FF8EFF7B0FA264A1078E8
:4033C000012808D01078022805D0EDF790F8EFF78FFA1120F8BD0C20464320483018C1788378994205D3EDF782F8EFF781FA1220F8BD46780C277E43416867687118266851
:40340000A4684F600E608C60C178431C491CC1704178491CC9B219708078814201D1002018705068401C50601078012805D0EDF75EF8EFF75DFA0020F8BD02201070EDF7D6
:4034400056F8EFF755FA002D03D00020F2F7A8FAF1E70120FAE700000C0200088025000810B51248002101704160FF2281321048F1F748F8F02200210E48F1F743F80D48DA
:4034800018220021F030F1F73DF80A482021F03081701421817306494160064901610649816006494161F2F761FA10BD0C020008102300089024000843EB0010456C0110C7
:4034C000F8B50025164C01262F462078002815D0012813D0022802D003281CD11AE000F021F8EDF708F8EFF719FA6068002800D12670ECF7FCFFEFF7FBF90CE0ECF7FBFF7F
:40350000EFF70CFA2078002802D020780128F0D10125EEE72770002DD7D00020F8BD00000C020008FEB5214D214E0027FF24ECF7E2FFEFF7F3F900200C2141438919C97816
:40354000002901D0044602E0401C0228F4D3FF2C2AD00C204443A41921780C2260685143081801460EC9029301920091076047608760E078401EE0702078401CC0B2207038
:40358000A178884200D127706868002802D06868401E6860ECF7ABFFEFF7AAF9A1680029C4D068468847C1E7FEBD00000C0200088025000810B5830A082B04D03F2B05D0E9
:4035C00004F078F810BD00F025F910BD01F0A8FB10BD10B50C460146207800F02BFE0028204603D003F0DFFA002010BD00F082FD1F2010BD38B504460020009069460520FF
:4036000000F071FD00280AD101200099052C07D010220A708C704870FF20FFF7DAFF38BD1A220A708870F6E710B5820A082A04D03F2A05D004F0F0F810BD00F015FA10BD8F
:4036400001F072FB10BD0000F8B5044640782578000205430020694608702846FFF7E4FF01282BD16946A0780978884226D022498D420CD0891D8D4209D0C91C8D4206D0E0
:40368000C91C8D4203D01C4925318D4204D11221284600F0A1F80CE00022022805D32079E178000201430A05120D12212846FFF781FF204603F0C8FD1220F8BDA80A0F4E59
:4036C00008280ED03F282A46314610D0E01C04F0EDF8204603F0B8FD3146284600F010F8F8BD2A463146E01C00F0CEF9F1E7E01C01F070FBEDE700000D2000009825000889
:40370000F8B50D4604460020694608702E48871D844212D0BC4210D0F81C84420DD0C01C84420AD028481830844206D0401C844203D025482530844201D101200870A00A3F
:4037400008280ED03F280A46294620460FD004F0FFF806466846007800280BD001281FD116E00A462946204600F0C2F9F1E701F051FCEEE70022002D05D0687829780002FF
:4037800001430A05120D31462046FFF713FF07E0BC4201D13A2E05D03146204600F01CF83046F8BD68782978000201430805000DF5F7D2FC05460021204600F00DF83A21F5
:4037C0002846FAF774F8EBE70D2000000148007B70470000A0210008F8B5054600200E4600906946082000F07EFC002801D00720F8BD009C0F202070A670FFF7E7FFE0700C
:403800002571280A6071042060702146FF20FFF7E0FEF8BDF7B584B00546002002900420694608718649874B681A0C22EE1806278D423BD010DC8449681A8D4230D006DC79
:40384000002E28D0012E28D0052E13D128E006282AD009280ED120E0172829D006DC012824D0022819D0162804D11FE019281FD01A281DD07549284609688847694609794C
:40388000401869460871724928460968884769460979401805E0781C03E06846027107E005206946087103E00B20FAE7684607716846007902A9001D00F015FC002802D0E6
:4038C000072007B0F0BD029C29462046059A00F001F90420694608715949491C681A8D420AD005DC5B48281806D005280BD103E0072801D0152806D10699A171069968462B
:40390000090AE17107710598002821D14C49491F681A8D425AD009DC4F4F002E20D0012E2FD0052E44D00D2E06D148E003285CD0072866D01B286FD0484B01AA1B682146C5
:4039400028469847464B01AA1B682146284698476846007960702146FF20FFF73AFEB0E769460979387D6118887069460979000A6118C87069460879801CC0B20871797D55
:403980005BE06946087908222018801C0021F0F7B9FDB87AF52108406946097961188870F87A6946C0070979C00F6118C87023E0F3F708FC05E069460879401C1FE0F3F779
:4039C00021FC6946097961188870F4E7684600792118891C0698F3F700FC002801D06071B6E769460879401D09E06946087908212018801C03F05DF9694608790830087170
:403A0000A6E76946087914492018801C08221831F0F76FFDF0E7FFE7124A694612680698904760716946087809796118887069460879401CC0B20871497820188170BAE726
:403A40001A200000FEDFFFFF0F2000004C0200083C020008EBDFFFFFAC1E0008480200083802000858020008064AC0B21378834206D3401E1269C0B2105C087001207047E4
:403A8000002070471402000830B4074BD2B21C78944206D39B689200D218403AD26B30BC104730BC704700001402000807484E21017007494160FF3139318160FF313931A5
:403AC000C160FF313931016170470000140200084449001070B504460E2016460D462070FFF774FEA070E570280A2071667170BDF8B50D4D16460F46C1B22A780120914206
:403B000010D88C00E868314620184038C26B38469047002806D16868314620184038C26B38469047F8BD000014020008F8B5054600260D4F69460620009600F0D4FA002802
:403B400001D00720F8BD009C324639462046FFF7C1FFA571280AE071062060702146FF20FFF737FDF8BD00001F20000070B50446054640220021F0F7C5FC40222349284695
:403B8000F0F7B7FC2249F522887A20341040C0060028207802DA3022104301E0CF2210402070887AC2070720002A2A7F01D0024301E0D208D2002A778A7A93060122002B96
:403BC0000ADA6378C0252B436370A37808251343A370E3782B43E3708B7A5B060AD5A378F8252B43A370E3780343E370E07904231843E071C87AC00706D0E078F021084362
:403C0000E07020791043207170BD0000654E0010AC1E000810B50022F3F776FB10BD10B5F3F7D0FB10BD002070470120704710B5F3F74AFC10BD0020704710B5F3F746FC66
:403C400010BD0000044A0178D180407800020143D180002070470000A021000810B5F3F7E3FC10BD10B5F3F7FBFC10BD10B5F3F703FD10BD10B5F3F70DFD10BD38B5044669
:403C80000020009069460E2000F02DFA002801D0072038BD00993E200870032088702078C870A07808716088000A487120798871A088000AC871A0790872E088000A4872F9
:403CC000207A88722089000AC8720A2048700320FFF77FFC38BDF8B50546002000906946232000F000FA002801D00720F8BD009C3E2020700A2100F09DFA014601200029B2
:403D000046D001260A20A07007462878E070A978217169880622090A61716878A0712879E0712046294608300C31F0F7E2FB0C20002E0ED0204629460E3006221231F0F790
:403D4000D8FB20462946143006221831F0F7D1FB1820AA7921188A70EA88801C120ACA702A7A21188A702A89801C120ACA70AA7A21188A706A89801C120ACA70221869796D
:403D80009170401C607021463846FFF722FCF8BD0026A0700127B8E7F8B5044600200E46009015466946082000F09DF9002801D00020F8BD0099082008708E70CC70200A0D
:403DC00008714D7104204870FF20FFF702FCF8BD38B50C460021054600916946072000F082F9002801D0002038BD0099302008708D70CC70200A087103204870FF20FFF730
:403E0000E8FB38BD38B50546002000906946112000F069F9002801D0002038BD009C3E2020700520A0702878E07028880822000A2071601D6968F0F75CFBA9680D200A7812
:403E400062734978A173607021460520FFF7C1FB38BD38B5054600200C4600906946092000F041F9002801D0002038BD00991320087001208870CD70280A08714C71200A1F
:403E8000887105204870FF20FFF7A3FB38BD38B50546002000906946102000F024F9002801D0072038BD009C3E2020700420A0702878E070A87820716888000A60712878D1
:403EC00000280BD0A01D08220021F0F71BFB0C20607021460420FFF77CFB38BDA01D0822A968F0F706FBF2E738B504460020009069460C2000F0F7F8002801D0002038BD69
:403F000000990C20087020788870A078C8706088000A08716078487120798871A088000AC871A0790872E088000A487208204870FF20FFF74EFB38BD38B504460020009092
:403F40006946062000F0CFF8002801D0072038BD0099572008708C70200AC87002204870FF20FFF736FB38BDF8B5064600200C46009015466946082000F0B5F8002801D0E2
:403F80000020F8BD0099052008708E70CC70200A08714D7104204870FF20FFF71AFBF8BDFEB507460020009010480E46019015466946082000F097F8002801D00720FEBD27
:403FC000009C324620460199FFF784FDA771380AE0710620002E03D1290A25726172082060702146FF20FFF7F4FAFEBD7B0C0000F8B5054600200E4600900C4F69460620F6
:4040000000F071F8002801D00720F8BD009C324639462046FFF75EFDA571280AE071062060702146FF20FFF7D4FAF8BD7C0C000010B5F5F7E3F910BD10B5F5F73BFA10BDE5
:4040400010B5F5F759FA10BD10B5F5F7BBFB10BD10B5F5F7D2FB10BD10B5F5F761FC10BD10B5F3F7C7FA10BD10B501220A70F5F743FD10BDF8B505460020074600900D4E2D
:404080006946142000F02FF8002801D00720F8BD009C3A4631462046FFF71CFD1022A01DA918F0F726FA142060702146FF20FFF790FAF8BD1720000010B5F3F799F910BD6E
:4040C00010B50029014601D00B2000E00220FFF780FA002010BD10B5FAF70CFC10BD10B5FAF730FC10BD0A4610B5C1B2104603F02BF810BD10B503F0C3F810BDF8B50546FD
:40410000C078AE78154C00020643A07C27468000C03FC019403004222946F0F7EAF9A07C238A8100C81940302A1D102B15D07D50A17C00234900C91980310E80A17C0B55CF
:40414000A17C491CC9B2A174102900D3A374218A491C2182114602F017FDF8BD9C2600083EB5134C0025E07C21460555E07CC0398000085803F09AF8E07C401CC0B2E074AF
:40418000102800D3E574208A401E20820948807A00280CD00095019511206A4602951081558129460A460020029B03F088F93EBD9C260008A021000870B5184C0025207AD2
:4041C000002825D1F1F764F915488574C574058225726572A572A5821DE0A07A00280DD0401EA0720D4A0006410DC03A8818515C4068022907D0042907D101E01920F0E77C
:4042000003F03EF801E0FFF7ABFFE07A401EE072E07A0128E1D80348057070BD702700089C2600082802000810B5FFF7C5FF002010BD00001C4B13285A7A31D00EDC0E2803
:404240002ED006DC052820D0082827D00C2829D11DE00F2824D0102824D11FE03E280AD004DC1A2817D030281CD112E0572814D0FF2817D114E0500614D5491E0120884023
:40428000D98880B201420BD10CE0012006E0802004E0202002E0022000E00420024201D00120704700207047A021000838B505460020009069460920FFF715FF002801D03D
:4042C000072038BD009CFF2020700320A0702878E07028880422000A2071601DA91CF0F708F9072060702146FF20FFF772F9002038BD03B583B0002069460090888001AAA9
:4043000004A91220F1F7F6F969460320FFF7EBFE00280ED10099FF2008700620887068468088C870000A087103204870FF20FFF750F905B000BD03B583B00020694600905B
:40434000888001AA04A91120F1F7D4F969460320FFF7C9FE00280ED10099FF2008700720887068468088C870000A087103204870FF20FFF72EF905B000BD000038B50446E1
:4043800000200C4900900878401E087069460520FFF7A9FE00280CD10099FF20087002208870200ECC70087103204870FF20FFF710F938BD2802000810B50B4C617E0029BB
:4043C0000BD00A49884209D1F2F7D8FB607E022801D1F0F76FFF0020607610BD02F0F4FB607E00F031FF10BD5C210008C0FD0000FEB5044600200290607F0F46401CC6B298
:4044000002A9301DFFF76FFE002801D00720FEBD029D21463931E81D019100902246637F1E3229392046F2F727FA0C49884204D12846FFF75FFE1220FEBD002208492846C0
:40444000FFF748FB607FA871361D6E70022038702946FF20FFF7BDF80020FEBD01001600A9FD0000FEB5044600200290607F0F46401DC6B202A9301DFFF735FE002801D06D
:404480000720FEBD029D2246A91D481D019100902146637F1E3210312046F2F715FA0C49884204D12846FFF725FE1220FEBD002208492846FFF70EFB607FA872361D6E701C
:4044C000022038702946FF20FFF783F80020FEBD01001600A8FD0000F8B5044600200E46009069462420FFF7FEFD002801D00720F8BD009D002225492846FFF7EBFA2146CB
:404500002046AA1D20311030F2F700FA002804D02846FFF7EFFD1220F8BD2178A97521882846090AE97521681C30090C29762168090E69762179A976A188090AE976616843
:40454000090C29776168090E6977217AA9772189090AE977A168090C0171A168090E4171217B001D8170A189090AC170E168090C0171E168090E41712420687002203070B4
:404580002946FF20FFF725F80020F8BDADFD00000120704738B500200D46009069461020FFF7A1FD002801D0072038BD009C00220B492046FFF78EFAA11D0020F6F760FC6E
:4045C00021460C310120F6F75BFC10206070022028702146FF20FEF7FCFF002038BD0000A1FD00007CB500200D46009069460620FFF779FD002801D007207CBD009C002243
:404600000B492046FFF766FA01A8F1F7D7F868460079A07168464079E07106206070022028702146FF20FEF7D4FF00207CBD0000A2FD000010B5012008700024034803F064
:40464000BFFA002800D00C24204610BDF342011010B5012008700024034803F097FA002800D00C24204610BD37430110F3B5044683B000200190207D002601461131CAB20B
:40468000332802D9122005B0F0BD01A9101DFFF72AFD002801D00720F5E7019D002232492846FFF717FA2068FAF7A2FE277DAF710520009009E080194019801C394602F016
:4046C000F8FA0836083FF6B2FFB20098082FF2D880194019801C394602F0EBFA217D009822790818C1B268188270A288091D120AC2706268C9B2120C02716268120E427186
:40470000227A681882702289091D120AC270A268C9B2120C0271A268120E4271227B68188270A289091D120AC270E268C9B2120C0271E268120E4271227C68188270228A7C
:40474000091D120AC2702269120C02712269120E427169700498022101702946FF20FEF738FF00208FE70000ACFD0000FEB50F460546FF2069460871002000902888F4F764
:40478000EBFC060027D0F5F760FB002823D069460720FFF7A8FC002801D00720FEBD009C00220E492046FFF795F92878A07128880223000AE07101AAFF213046F5F7ABFBB5
:4047C000207207206070022038702146FF20FEF700FF0020FEBD0220FEBD0000AAFD000010B500240C708179002904D0012905D01224204610BDF8F7C9FAFAE7F8F7FEFA4F
:40480000F7E70000F8B505460F460088F4F7A4FC04006FD0F5F719FB00286BD00020009069460620FFF75FFC002801D00720F8BD009EF6F7A1FA2046F2F7EAFC00283FD156
:40484000FAF7FAFC5E210A5B6179F3F723FC2246A0320146537D2848012B837A05D09B060DD5B0231B595B890AE09B0603D5B0231B595B8900E01B23DB00703302E01B23D3
:404880009B003C33127D807A9BB2012A05D080060DD5B0200059008B0AE0800603D5B0200059008B00E01B20C000703002E01B2080003C3082B2103189B22046F9F770FE08
:4048C00068886034E080F6F773FA00220B493046FFF700F92978B17129880620090AF1717070022038703146FF20FEF772FE0020F8BDFFE70220FBE7AC1E0008B0FD0000AD
:4049000010B500240C70F0F787FF0349884200D11224204610BD000001001600F8B504460E460088F4F718FC05002AD0F5F78DFA002826D0A178A878FDF72CFC002801D08E
:404940001220F8BD0020009069460620FFF7CBFB002801D00720F8BD009D00220A492846FFF7B8F82078A87120882946000AE8710620687002203070FF20FEF72AFE0020CD
:40498000F8BD0220F8BD0000B2FD0000F8B504460F460088F4F7E0FB050043D0F5F755FA00283FD00020009069460620FFF79BFB002801D00720F8BD2879009E09280CD066
:4049C0002389E288A1886088FDF776F8002806D03046FFF78FFB1220F8BD0C220FE0E87E810604D5A97D890601D41A2207E0C00604D42046FCF7EAFF024600E023220A4923
:404A00003046FFF767F82178B17121880620090AF1717070022038703146FF20FEF7D9FD0020F8BD0220F8BDB1FD0000024600200870024912784A7370470000A021000855
:404A4000F8B504460F460088F4F786FB060026D0F5F7FBF9002822D00020009069460620FFF741FB002801D00720F8BDA178B078009DF8F7C1FB00220A492846FFF72AF8F0
:404A80002078A87120882946000AE8710620687002203870FF20FEF79CFD0020F8BD0220F8BD0000ABFD0000F3B5044683B000200090054621786A46517101202056032617
:404AC0001071002809D0042807D0821D05D0921D03D0121D01D0143007D101290FD001A8F0F7C0FE2949884200D112256946301DFFF7F9FA002830D0072005B0F0BD608806
:404B0000FF2811D0F4F728FB070000D10225F5F79CF9002806D0002DE8D1EDF7FFFE6078387317E00225E1E7EDF7F8FE0020184B184A08E0D027196A4743C91901D0677874
:404B40000F73401CC0B211788142F3D8104861784030C170EDF7CCFEC8E7009E2A460E493046FEF7B7FF2078B071A078F07160880221000A307207207070049801703146A5
:404B8000FF20FEF726FD2846B7E70000010016005C210008CC1E0008A5FD000010B5044602200870F7F7D8FE207800F04DFB10BD7CB505460020184C009020780E461228C2
:404BC00007D22979154B01A82A68F0F727FF002801D00C207CBD20786946401C20700620FFF781FA002801D007207CBD009C00220B492046FEF76EFF2879A071684600795E
:404C0000E07106206070022030702146FF20FEF7E0FC00207CBD0000280200087D430110C1FD0000F8B505460020154C009020780E4600280FD06878F0F776FF002802D1C7
:404C40002078401E207069460520FFF74CFA002803D00720F8BD0C20F8BD009C002209492046FEF737FF2878A07105206070022030702146FF20FEF7ACFC0020F8BD0000E5
:404C800028020008C2FD000038B500200D46009069461020FFF727FA002801D0072038BD009C00221C492046FEF714FF1B48016B0978A171016B0988090AE171016B897846
:404CC0002172016B4988090A6172016B0979A172016B8988090AE172016B89792173016BC988090A6173016B097AA173016B0989090AE173016B897A2174006B214640896D
:404D0000000A60741020607002202870FF20FEF760FC002038BD0000A7FD00005C21000810B502F0C7FC10BD10B5264B0022C41A98423CD01FDC244BC41A98423CD011DCAF
:404D4000224C031BA0422AD007DC214BC01822D0012822D0C92832D12EE0012B2CD0022B2DD129E02300F5F7BFFD092A271618272A2A181E2A002300F5F7B6FD18211B1ED7
:404D80001E0D1D151E13212121212121212121212113170F132104220EE002220CE007220AE0012208E0032206E0052204E0152202E0302200E00A220A70012010BD002036
:404DC00010BD0000ACFD0000A3FD0000A0FD00009A03FFFF10B53D4BD41A9A425AD01CDC3B4BD41A9A4240D00FDC3A4C131BA2422FD005DC384BD31825D0012B20D125E0E4
:404E0000012B29D0022B1BD12CE0641F2300F5F76BFD062F3217383B3E17092C52D007DC2300F5F761FD080D40430D0D461C490D152C23D0162C30D0172C31D0182C3ED0CB
:404E400000F0B2FF10BD00F022FD10BD00F040FC10BD00F053FC10BD00F026FD10BD00F02AFB10BD00F0B0FC10BD00F0FEFA10BD00F04CFB10BD00F010FB10BD00F051FBFB
:404E800010BD00F039FA10BD00F016FA10BD00F0E5FA10BD00F031FB10BD00F045FB10BD00F053FB10BD00F08FFA10BD00F03CFA10BD00F0E5FA10BD00F0F4FA10BD00F06B
:404EC00019FB10BD00F046FB10BD0000ABFD0000A0FD000049FD00009A03FFFF3EB50020009001900290012008700D4602A90C20FFF7F9F8002801D007203EBD029C002262
:404F000010492046FEF7E6FD01A96846F2F7D6FB0098A071010AE171010C2172000E60720198A072010AE172010C2173000E60730C206070022028702146FF20FEF749FB42
:404F400000203EBDB3FD0000F7B582B006460027012000971070154669460620FFF7C3F8002802D0072005B0F0BD009CF00701D01220F8E73A4620460399FEF7ABFD084895
:404F800030180068A071000AE07106206070022028702146FF20FEF71CFB0020E3E7000000103C4010B50A4600880249FFF7CCFF10BD000067FC0000FEB5064600270120FD
:404FC000009708700D4669460820FFF78CF8002801D00720FEBD009C3A460D492046FEF779FD01AA31460520F0F784FB0198A071010AE171010C2172000E607208206070B4
:40500000022028702146FF20FEF7E3FA0020FEBD49FD000070B5674B0E460024C11A664D984270D020DC654BC11A984257D013DC634BC11A984238D007DC6249411825D088
:40504000012928D0E3296ED12AE0012932D056293BD0572967D13DE00B00F5F745FC08A6454A4F555F656AA60C240B00F5F73CFC1A9D6B70752B2B7A267F93989D9D9D9DC7
:405080009D9D9D9D9D9D9D5184898E9D1146304600F09AF816E011463046FFF783FF70BD11463046FFF788FF70BD1146304600F0BFF870BD3046F7F769FE04E011463046D1
:4050C0006A682EE00446204670BD11463046FFF787FBF7E711463046FFF75CFAF2E711463046FFF77FFAEDE711463046FFF7B0FAE8E711463046FFF79DFAE3E711463046A1
:40510000FFF7D2FCDEE719E011463046FFF7F8FBD8E711463046FFF741FDD3E71146AA6830469047CEE740E011463046FFF79AF9C8E711463046FFF75BF9C3E7114630469F
:40514000FFF714FBBEE711463046FFF779FCB9E711463046FFF78AFAB4E711463046FFF7BBF9AFE711463046FFF74CFBAAE711463046FFF7D3FBA5E711463046FFF718FD2E
:40518000A0E711463046FFF74DFD9BE711463046FFF74CFC96E711463046FFF79FFE91E71146304600F01EF88CE7314600F01EFE88E70000AAFD000028020008A2FD0000C9
:4051C0004AFD00009A03FFFF0188CA0701D012207047034A40888918086000207047000000103C40F8B5064600200090012008700D4669460C20FEF776FF002801D007203E
:40520000F8BD009C002209492046FEF763FC3078F2F75CFAA07105206070022028702146FF20FEF7D6F90020F8BD0000B4FD00000EB5017800914068019002AA69460420F3
:40524000F0F758FA00200EBD38B505460020009069460520FEF747FF002801D0072038BD009C002207492046FEF734FC064821464576A57105206070FF20FEF7AAF9002013
:4052800038BD0000C0FD00005C21000803480249416081607047000091450110280200080348024941600349816070478D49011028020008894C011070B50D4604460146AC
:4052C00010222846EFF715F92146284610310D221030EFF70EF9214628461D3104223930EFF707F92120225C214628466A7722311E30EFF7FEF870BD70B50D4604460146E8
:4053000010222846EFF7F5F82146284610310D221030EFF7EEF8627F214628466A771E311E30EFF7E6F870BD70B50C46054601461022A018EFF7DDF829462046103110228E
:405340002030EFF7D6F82022A818C1780902216083781943090221604078014308022060A95C0843242120606818C2781202626083781A4312026260407802431002606057
:40538000695C0843282160606818C2781202A26083781A431202A260407802431002A060695C08432C21A0606818C2781202E26083781A431202E260407802431002E0601D
:4053C000695C0843E06070BD10B5C27812020A6083781A4312020A6043781A4312020A6003781A430A6002790A75037A1B024B60C47923431B024B60827913431A024A6044
:4054000043791A434A60037B1B028B60C47A23431B028B60827A13431A028A60437A1A438A60037C1B02CB60C47B23431B02CB60827B13431A02CA60437B1A43CA60037D09
:405440001B020B61C47C23431B020B61827C13431A020A61407C02430A6110BD427812020A80007802430A80704770B50C460546014606222046EFF73CF8A879A07170BDFA
:40548000427812020A8003781A430A80C27812024A80807802434A80704702780A70407848707047427812020A8003781A430A80807888707047427812020A8003781A43B0
:4054C0000A80C27812024A8083781A434A80427912028A8003791A438A80C2791202CA8083791A43CA80427A12020A81007A02430A817047007808707047427812020A8095
:4055000003781A430A8080788870704702780A7042784A70C27812024A80807802434A807047007808707047C27812020A6083781A4312020A6043781A4312020A600378DE
:405540001A430A6000790871704702780A7040784870704700780870704710B50B460178401C197001460622581CEEF7C2FF10BD034610B5084608221946EEF7BAFF10BDDF
:40558000427812020A8003781A430A80C27812024A8083781A434A80427912028A8003791A438A80C2791202CA8083791A43CA80427A12020A81037A1A430A81C27A1202EF
:4055C0004A81837A1A434A81427B12028A81007B02438A81704770B5054640780C46000208802978062208432080E87800026080A978084360802879207168796071A91D6D
:40560000A01DEEF776FF287B2076A87B0002A081697B0843A081287C0002E081E97B0843E081A87C00022082697C08432082287D00026082E97C08436082A87D0002A0826F
:40564000697D0843A082287E0002E082E97D0843E08270BD7047427812020A8003781A430A8080788870704770B50D460446014610222846EEF73DFF214610221031A81811
:40568000EEF737FF70BD034610B5084640221946EEF72FFF10BD427812020A80007802430A80704710B50B4641780A021A800178801C0A431A8001461022981CEEF719FFB4
:4056C00010BD427812020A80007802430A807047427812020A80007802430A807047427812020A80007802430A8070477047427812020A80007802430A80704700780870DE
:405700007047427812020A80007802430A807047427812020A8003781A430A80807888707047007808707047427812020A80007802430A80704710B50B460178401C19708A
:4057400001460622581CEEF7D4FE10BD10B502780B460A701F2A03D8411C581CEEF7C9FE10BD00780870704770B5054640780C46000208802978062208432080E878000289
:405780006080A978084360802879207168796071A879A071E91DE01DEEF7ABFE687B6073A87BA07370BD0022835C0B70521C491CD2B2082AF8D37047034610B508460522F3
:4057C0001946EEF796FE10BD034610B5084606221946EEF78EFE10BD034610B5084606221946EEF786FE10BD02780A7040784870704702780A71827812020A8043781A430A
:405800000A80027912024A80C3781A434A8042794A7180798871704710B502780B460A701F2A03D8411C581CEEF763FE10BD70B5054640780C4600020880297808220843D8
:405840002080A91C201DEEF754FEE87A102200026080A97A08436080294620460C310C30EEF747FE70BD02780A7042784A70807888707047427812020A8003781A430A801D
:40588000C27812024A80807802434A807047427812020A8003781A430A80C27812024A80807802434A80704702780A70027912024A60C3781A4312024A6083781A43120293
:4058C0004A60407802434A60704710B504460088F2F774FB00280AD0A07815280FD008DC05280CD013280AD0142806D107E0022010BD1A2803D03B2801D0122010BD002028
:4059000010BD012070470078012801D912207047002070470020704710B50446012008702088F2F74BFB002822D06188A08881421CD8114A891F914218D2511D884215D86A
:4059400021890D4B0A460A3A1B1F9A420ED2E288FF23F4339A4209D8521C4243C9005000814203D9A0896189884203D2122010BD022010BD002010BD7B0C00000020704795
:4059800010B501220A700179037E0A46194303292FD8002A02D1417903292AD8018842888A4226D8154B091F994222D2042A20D38289C1898A421CD8114B921F9A4218D249
:4059C0005A1D914215D8428A0D4C13460A3B241FA3420ED2038AFF24F434A34209D85B1C4B43D20059008A4203D9C18A808A814201D2122010BD002010BD0000FD3F00001C
:405A00007B0C0000002070470020704710B50088F2F7D4FA002801D0002010BD022010BD10B50088F2F7CAFA002801D0002010BD022010BD10B50088F2F7C0FA002801D0A0
:405A4000002010BD022010BD10B501220A700088F2F7B4FA002801D0002010BD022010BD002070470078272801D912207047002070470078012801D9122070470020704781
:405A800010B501790388428804291BD801290AD0934217D80124A403A24213D8202B11D3827B032A0ED8012901D0042902D18179032907D84179032904D8407B410701D0FA
:405AC000C00800D0122010BD00781F2801D9122070470020704741780A09817812011143C2780A430179114342790A438179C0791143084300D01220704701794A090AD1FA
:405B0000027843781A438378C07803431A430A4301D0002070471220704700207047017840780143012901D91220704700207047017901290FD8018842888A420BD8084B2F
:405B4000091F994207D2042A05D34179032902D88079032801D912207047002070470000FD3F000010B501220A700088F2F726FA002801D0002010BD022010BD00207047EA
:405B80000178272902D88078072801D9122070470020704710B50088F2F710FA002801D0002010BD022010BD0120704710B50088F2F704FA002801D0002010BD022010BD8B
:405BC00010B504460088F2F7F9F9002804D0A078012803D9122010BD022010BD002010BD0020704710B504460088F2F7E7F9002804D06088002803D0002010BD022010BD4D
:405C0000122010BDF8B50E460021054600910120307069460820FEF766FA002801D00720F8BD2868009C056800220A492046FDF751FFA571280AE071280C2072280E607286
:405C400008206070022030702146FF20FDF7C1FC0020F8BD26FD000010B50020F1F7C2FC002010BDC27812020A6083781A4312020A6043781A4312020A6003781A430A605D
:405C800002790A71407948717047C27812020A6083781A4312020A6043781A4312020A6003781A430A60007908717047C27812020A6083781A4312020A6043781A431202FC
:405CC0000A60007802430A60704710B5C27812020A6083781A4312020A6043781A4312020A6003781A430A6002790A71182A01D918220A71002205E083188C185B79521CE2
:405D00002372D2B20B799342F6D810BDC27812020A6083781A4312020A6043781A4312020A6003781A430A60C27912024A6083791A4312024A6043791A4312024A60007990
:405D400002434A60704700003EB500200290012008700D4602A90820FEF7C5F9002801D007203EBD6846029CEFF7EAFA00220D492046FDF7AFFE68460078A0716846407819
:405D8000E07168468088207268468078607208206070022028702146FF20FDF71AFC00203EBD00002FFD00000F4B00B5D2181300F4F79AFD0B070A0D090916101309070A2D
:405DC0000900FFF762FF00BDFFF77FFF00BDFFF749FF00BDFFF76AFF00BDFFF797FF00BD0078087000BD0000E002FFFF10B50C4601460F4B0020C9180B00F4F775FD0D0C2E
:405E00000D0C080C1717171717170C12170011462046FFF7F7FE10BD11462046FFF71CFF10BD11462046FFF78FFF10BD012010BDDD02FFFF70B5054600780C468872691CD4
:405E40000622201DEEF755FB2046E91D10221B30EEF74FFB29462046173110220B30EEF748FB70BD704710B50B460178401C197001460622581CEEF73CFB10BD10B50B4684
:405E80000178401C197001460622581CEEF731FB10BD704710B50B460178401C197001460622581CEEF725FB10BD007808707047427812020A80007802430A80704770B5C1
:405EC000054600780C460870691C0622601CEEF710FBE879E07170BD7047002070470000F8B50D46114914781646411808D0104807460E37007D012908D002290BD10CE0C0
:405F0000FAF7FEFA29198870641C03E02A19921C012305E0E4B23470F8BD2A19921C00233946FAF7C7FA6871A41DF3E7D6DFFFFFA02100080649401805D0012805D0022819
:405F400003D00020704701207047062070470000D6DFFFFF10B50022F9F744FCC0B210BD10B5FAF7D3F810BD10B5FAF795FA10BD10B5FAF791FA10BD0020704710B5FAF7BE
:405F8000C5FA10BD10B5FAF7C1FC10BD10B5FAF7D5FC10BD10B5FAF7EFFC10BD10B500F025F810BD014A12681269104734020008014A1268D269104734020008014A126885
:405FC000926A104734020008014A1268D26C104734020008014A1268926D104734020008014AD2685268104734020008807A012801D912207047002070470078012801D913
:40600000122070470020704700207047002801D000207047122070470078012801D91220704700207047000000880449401E884201D312207047002070470000B8A10000EB
:406040000178012902D8C079012801D91220704700207047014A12681268104734020008014A12689269104734020008014A1268D26B104734020008014A1268126B10474E
:4060800034020008014A1268526A104734020008014A1268D268104734020008014A1268926C104734020008014A1268526D104734020008014AD2681268104734020008F3
:4060C00004480349016004494160044981607047084F001034020008D95E0110DB5E011006480549016006494160064981600249C031C16070470000A84E00103402000828
:40610000E15E0110355F0110014A12689268104734020008014A1268126A104734020008014A1268526C104734020008014A1268926B104734020008014A1268D26A104779
:4061400034020008014A12685269104734020008014A1268126D104734020008014A1268D26D104734020008014AD268926810473402000870477047427812020A80037805
:406180001A430A80C27812024A8083781A434A80427912028A80007902438A807047427812020A8003781A430A80C27812024A80807802434A8070470749401805D0012830
:4061C00005D00D2805D0002070470220704704207047082070470000DEDFFFFF0020704770470000FEB50D4627491646147840180022002802D00C2844D115E06B461A71C1
:4062000001A96846FBF75EFA6B461988281981701988A41C090AC170E0B25A8829188A705A88120ACA702BE069460A7202A96846FBF732FA6946898828198170694689884D
:40624000A41C090AC170E0B269462A18C98891706946C988801C090AD170C0B269462A180988917069460988801C090AD170C0B2694649882A18917069464988090AD17027
:40628000801CC4B23470FEBDDDDFFFFF38B504460020009069460F20FDF725FF002801D0072038BD00993E200870072088702078C8702088000A0871A07848716088000A75
:4062C00088712079C871A088000A0872A0794872E088000A8872207AC8722089000A08730B2048700720FDF774F938BD10B5FBF7D3F910BD10B5FBF7E5F910BD10B5FBF71D
:40630000F1F910BD10B5FBF713FA10BD014A1268926A104744020008014A12681269104744020008014A12685268104744020008014A1268D269104744020008002801D008
:406340000020704712207047002801D0002070471220704710B504460088F1F72FFE002816D0618808461B38E1280FD2A0880A4A90420BD8FF224932904207D3074A126B2F
:406380009388994202D8D188884203D9122010BD022010BD002010BD480800005C21000810B50021002815D0028813461B3BE12B0FD24088084B98420BD8FF2349339842F5
:4063C00007D3064B1B6B9C88A24202D8DA88904200D91221084610BD480800005C210008014A1268526A104744020008014A1268D268104744020008014A1268126810477A
:4064000044020008014A1268926910474402000804480349016004494160044981607047804F001044020008E1610110DD6101100448034901600449416004498160704742
:40644000B04F001044020008E5610110B9610110014A1268D26A104744020008014A12685269104744020008014A12689268104744020008014A1268126A10474402000828
:4064800002780A7042784A7080788870704702780A7042784A7082788A70C078C8707047427812020A80007802430A80704702780A7042784A708078887070474278120217
:4064C0000A8003781A430A8082788A70C278CA7002790A7182791202CA8040790243CA8070470000014A1268926A104750020008014A1268526B104750020008014A126890
